{
	"BuildGuildSoulbound.sol": {
		"ERC721ASoulboundMock": {
			"abi": [
				{
					"inputs": [
						{
							"internalType": "string",
							"name": "name_",
							"type": "string"
						},
						{
							"internalType": "string",
							"name": "symbol_",
							"type": "string"
						}
					],
					"stateMutability": "nonpayable",
					"type": "constructor"
				},
				{
					"inputs": [],
					"name": "ApprovalCallerNotOwnerNorApproved",
					"type": "error"
				},
				{
					"inputs": [],
					"name": "ApprovalQueryForNonexistentToken",
					"type": "error"
				},
				{
					"inputs": [],
					"name": "BalanceQueryForZeroAddress",
					"type": "error"
				},
				{
					"inputs": [],
					"name": "MintERC2309QuantityExceedsLimit",
					"type": "error"
				},
				{
					"inputs": [],
					"name": "MintToZeroAddress",
					"type": "error"
				},
				{
					"inputs": [],
					"name": "MintZeroQuantity",
					"type": "error"
				},
				{
					"inputs": [],
					"name": "OwnerQueryForNonexistentToken",
					"type": "error"
				},
				{
					"inputs": [],
					"name": "OwnershipNotInitializedForExtraData",
					"type": "error"
				},
				{
					"inputs": [],
					"name": "SoulboundTokenCannotBeTransferred",
					"type": "error"
				},
				{
					"inputs": [],
					"name": "TransferCallerNotOwnerNorApproved",
					"type": "error"
				},
				{
					"inputs": [],
					"name": "TransferFromIncorrectOwner",
					"type": "error"
				},
				{
					"inputs": [],
					"name": "TransferToNonERC721ReceiverImplementer",
					"type": "error"
				},
				{
					"inputs": [],
					"name": "TransferToZeroAddress",
					"type": "error"
				},
				{
					"inputs": [],
					"name": "URIQueryForNonexistentToken",
					"type": "error"
				},
				{
					"anonymous": false,
					"inputs": [
						{
							"indexed": true,
							"internalType": "address",
							"name": "owner",
							"type": "address"
						},
						{
							"indexed": true,
							"internalType": "address",
							"name": "approved",
							"type": "address"
						},
						{
							"indexed": true,
							"internalType": "uint256",
							"name": "tokenId",
							"type": "uint256"
						}
					],
					"name": "Approval",
					"type": "event"
				},
				{
					"anonymous": false,
					"inputs": [
						{
							"indexed": true,
							"internalType": "address",
							"name": "owner",
							"type": "address"
						},
						{
							"indexed": true,
							"internalType": "address",
							"name": "operator",
							"type": "address"
						},
						{
							"indexed": false,
							"internalType": "bool",
							"name": "approved",
							"type": "bool"
						}
					],
					"name": "ApprovalForAll",
					"type": "event"
				},
				{
					"anonymous": false,
					"inputs": [
						{
							"indexed": true,
							"internalType": "uint256",
							"name": "fromTokenId",
							"type": "uint256"
						},
						{
							"indexed": false,
							"internalType": "uint256",
							"name": "toTokenId",
							"type": "uint256"
						},
						{
							"indexed": true,
							"internalType": "address",
							"name": "from",
							"type": "address"
						},
						{
							"indexed": true,
							"internalType": "address",
							"name": "to",
							"type": "address"
						}
					],
					"name": "ConsecutiveTransfer",
					"type": "event"
				},
				{
					"anonymous": false,
					"inputs": [
						{
							"indexed": true,
							"internalType": "address",
							"name": "from",
							"type": "address"
						},
						{
							"indexed": true,
							"internalType": "address",
							"name": "to",
							"type": "address"
						},
						{
							"indexed": true,
							"internalType": "uint256",
							"name": "tokenId",
							"type": "uint256"
						}
					],
					"name": "Transfer",
					"type": "event"
				},
				{
					"inputs": [
						{
							"internalType": "address",
							"name": "to",
							"type": "address"
						},
						{
							"internalType": "uint256",
							"name": "tokenId",
							"type": "uint256"
						}
					],
					"name": "approve",
					"outputs": [],
					"stateMutability": "payable",
					"type": "function"
				},
				{
					"inputs": [
						{
							"internalType": "address",
							"name": "owner",
							"type": "address"
						}
					],
					"name": "balanceOf",
					"outputs": [
						{
							"internalType": "uint256",
							"name": "",
							"type": "uint256"
						}
					],
					"stateMutability": "view",
					"type": "function"
				},
				{
					"inputs": [
						{
							"internalType": "uint256",
							"name": "tokenId",
							"type": "uint256"
						}
					],
					"name": "burn",
					"outputs": [],
					"stateMutability": "nonpayable",
					"type": "function"
				},
				{
					"inputs": [
						{
							"internalType": "uint256",
							"name": "tokenId",
							"type": "uint256"
						}
					],
					"name": "getApproved",
					"outputs": [
						{
							"internalType": "address",
							"name": "",
							"type": "address"
						}
					],
					"stateMutability": "view",
					"type": "function"
				},
				{
					"inputs": [
						{
							"internalType": "address",
							"name": "owner",
							"type": "address"
						},
						{
							"internalType": "address",
							"name": "operator",
							"type": "address"
						}
					],
					"name": "isApprovedForAll",
					"outputs": [
						{
							"internalType": "bool",
							"name": "",
							"type": "bool"
						}
					],
					"stateMutability": "view",
					"type": "function"
				},
				{
					"inputs": [],
					"name": "name",
					"outputs": [
						{
							"internalType": "string",
							"name": "",
							"type": "string"
						}
					],
					"stateMutability": "view",
					"type": "function"
				},
				{
					"inputs": [
						{
							"internalType": "uint256",
							"name": "tokenId",
							"type": "uint256"
						}
					],
					"name": "ownerOf",
					"outputs": [
						{
							"internalType": "address",
							"name": "",
							"type": "address"
						}
					],
					"stateMutability": "view",
					"type": "function"
				},
				{
					"inputs": [
						{
							"internalType": "address",
							"name": "to",
							"type": "address"
						},
						{
							"internalType": "uint256",
							"name": "quantity",
							"type": "uint256"
						}
					],
					"name": "safeMint",
					"outputs": [],
					"stateMutability": "nonpayable",
					"type": "function"
				},
				{
					"inputs": [
						{
							"internalType": "address",
							"name": "from",
							"type": "address"
						},
						{
							"internalType": "address",
							"name": "to",
							"type": "address"
						},
						{
							"internalType": "uint256",
							"name": "tokenId",
							"type": "uint256"
						}
					],
					"name": "safeTransferFrom",
					"outputs": [],
					"stateMutability": "payable",
					"type": "function"
				},
				{
					"inputs": [
						{
							"internalType": "address",
							"name": "from",
							"type": "address"
						},
						{
							"internalType": "address",
							"name": "to",
							"type": "address"
						},
						{
							"internalType": "uint256",
							"name": "tokenId",
							"type": "uint256"
						},
						{
							"internalType": "bytes",
							"name": "_data",
							"type": "bytes"
						}
					],
					"name": "safeTransferFrom",
					"outputs": [],
					"stateMutability": "payable",
					"type": "function"
				},
				{
					"inputs": [
						{
							"internalType": "address",
							"name": "operator",
							"type": "address"
						},
						{
							"internalType": "bool",
							"name": "approved",
							"type": "bool"
						}
					],
					"name": "setApprovalForAll",
					"outputs": [],
					"stateMutability": "nonpayable",
					"type": "function"
				},
				{
					"inputs": [
						{
							"internalType": "bytes4",
							"name": "interfaceId",
							"type": "bytes4"
						}
					],
					"name": "supportsInterface",
					"outputs": [
						{
							"internalType": "bool",
							"name": "",
							"type": "bool"
						}
					],
					"stateMutability": "view",
					"type": "function"
				},
				{
					"inputs": [],
					"name": "symbol",
					"outputs": [
						{
							"internalType": "string",
							"name": "",
							"type": "string"
						}
					],
					"stateMutability": "view",
					"type": "function"
				},
				{
					"inputs": [
						{
							"internalType": "uint256",
							"name": "tokenId",
							"type": "uint256"
						}
					],
					"name": "tokenURI",
					"outputs": [
						{
							"internalType": "string",
							"name": "",
							"type": "string"
						}
					],
					"stateMutability": "view",
					"type": "function"
				},
				{
					"inputs": [],
					"name": "totalSupply",
					"outputs": [
						{
							"internalType": "uint256",
							"name": "",
							"type": "uint256"
						}
					],
					"stateMutability": "view",
					"type": "function"
				},
				{
					"inputs": [
						{
							"internalType": "address",
							"name": "from",
							"type": "address"
						},
						{
							"internalType": "address",
							"name": "to",
							"type": "address"
						},
						{
							"internalType": "uint256",
							"name": "tokenId",
							"type": "uint256"
						}
					],
					"name": "transferFrom",
					"outputs": [],
					"stateMutability": "payable",
					"type": "function"
				}
			],
			"devdoc": {
				"kind": "dev",
				"methods": {
					"approve(address,uint256)": {
						"details": "Gives permission to `to` to transfer `tokenId` token to another account. The approval is cleared when the token is transferred. Only a single account can be approved at a time, so approving the zero address clears previous approvals. Requirements: - The caller must own the token or be an approved operator. - `tokenId` must exist. Emits an {Approval} event."
					},
					"balanceOf(address)": {
						"details": "Returns the number of tokens in `owner`'s account."
					},
					"burn(uint256)": {
						"details": "Burns `tokenId`. See {ERC721A-_burn}. Requirements: - The caller must own `tokenId` or be an approved operator."
					},
					"getApproved(uint256)": {
						"details": "Returns the account approved for `tokenId` token. Requirements: - `tokenId` must exist."
					},
					"isApprovedForAll(address,address)": {
						"details": "Returns if the `operator` is allowed to manage all of the assets of `owner`. See {setApprovalForAll}."
					},
					"name()": {
						"details": "Returns the token collection name."
					},
					"ownerOf(uint256)": {
						"details": "Returns the owner of the `tokenId` token. Requirements: - `tokenId` must exist."
					},
					"safeTransferFrom(address,address,uint256)": {
						"details": "Equivalent to `safeTransferFrom(from, to, tokenId, '')`."
					},
					"safeTransferFrom(address,address,uint256,bytes)": {
						"details": "Safely transfers `tokenId` token from `from` to `to`. Requirements: - `from` cannot be the zero address. - `to` cannot be the zero address. - `tokenId` token must exist and be owned by `from`. - If the caller is not `from`, it must be approved to move this token by either {approve} or {setApprovalForAll}. - If `to` refers to a smart contract, it must implement {IERC721Receiver-onERC721Received}, which is called upon a safe transfer. Emits a {Transfer} event."
					},
					"setApprovalForAll(address,bool)": {
						"details": "Approve or remove `operator` as an operator for the caller. Operators can call {transferFrom} or {safeTransferFrom} for any token owned by the caller. Requirements: - The `operator` cannot be the caller. Emits an {ApprovalForAll} event."
					},
					"supportsInterface(bytes4)": {
						"details": "Returns true if this contract implements the interface defined by `interfaceId`. See the corresponding [EIP section](https://eips.ethereum.org/EIPS/eip-165#how-interfaces-are-identified) to learn more about how these ids are created. This function call must use less than 30000 gas."
					},
					"symbol()": {
						"details": "Returns the token collection symbol."
					},
					"tokenURI(uint256)": {
						"details": "Returns the Uniform Resource Identifier (URI) for `tokenId` token."
					},
					"totalSupply()": {
						"details": "Returns the total number of tokens in existence. Burned tokens will reduce the count. To get the total number of tokens minted, please see {_totalMinted}."
					},
					"transferFrom(address,address,uint256)": {
						"details": "Transfers `tokenId` from `from` to `to`. Requirements: - `from` cannot be the zero address. - `to` cannot be the zero address. - `tokenId` token must be owned by `from`. - If the caller is not `from`, it must be approved to move this token by either {approve} or {setApprovalForAll}. Emits a {Transfer} event."
					}
				},
				"version": 1
			},
			"evm": {
				"assembly": "    /* \"BuildGuildSoulbound.sol\":144:385  contract ERC721ASoulboundMock is ERC721ASoulbound {... */\n  mstore(0x40, 0x80)\n    /* \"BuildGuildSoulbound.sol\":200:282  constructor(string memory name_, string memory symbol_) ERC721A(name_, symbol_) {} */\n  callvalue\n  dup1\n  iszero\n  tag_1\n  jumpi\n  0x00\n  dup1\n  revert\ntag_1:\n  pop\n  mload(0x40)\n  sub(codesize, bytecodeSize)\n  dup1\n  bytecodeSize\n  dup4\n  codecopy\n  dup2\n  dup2\n  add\n  0x40\n  mstore\n  dup2\n  add\n  swap1\n  tag_2\n  swap2\n  swap1\n  tag_3\n  jump\t// in\ntag_2:\n    /* \"BuildGuildSoulbound.sol\":264:269  name_ */\n  dup2\n    /* \"BuildGuildSoulbound.sol\":271:278  symbol_ */\n  dup2\n    /* \"ERC721A.sol\":5020:5025  name_ */\n  dup2\n    /* \"ERC721A.sol\":5012:5017  _name */\n  0x02\n    /* \"ERC721A.sol\":5012:5025  _name = name_ */\n  swap1\n  dup1\n  mload\n  swap1\n  0x20\n  add\n  swap1\n  tag_7\n  swap3\n  swap2\n  swap1\n  tag_8\n  jump\t// in\ntag_7:\n  pop\n    /* \"ERC721A.sol\":5045:5052  symbol_ */\n  dup1\n    /* \"ERC721A.sol\":5035:5042  _symbol */\n  0x03\n    /* \"ERC721A.sol\":5035:5052  _symbol = symbol_ */\n  swap1\n  dup1\n  mload\n  swap1\n  0x20\n  add\n  swap1\n  tag_9\n  swap3\n  swap2\n  swap1\n  tag_8\n  jump\t// in\ntag_9:\n  pop\n    /* \"ERC721A.sol\":5078:5093  _startTokenId() */\n  tag_10\n    /* \"ERC721A.sol\":5078:5091  _startTokenId */\n  shl(0x20, tag_11)\n    /* \"ERC721A.sol\":5078:5093  _startTokenId() */\n  0x20\n  shr\n  jump\t// in\ntag_10:\n    /* \"ERC721A.sol\":5062:5075  _currentIndex */\n  0x00\n    /* \"ERC721A.sol\":5062:5093  _currentIndex = _startTokenId() */\n  dup2\n  swap1\n  sstore\n  pop\n    /* \"ERC721A.sol\":4946:5100  constructor(string memory name_, string memory symbol_) {... */\n  pop\n  pop\n    /* \"BuildGuildSoulbound.sol\":200:282  constructor(string memory name_, string memory symbol_) ERC721A(name_, symbol_) {} */\n  pop\n  pop\n    /* \"BuildGuildSoulbound.sol\":144:385  contract ERC721ASoulboundMock is ERC721ASoulbound {... */\n  jump(tag_13)\n    /* \"ERC721A.sol\":5426:5516  function _startTokenId() internal view virtual returns (uint256) {... */\ntag_11:\n    /* \"ERC721A.sol\":5482:5489  uint256 */\n  0x00\n    /* \"ERC721A.sol\":5426:5516  function _startTokenId() internal view virtual returns (uint256) {... */\n  swap1\n  jump\t// out\n    /* \"BuildGuildSoulbound.sol\":144:385  contract ERC721ASoulboundMock is ERC721ASoulbound {... */\ntag_8:\n  dup3\n  dup1\n  sload\n  tag_15\n  swap1\n  tag_16\n  jump\t// in\ntag_15:\n  swap1\n  0x00\n  mstore\n  keccak256(0x00, 0x20)\n  swap1\n  0x1f\n  add\n  0x20\n  swap1\n  div\n  dup2\n  add\n  swap3\n  dup3\n  tag_18\n  jumpi\n  0x00\n  dup6\n  sstore\n  jump(tag_17)\ntag_18:\n  dup3\n  0x1f\n  lt\n  tag_19\n  jumpi\n  dup1\n  mload\n  not(0xff)\n  and\n  dup4\n  dup1\n  add\n  or\n  dup6\n  sstore\n  jump(tag_17)\ntag_19:\n  dup3\n  dup1\n  add\n  0x01\n  add\n  dup6\n  sstore\n  dup3\n  iszero\n  tag_17\n  jumpi\n  swap2\n  dup3\n  add\ntag_20:\n  dup3\n  dup2\n  gt\n  iszero\n  tag_21\n  jumpi\n  dup3\n  mload\n  dup3\n  sstore\n  swap2\n  0x20\n  add\n  swap2\n  swap1\n  0x01\n  add\n  swap1\n  jump(tag_20)\ntag_21:\ntag_17:\n  pop\n  swap1\n  pop\n  tag_22\n  swap2\n  swap1\n  tag_23\n  jump\t// in\ntag_22:\n  pop\n  swap1\n  jump\t// out\ntag_23:\ntag_24:\n  dup1\n  dup3\n  gt\n  iszero\n  tag_25\n  jumpi\n  0x00\n  dup2\n  0x00\n  swap1\n  sstore\n  pop\n  0x01\n  add\n  jump(tag_24)\ntag_25:\n  pop\n  swap1\n  jump\t// out\n    /* \"#utility.yul\":7:428   */\ntag_27:\n    /* \"#utility.yul\":96:101   */\n  0x00\n    /* \"#utility.yul\":121:187   */\n  tag_29\n    /* \"#utility.yul\":137:186   */\n  tag_30\n    /* \"#utility.yul\":179:185   */\n  dup5\n    /* \"#utility.yul\":137:186   */\n  tag_31\n  jump\t// in\ntag_30:\n    /* \"#utility.yul\":121:187   */\n  tag_32\n  jump\t// in\ntag_29:\n    /* \"#utility.yul\":112:187   */\n  swap1\n  pop\n    /* \"#utility.yul\":210:216   */\n  dup3\n    /* \"#utility.yul\":203:208   */\n  dup2\n    /* \"#utility.yul\":196:217   */\n  mstore\n    /* \"#utility.yul\":248:252   */\n  0x20\n    /* \"#utility.yul\":241:246   */\n  dup2\n    /* \"#utility.yul\":237:253   */\n  add\n    /* \"#utility.yul\":286:289   */\n  dup5\n    /* \"#utility.yul\":277:283   */\n  dup5\n    /* \"#utility.yul\":272:275   */\n  dup5\n    /* \"#utility.yul\":268:284   */\n  add\n    /* \"#utility.yul\":265:290   */\n  gt\n    /* \"#utility.yul\":262:374   */\n  iszero\n  tag_33\n  jumpi\n    /* \"#utility.yul\":293:372   */\n  tag_34\n  tag_35\n  jump\t// in\ntag_34:\n    /* \"#utility.yul\":262:374   */\ntag_33:\n    /* \"#utility.yul\":383:422   */\n  tag_36\n    /* \"#utility.yul\":415:421   */\n  dup5\n    /* \"#utility.yul\":410:413   */\n  dup3\n    /* \"#utility.yul\":405:408   */\n  dup6\n    /* \"#utility.yul\":383:422   */\n  tag_37\n  jump\t// in\ntag_36:\n    /* \"#utility.yul\":102:428   */\n  pop\n    /* \"#utility.yul\":7:428   */\n  swap4\n  swap3\n  pop\n  pop\n  pop\n  jump\t// out\n    /* \"#utility.yul\":448:803   */\ntag_38:\n    /* \"#utility.yul\":515:520   */\n  0x00\n    /* \"#utility.yul\":564:567   */\n  dup3\n    /* \"#utility.yul\":557:561   */\n  0x1f\n    /* \"#utility.yul\":549:555   */\n  dup4\n    /* \"#utility.yul\":545:562   */\n  add\n    /* \"#utility.yul\":541:568   */\n  slt\n    /* \"#utility.yul\":531:653   */\n  tag_40\n  jumpi\n    /* \"#utility.yul\":572:651   */\n  tag_41\n  tag_42\n  jump\t// in\ntag_41:\n    /* \"#utility.yul\":531:653   */\ntag_40:\n    /* \"#utility.yul\":682:688   */\n  dup2\n    /* \"#utility.yul\":676:689   */\n  mload\n    /* \"#utility.yul\":707:797   */\n  tag_43\n    /* \"#utility.yul\":793:796   */\n  dup5\n    /* \"#utility.yul\":785:791   */\n  dup3\n    /* \"#utility.yul\":778:782   */\n  0x20\n    /* \"#utility.yul\":770:776   */\n  dup7\n    /* \"#utility.yul\":766:783   */\n  add\n    /* \"#utility.yul\":707:797   */\n  tag_27\n  jump\t// in\ntag_43:\n    /* \"#utility.yul\":698:797   */\n  swap2\n  pop\n    /* \"#utility.yul\":521:803   */\n  pop\n    /* \"#utility.yul\":448:803   */\n  swap3\n  swap2\n  pop\n  pop\n  jump\t// out\n    /* \"#utility.yul\":809:1662   */\ntag_3:\n    /* \"#utility.yul\":908:914   */\n  0x00\n    /* \"#utility.yul\":916:922   */\n  dup1\n    /* \"#utility.yul\":965:967   */\n  0x40\n    /* \"#utility.yul\":953:962   */\n  dup4\n    /* \"#utility.yul\":944:951   */\n  dup6\n    /* \"#utility.yul\":940:963   */\n  sub\n    /* \"#utility.yul\":936:968   */\n  slt\n    /* \"#utility.yul\":933:1052   */\n  iszero\n  tag_45\n  jumpi\n    /* \"#utility.yul\":971:1050   */\n  tag_46\n  tag_47\n  jump\t// in\ntag_46:\n    /* \"#utility.yul\":933:1052   */\ntag_45:\n    /* \"#utility.yul\":1112:1113   */\n  0x00\n    /* \"#utility.yul\":1101:1110   */\n  dup4\n    /* \"#utility.yul\":1097:1114   */\n  add\n    /* \"#utility.yul\":1091:1115   */\n  mload\n    /* \"#utility.yul\":1142:1160   */\n  0xffffffffffffffff\n    /* \"#utility.yul\":1134:1140   */\n  dup2\n    /* \"#utility.yul\":1131:1161   */\n  gt\n    /* \"#utility.yul\":1128:1245   */\n  iszero\n  tag_48\n  jumpi\n    /* \"#utility.yul\":1164:1243   */\n  tag_49\n  tag_50\n  jump\t// in\ntag_49:\n    /* \"#utility.yul\":1128:1245   */\ntag_48:\n    /* \"#utility.yul\":1269:1343   */\n  tag_51\n    /* \"#utility.yul\":1335:1342   */\n  dup6\n    /* \"#utility.yul\":1326:1332   */\n  dup3\n    /* \"#utility.yul\":1315:1324   */\n  dup7\n    /* \"#utility.yul\":1311:1333   */\n  add\n    /* \"#utility.yul\":1269:1343   */\n  tag_38\n  jump\t// in\ntag_51:\n    /* \"#utility.yul\":1259:1343   */\n  swap3\n  pop\n    /* \"#utility.yul\":1062:1353   */\n  pop\n    /* \"#utility.yul\":1413:1415   */\n  0x20\n    /* \"#utility.yul\":1402:1411   */\n  dup4\n    /* \"#utility.yul\":1398:1416   */\n  add\n    /* \"#utility.yul\":1392:1417   */\n  mload\n    /* \"#utility.yul\":1444:1462   */\n  0xffffffffffffffff\n    /* \"#utility.yul\":1436:1442   */\n  dup2\n    /* \"#utility.yul\":1433:1463   */\n  gt\n    /* \"#utility.yul\":1430:1547   */\n  iszero\n  tag_52\n  jumpi\n    /* \"#utility.yul\":1466:1545   */\n  tag_53\n  tag_50\n  jump\t// in\ntag_53:\n    /* \"#utility.yul\":1430:1547   */\ntag_52:\n    /* \"#utility.yul\":1571:1645   */\n  tag_54\n    /* \"#utility.yul\":1637:1644   */\n  dup6\n    /* \"#utility.yul\":1628:1634   */\n  dup3\n    /* \"#utility.yul\":1617:1626   */\n  dup7\n    /* \"#utility.yul\":1613:1635   */\n  add\n    /* \"#utility.yul\":1571:1645   */\n  tag_38\n  jump\t// in\ntag_54:\n    /* \"#utility.yul\":1561:1645   */\n  swap2\n  pop\n    /* \"#utility.yul\":1363:1655   */\n  pop\n    /* \"#utility.yul\":809:1662   */\n  swap3\n  pop\n  swap3\n  swap1\n  pop\n  jump\t// out\n    /* \"#utility.yul\":1668:1797   */\ntag_32:\n    /* \"#utility.yul\":1702:1708   */\n  0x00\n    /* \"#utility.yul\":1729:1749   */\n  tag_56\n  tag_57\n  jump\t// in\ntag_56:\n    /* \"#utility.yul\":1719:1749   */\n  swap1\n  pop\n    /* \"#utility.yul\":1758:1791   */\n  tag_58\n    /* \"#utility.yul\":1786:1790   */\n  dup3\n    /* \"#utility.yul\":1778:1784   */\n  dup3\n    /* \"#utility.yul\":1758:1791   */\n  tag_59\n  jump\t// in\ntag_58:\n    /* \"#utility.yul\":1668:1797   */\n  swap2\n  swap1\n  pop\n  jump\t// out\n    /* \"#utility.yul\":1803:1878   */\ntag_57:\n    /* \"#utility.yul\":1836:1842   */\n  0x00\n    /* \"#utility.yul\":1869:1871   */\n  0x40\n    /* \"#utility.yul\":1863:1872   */\n  mload\n    /* \"#utility.yul\":1853:1872   */\n  swap1\n  pop\n    /* \"#utility.yul\":1803:1878   */\n  swap1\n  jump\t// out\n    /* \"#utility.yul\":1884:2192   */\ntag_31:\n    /* \"#utility.yul\":1946:1950   */\n  0x00\n    /* \"#utility.yul\":2036:2054   */\n  0xffffffffffffffff\n    /* \"#utility.yul\":2028:2034   */\n  dup3\n    /* \"#utility.yul\":2025:2055   */\n  gt\n    /* \"#utility.yul\":2022:2078   */\n  iszero\n  tag_62\n  jumpi\n    /* \"#utility.yul\":2058:2076   */\n  tag_63\n  tag_64\n  jump\t// in\ntag_63:\n    /* \"#utility.yul\":2022:2078   */\ntag_62:\n    /* \"#utility.yul\":2096:2125   */\n  tag_65\n    /* \"#utility.yul\":2118:2124   */\n  dup3\n    /* \"#utility.yul\":2096:2125   */\n  tag_66\n  jump\t// in\ntag_65:\n    /* \"#utility.yul\":2088:2125   */\n  swap1\n  pop\n    /* \"#utility.yul\":2180:2184   */\n  0x20\n    /* \"#utility.yul\":2174:2178   */\n  dup2\n    /* \"#utility.yul\":2170:2185   */\n  add\n    /* \"#utility.yul\":2162:2185   */\n  swap1\n  pop\n    /* \"#utility.yul\":1884:2192   */\n  swap2\n  swap1\n  pop\n  jump\t// out\n    /* \"#utility.yul\":2198:2505   */\ntag_37:\n    /* \"#utility.yul\":2266:2267   */\n  0x00\n    /* \"#utility.yul\":2276:2389   */\ntag_68:\n    /* \"#utility.yul\":2290:2296   */\n  dup4\n    /* \"#utility.yul\":2287:2288   */\n  dup2\n    /* \"#utility.yul\":2284:2297   */\n  lt\n    /* \"#utility.yul\":2276:2389   */\n  iszero\n  tag_70\n  jumpi\n    /* \"#utility.yul\":2375:2376   */\n  dup1\n    /* \"#utility.yul\":2370:2373   */\n  dup3\n    /* \"#utility.yul\":2366:2377   */\n  add\n    /* \"#utility.yul\":2360:2378   */\n  mload\n    /* \"#utility.yul\":2356:2357   */\n  dup2\n    /* \"#utility.yul\":2351:2354   */\n  dup5\n    /* \"#utility.yul\":2347:2358   */\n  add\n    /* \"#utility.yul\":2340:2379   */\n  mstore\n    /* \"#utility.yul\":2312:2314   */\n  0x20\n    /* \"#utility.yul\":2309:2310   */\n  dup2\n    /* \"#utility.yul\":2305:2315   */\n  add\n    /* \"#utility.yul\":2300:2315   */\n  swap1\n  pop\n    /* \"#utility.yul\":2276:2389   */\n  jump(tag_68)\ntag_70:\n    /* \"#utility.yul\":2407:2413   */\n  dup4\n    /* \"#utility.yul\":2404:2405   */\n  dup2\n    /* \"#utility.yul\":2401:2414   */\n  gt\n    /* \"#utility.yul\":2398:2499   */\n  iszero\n  tag_71\n  jumpi\n    /* \"#utility.yul\":2487:2488   */\n  0x00\n    /* \"#utility.yul\":2478:2484   */\n  dup5\n    /* \"#utility.yul\":2473:2476   */\n  dup5\n    /* \"#utility.yul\":2469:2485   */\n  add\n    /* \"#utility.yul\":2462:2489   */\n  mstore\n    /* \"#utility.yul\":2398:2499   */\ntag_71:\n    /* \"#utility.yul\":2247:2505   */\n  pop\n    /* \"#utility.yul\":2198:2505   */\n  pop\n  pop\n  pop\n  jump\t// out\n    /* \"#utility.yul\":2511:2831   */\ntag_16:\n    /* \"#utility.yul\":2555:2561   */\n  0x00\n    /* \"#utility.yul\":2592:2593   */\n  0x02\n    /* \"#utility.yul\":2586:2590   */\n  dup3\n    /* \"#utility.yul\":2582:2594   */\n  div\n    /* \"#utility.yul\":2572:2594   */\n  swap1\n  pop\n    /* \"#utility.yul\":2639:2640   */\n  0x01\n    /* \"#utility.yul\":2633:2637   */\n  dup3\n    /* \"#utility.yul\":2629:2641   */\n  and\n    /* \"#utility.yul\":2660:2678   */\n  dup1\n    /* \"#utility.yul\":2650:2731   */\n  tag_73\n  jumpi\n    /* \"#utility.yul\":2716:2720   */\n  0x7f\n    /* \"#utility.yul\":2708:2714   */\n  dup3\n    /* \"#utility.yul\":2704:2721   */\n  and\n    /* \"#utility.yul\":2694:2721   */\n  swap2\n  pop\n    /* \"#utility.yul\":2650:2731   */\ntag_73:\n    /* \"#utility.yul\":2778:2780   */\n  0x20\n    /* \"#utility.yul\":2770:2776   */\n  dup3\n    /* \"#utility.yul\":2767:2781   */\n  lt\n    /* \"#utility.yul\":2747:2765   */\n  dup2\n    /* \"#utility.yul\":2744:2782   */\n  eq\n    /* \"#utility.yul\":2741:2825   */\n  iszero\n  tag_74\n  jumpi\n    /* \"#utility.yul\":2797:2815   */\n  tag_75\n  tag_76\n  jump\t// in\ntag_75:\n    /* \"#utility.yul\":2741:2825   */\ntag_74:\n    /* \"#utility.yul\":2562:2831   */\n  pop\n    /* \"#utility.yul\":2511:2831   */\n  swap2\n  swap1\n  pop\n  jump\t// out\n    /* \"#utility.yul\":2837:3118   */\ntag_59:\n    /* \"#utility.yul\":2920:2947   */\n  tag_78\n    /* \"#utility.yul\":2942:2946   */\n  dup3\n    /* \"#utility.yul\":2920:2947   */\n  tag_66\n  jump\t// in\ntag_78:\n    /* \"#utility.yul\":2912:2918   */\n  dup2\n    /* \"#utility.yul\":2908:2948   */\n  add\n    /* \"#utility.yul\":3050:3056   */\n  dup2\n    /* \"#utility.yul\":3038:3048   */\n  dup2\n    /* \"#utility.yul\":3035:3057   */\n  lt\n    /* \"#utility.yul\":3014:3032   */\n  0xffffffffffffffff\n    /* \"#utility.yul\":3002:3012   */\n  dup3\n    /* \"#utility.yul\":2999:3033   */\n  gt\n    /* \"#utility.yul\":2996:3058   */\n  or\n    /* \"#utility.yul\":2993:3081   */\n  iszero\n  tag_79\n  jumpi\n    /* \"#utility.yul\":3061:3079   */\n  tag_80\n  tag_64\n  jump\t// in\ntag_80:\n    /* \"#utility.yul\":2993:3081   */\ntag_79:\n    /* \"#utility.yul\":3101:3111   */\n  dup1\n    /* \"#utility.yul\":3097:3099   */\n  0x40\n    /* \"#utility.yul\":3090:3112   */\n  mstore\n    /* \"#utility.yul\":2880:3118   */\n  pop\n    /* \"#utility.yul\":2837:3118   */\n  pop\n  pop\n  jump\t// out\n    /* \"#utility.yul\":3124:3304   */\ntag_76:\n    /* \"#utility.yul\":3172:3249   */\n  0x4e487b7100000000000000000000000000000000000000000000000000000000\n    /* \"#utility.yul\":3169:3170   */\n  0x00\n    /* \"#utility.yul\":3162:3250   */\n  mstore\n    /* \"#utility.yul\":3269:3273   */\n  0x22\n    /* \"#utility.yul\":3266:3267   */\n  0x04\n    /* \"#utility.yul\":3259:3274   */\n  mstore\n    /* \"#utility.yul\":3293:3297   */\n  0x24\n    /* \"#utility.yul\":3290:3291   */\n  0x00\n    /* \"#utility.yul\":3283:3298   */\n  revert\n    /* \"#utility.yul\":3310:3490   */\ntag_64:\n    /* \"#utility.yul\":3358:3435   */\n  0x4e487b7100000000000000000000000000000000000000000000000000000000\n    /* \"#utility.yul\":3355:3356   */\n  0x00\n    /* \"#utility.yul\":3348:3436   */\n  mstore\n    /* \"#utility.yul\":3455:3459   */\n  0x41\n    /* \"#utility.yul\":3452:3453   */\n  0x04\n    /* \"#utility.yul\":3445:3460   */\n  mstore\n    /* \"#utility.yul\":3479:3483   */\n  0x24\n    /* \"#utility.yul\":3476:3477   */\n  0x00\n    /* \"#utility.yul\":3469:3484   */\n  revert\n    /* \"#utility.yul\":3496:3613   */\ntag_42:\n    /* \"#utility.yul\":3605:3606   */\n  0x00\n    /* \"#utility.yul\":3602:3603   */\n  dup1\n    /* \"#utility.yul\":3595:3607   */\n  revert\n    /* \"#utility.yul\":3619:3736   */\ntag_35:\n    /* \"#utility.yul\":3728:3729   */\n  0x00\n    /* \"#utility.yul\":3725:3726   */\n  dup1\n    /* \"#utility.yul\":3718:3730   */\n  revert\n    /* \"#utility.yul\":3742:3859   */\ntag_50:\n    /* \"#utility.yul\":3851:3852   */\n  0x00\n    /* \"#utility.yul\":3848:3849   */\n  dup1\n    /* \"#utility.yul\":3841:3853   */\n  revert\n    /* \"#utility.yul\":3865:3982   */\ntag_47:\n    /* \"#utility.yul\":3974:3975   */\n  0x00\n    /* \"#utility.yul\":3971:3972   */\n  dup1\n    /* \"#utility.yul\":3964:3976   */\n  revert\n    /* \"#utility.yul\":3988:4090   */\ntag_66:\n    /* \"#utility.yul\":4029:4035   */\n  0x00\n    /* \"#utility.yul\":4080:4082   */\n  0x1f\n    /* \"#utility.yul\":4076:4083   */\n  not\n    /* \"#utility.yul\":4071:4073   */\n  0x1f\n    /* \"#utility.yul\":4064:4069   */\n  dup4\n    /* \"#utility.yul\":4060:4074   */\n  add\n    /* \"#utility.yul\":4056:4084   */\n  and\n    /* \"#utility.yul\":4046:4084   */\n  swap1\n  pop\n    /* \"#utility.yul\":3988:4090   */\n  swap2\n  swap1\n  pop\n  jump\t// out\n    /* \"BuildGuildSoulbound.sol\":144:385  contract ERC721ASoulboundMock is ERC721ASoulbound {... */\ntag_13:\n  dataSize(sub_0)\n  dup1\n  dataOffset(sub_0)\n  0x00\n  codecopy\n  0x00\n  return\nstop\n\nsub_0: assembly {\n        /* \"BuildGuildSoulbound.sol\":144:385  contract ERC721ASoulboundMock is ERC721ASoulbound {... */\n      mstore(0x40, 0x80)\n      jumpi(tag_1, lt(calldatasize, 0x04))\n      shr(0xe0, calldataload(0x00))\n      dup1\n      0x6352211e\n      gt\n      tag_18\n      jumpi\n      dup1\n      0xa22cb465\n      gt\n      tag_19\n      jumpi\n      dup1\n      0xa22cb465\n      eq\n      tag_14\n      jumpi\n      dup1\n      0xb88d4fde\n      eq\n      tag_15\n      jumpi\n      dup1\n      0xc87b56dd\n      eq\n      tag_16\n      jumpi\n      dup1\n      0xe985e9c5\n      eq\n      tag_17\n      jumpi\n      jump(tag_1)\n    tag_19:\n      dup1\n      0x6352211e\n      eq\n      tag_10\n      jumpi\n      dup1\n      0x70a08231\n      eq\n      tag_11\n      jumpi\n      dup1\n      0x95d89b41\n      eq\n      tag_12\n      jumpi\n      dup1\n      0xa1448194\n      eq\n      tag_13\n      jumpi\n      jump(tag_1)\n    tag_18:\n      dup1\n      0x18160ddd\n      gt\n      tag_20\n      jumpi\n      dup1\n      0x18160ddd\n      eq\n      tag_6\n      jumpi\n      dup1\n      0x23b872dd\n      eq\n      tag_7\n      jumpi\n      dup1\n      0x42842e0e\n      eq\n      tag_8\n      jumpi\n      dup1\n      0x42966c68\n      eq\n      tag_9\n      jumpi\n      jump(tag_1)\n    tag_20:\n      dup1\n      0x01ffc9a7\n      eq\n      tag_2\n      jumpi\n      dup1\n      0x06fdde03\n      eq\n      tag_3\n      jumpi\n      dup1\n      0x081812fc\n      eq\n      tag_4\n      jumpi\n      dup1\n      0x095ea7b3\n      eq\n      tag_5\n      jumpi\n    tag_1:\n      0x00\n      dup1\n      revert\n        /* \"ERC721A.sol\":9155:9785  function supportsInterface(bytes4 interfaceId) public view virtual override returns (bool) {... */\n    tag_2:\n      callvalue\n      dup1\n      iszero\n      tag_21\n      jumpi\n      0x00\n      dup1\n      revert\n    tag_21:\n      pop\n      tag_22\n      0x04\n      dup1\n      calldatasize\n      sub\n      dup2\n      add\n      swap1\n      tag_23\n      swap2\n      swap1\n      tag_24\n      jump\t// in\n    tag_23:\n      tag_25\n      jump\t// in\n    tag_22:\n      mload(0x40)\n      tag_26\n      swap2\n      swap1\n      tag_27\n      jump\t// in\n    tag_26:\n      mload(0x40)\n      dup1\n      swap2\n      sub\n      swap1\n      return\n        /* \"ERC721A.sol\":10039:10137  function name() public view virtual override returns (string memory) {... */\n    tag_3:\n      callvalue\n      dup1\n      iszero\n      tag_28\n      jumpi\n      0x00\n      dup1\n      revert\n    tag_28:\n      pop\n      tag_29\n      tag_30\n      jump\t// in\n    tag_29:\n      mload(0x40)\n      tag_31\n      swap2\n      swap1\n      tag_32\n      jump\t// in\n    tag_31:\n      mload(0x40)\n      dup1\n      swap2\n      sub\n      swap1\n      return\n        /* \"ERC721A.sol\":16360:16574  function getApproved(uint256 tokenId) public view virtual override returns (address) {... */\n    tag_4:\n      callvalue\n      dup1\n      iszero\n      tag_33\n      jumpi\n      0x00\n      dup1\n      revert\n    tag_33:\n      pop\n      tag_34\n      0x04\n      dup1\n      calldatasize\n      sub\n      dup2\n      add\n      swap1\n      tag_35\n      swap2\n      swap1\n      tag_36\n      jump\t// in\n    tag_35:\n      tag_37\n      jump\t// in\n    tag_34:\n      mload(0x40)\n      tag_38\n      swap2\n      swap1\n      tag_39\n      jump\t// in\n    tag_38:\n      mload(0x40)\n      dup1\n      swap2\n      sub\n      swap1\n      return\n        /* \"ERC721A.sol\":15812:16210  function approve(address to, uint256 tokenId) public payable virtual override {... */\n    tag_5:\n      tag_40\n      0x04\n      dup1\n      calldatasize\n      sub\n      dup2\n      add\n      swap1\n      tag_41\n      swap2\n      swap1\n      tag_42\n      jump\t// in\n    tag_41:\n      tag_43\n      jump\t// in\n    tag_40:\n      stop\n        /* \"ERC721A.sol\":5894:6211  function totalSupply() public view virtual override returns (uint256) {... */\n    tag_6:\n      callvalue\n      dup1\n      iszero\n      tag_44\n      jumpi\n      0x00\n      dup1\n      revert\n    tag_44:\n      pop\n      tag_45\n      tag_46\n      jump\t// in\n    tag_45:\n      mload(0x40)\n      tag_47\n      swap2\n      swap1\n      tag_48\n      jump\t// in\n    tag_47:\n      mload(0x40)\n      dup1\n      swap2\n      sub\n      swap1\n      return\n        /* \"ERC721A.sol\":19903:22667  function transferFrom(... */\n    tag_7:\n      tag_49\n      0x04\n      dup1\n      calldatasize\n      sub\n      dup2\n      add\n      swap1\n      tag_50\n      swap2\n      swap1\n      tag_51\n      jump\t// in\n    tag_50:\n      tag_52\n      jump\t// in\n    tag_49:\n      stop\n        /* \"ERC721A.sol\":22758:22945  function safeTransferFrom(... */\n    tag_8:\n      tag_53\n      0x04\n      dup1\n      calldatasize\n      sub\n      dup2\n      add\n      swap1\n      tag_54\n      swap2\n      swap1\n      tag_51\n      jump\t// in\n    tag_54:\n      tag_55\n      jump\t// in\n    tag_53:\n      stop\n        /* \"ERC721ABurnable.sol\":509:601  function burn(uint256 tokenId) public virtual override {... */\n    tag_9:\n      callvalue\n      dup1\n      iszero\n      tag_56\n      jumpi\n      0x00\n      dup1\n      revert\n    tag_56:\n      pop\n      tag_57\n      0x04\n      dup1\n      calldatasize\n      sub\n      dup2\n      add\n      swap1\n      tag_58\n      swap2\n      swap1\n      tag_36\n      jump\t// in\n    tag_58:\n      tag_59\n      jump\t// in\n    tag_57:\n      stop\n        /* \"ERC721A.sol\":11391:11541  function ownerOf(uint256 tokenId) public view virtual override returns (address) {... */\n    tag_10:\n      callvalue\n      dup1\n      iszero\n      tag_60\n      jumpi\n      0x00\n      dup1\n      revert\n    tag_60:\n      pop\n      tag_61\n      0x04\n      dup1\n      calldatasize\n      sub\n      dup2\n      add\n      swap1\n      tag_62\n      swap2\n      swap1\n      tag_36\n      jump\t// in\n    tag_62:\n      tag_63\n      jump\t// in\n    tag_61:\n      mload(0x40)\n      tag_64\n      swap2\n      swap1\n      tag_39\n      jump\t// in\n    tag_64:\n      mload(0x40)\n      dup1\n      swap2\n      sub\n      swap1\n      return\n        /* \"ERC721A.sol\":7045:7275  function balanceOf(address owner) public view virtual override returns (uint256) {... */\n    tag_11:\n      callvalue\n      dup1\n      iszero\n      tag_65\n      jumpi\n      0x00\n      dup1\n      revert\n    tag_65:\n      pop\n      tag_66\n      0x04\n      dup1\n      calldatasize\n      sub\n      dup2\n      add\n      swap1\n      tag_67\n      swap2\n      swap1\n      tag_68\n      jump\t// in\n    tag_67:\n      tag_69\n      jump\t// in\n    tag_66:\n      mload(0x40)\n      tag_70\n      swap2\n      swap1\n      tag_48\n      jump\t// in\n    tag_70:\n      mload(0x40)\n      dup1\n      swap2\n      sub\n      swap1\n      return\n        /* \"ERC721A.sol\":10208:10310  function symbol() public view virtual override returns (string memory) {... */\n    tag_12:\n      callvalue\n      dup1\n      iszero\n      tag_71\n      jumpi\n      0x00\n      dup1\n      revert\n    tag_71:\n      pop\n      tag_72\n      tag_73\n      jump\t// in\n    tag_72:\n      mload(0x40)\n      tag_74\n      swap2\n      swap1\n      tag_32\n      jump\t// in\n    tag_74:\n      mload(0x40)\n      dup1\n      swap2\n      sub\n      swap1\n      return\n        /* \"BuildGuildSoulbound.sol\":288:383  function safeMint(address to, uint256 quantity) public {... */\n    tag_13:\n      callvalue\n      dup1\n      iszero\n      tag_75\n      jumpi\n      0x00\n      dup1\n      revert\n    tag_75:\n      pop\n      tag_76\n      0x04\n      dup1\n      calldatasize\n      sub\n      dup2\n      add\n      swap1\n      tag_77\n      swap2\n      swap1\n      tag_42\n      jump\t// in\n    tag_77:\n      tag_78\n      jump\t// in\n    tag_76:\n      stop\n        /* \"ERC721A.sol\":16901:17132  function setApprovalForAll(address operator, bool approved) public virtual override {... */\n    tag_14:\n      callvalue\n      dup1\n      iszero\n      tag_79\n      jumpi\n      0x00\n      dup1\n      revert\n    tag_79:\n      pop\n      tag_80\n      0x04\n      dup1\n      calldatasize\n      sub\n      dup2\n      add\n      swap1\n      tag_81\n      swap2\n      swap1\n      tag_82\n      jump\t// in\n    tag_81:\n      tag_83\n      jump\t// in\n    tag_80:\n      stop\n        /* \"ERC721A.sol\":23526:23922  function safeTransferFrom(... */\n    tag_15:\n      tag_84\n      0x04\n      dup1\n      calldatasize\n      sub\n      dup2\n      add\n      swap1\n      tag_85\n      swap2\n      swap1\n      tag_86\n      jump\t// in\n    tag_85:\n      tag_87\n      jump\t// in\n    tag_84:\n      stop\n        /* \"ERC721A.sol\":10411:10724  function tokenURI(uint256 tokenId) public view virtual override returns (string memory) {... */\n    tag_16:\n      callvalue\n      dup1\n      iszero\n      tag_88\n      jumpi\n      0x00\n      dup1\n      revert\n    tag_88:\n      pop\n      tag_89\n      0x04\n      dup1\n      calldatasize\n      sub\n      dup2\n      add\n      swap1\n      tag_90\n      swap2\n      swap1\n      tag_36\n      jump\t// in\n    tag_90:\n      tag_91\n      jump\t// in\n    tag_89:\n      mload(0x40)\n      tag_92\n      swap2\n      swap1\n      tag_32\n      jump\t// in\n    tag_92:\n      mload(0x40)\n      dup1\n      swap2\n      sub\n      swap1\n      return\n        /* \"ERC721A.sol\":17282:17444  function isApprovedForAll(address owner, address operator) public view virtual override returns (bool) {... */\n    tag_17:\n      callvalue\n      dup1\n      iszero\n      tag_93\n      jumpi\n      0x00\n      dup1\n      revert\n    tag_93:\n      pop\n      tag_94\n      0x04\n      dup1\n      calldatasize\n      sub\n      dup2\n      add\n      swap1\n      tag_95\n      swap2\n      swap1\n      tag_96\n      jump\t// in\n    tag_95:\n      tag_97\n      jump\t// in\n    tag_94:\n      mload(0x40)\n      tag_98\n      swap2\n      swap1\n      tag_27\n      jump\t// in\n    tag_98:\n      mload(0x40)\n      dup1\n      swap2\n      sub\n      swap1\n      return\n        /* \"ERC721A.sol\":9155:9785  function supportsInterface(bytes4 interfaceId) public view virtual override returns (bool) {... */\n    tag_25:\n        /* \"ERC721A.sol\":9240:9244  bool */\n      0x00\n        /* \"ERC721A.sol\":9573:9583  0x01ffc9a7 */\n      0x01ffc9a7\n        /* \"ERC721A.sol\":9558:9583  interfaceId == 0x01ffc9a7 */\n      0xe0\n      shl\n        /* \"ERC721A.sol\":9558:9569  interfaceId */\n      dup3\n        /* \"ERC721A.sol\":9558:9583  interfaceId == 0x01ffc9a7 */\n      not(0xffffffffffffffffffffffffffffffffffffffffffffffffffffffff)\n      and\n      eq\n        /* \"ERC721A.sol\":9558:9659  interfaceId == 0x01ffc9a7 || // ERC165 interface ID for ERC165.... */\n      dup1\n      tag_100\n      jumpi\n      pop\n        /* \"ERC721A.sol\":9649:9659  0x80ac58cd */\n      0x80ac58cd\n        /* \"ERC721A.sol\":9634:9659  interfaceId == 0x80ac58cd */\n      0xe0\n      shl\n        /* \"ERC721A.sol\":9634:9645  interfaceId */\n      dup3\n        /* \"ERC721A.sol\":9634:9659  interfaceId == 0x80ac58cd */\n      not(0xffffffffffffffffffffffffffffffffffffffffffffffffffffffff)\n      and\n      eq\n        /* \"ERC721A.sol\":9558:9659  interfaceId == 0x01ffc9a7 || // ERC165 interface ID for ERC165.... */\n    tag_100:\n        /* \"ERC721A.sol\":9558:9735  interfaceId == 0x01ffc9a7 || // ERC165 interface ID for ERC165.... */\n      dup1\n      tag_101\n      jumpi\n      pop\n        /* \"ERC721A.sol\":9725:9735  0x5b5e139f */\n      0x5b5e139f\n        /* \"ERC721A.sol\":9710:9735  interfaceId == 0x5b5e139f */\n      0xe0\n      shl\n        /* \"ERC721A.sol\":9710:9721  interfaceId */\n      dup3\n        /* \"ERC721A.sol\":9710:9735  interfaceId == 0x5b5e139f */\n      not(0xffffffffffffffffffffffffffffffffffffffffffffffffffffffff)\n      and\n      eq\n        /* \"ERC721A.sol\":9558:9735  interfaceId == 0x01ffc9a7 || // ERC165 interface ID for ERC165.... */\n    tag_101:\n        /* \"ERC721A.sol\":9539:9735  return... */\n      swap1\n      pop\n        /* \"ERC721A.sol\":9155:9785  function supportsInterface(bytes4 interfaceId) public view virtual override returns (bool) {... */\n      swap2\n      swap1\n      pop\n      jump\t// out\n        /* \"ERC721A.sol\":10039:10137  function name() public view virtual override returns (string memory) {... */\n    tag_30:\n        /* \"ERC721A.sol\":10093:10106  string memory */\n      0x60\n        /* \"ERC721A.sol\":10125:10130  _name */\n      0x02\n        /* \"ERC721A.sol\":10118:10130  return _name */\n      dup1\n      sload\n      tag_103\n      swap1\n      tag_104\n      jump\t// in\n    tag_103:\n      dup1\n      0x1f\n      add\n      0x20\n      dup1\n      swap2\n      div\n      mul\n      0x20\n      add\n      mload(0x40)\n      swap1\n      dup2\n      add\n      0x40\n      mstore\n      dup1\n      swap3\n      swap2\n      swap1\n      dup2\n      dup2\n      mstore\n      0x20\n      add\n      dup3\n      dup1\n      sload\n      tag_105\n      swap1\n      tag_104\n      jump\t// in\n    tag_105:\n      dup1\n      iszero\n      tag_106\n      jumpi\n      dup1\n      0x1f\n      lt\n      tag_107\n      jumpi\n      0x0100\n      dup1\n      dup4\n      sload\n      div\n      mul\n      dup4\n      mstore\n      swap2\n      0x20\n      add\n      swap2\n      jump(tag_106)\n    tag_107:\n      dup3\n      add\n      swap2\n      swap1\n      0x00\n      mstore\n      keccak256(0x00, 0x20)\n      swap1\n    tag_108:\n      dup2\n      sload\n      dup2\n      mstore\n      swap1\n      0x01\n      add\n      swap1\n      0x20\n      add\n      dup1\n      dup4\n      gt\n      tag_108\n      jumpi\n      dup3\n      swap1\n      sub\n      0x1f\n      and\n      dup3\n      add\n      swap2\n    tag_106:\n      pop\n      pop\n      pop\n      pop\n      pop\n      swap1\n      pop\n        /* \"ERC721A.sol\":10039:10137  function name() public view virtual override returns (string memory) {... */\n      swap1\n      jump\t// out\n        /* \"ERC721A.sol\":16360:16574  function getApproved(uint256 tokenId) public view virtual override returns (address) {... */\n    tag_37:\n        /* \"ERC721A.sol\":16436:16443  address */\n      0x00\n        /* \"ERC721A.sol\":16460:16476  _exists(tokenId) */\n      tag_110\n        /* \"ERC721A.sol\":16468:16475  tokenId */\n      dup3\n        /* \"ERC721A.sol\":16460:16467  _exists */\n      tag_111\n        /* \"ERC721A.sol\":16460:16476  _exists(tokenId) */\n      jump\t// in\n    tag_110:\n        /* \"ERC721A.sol\":16455:16519  if (!_exists(tokenId)) revert ApprovalQueryForNonexistentToken() */\n      tag_112\n      jumpi\n        /* \"ERC721A.sol\":16485:16519  ApprovalQueryForNonexistentToken() */\n      mload(0x40)\n      0xcf4700e400000000000000000000000000000000000000000000000000000000\n      dup2\n      mstore\n      0x04\n      add\n      mload(0x40)\n      dup1\n      swap2\n      sub\n      swap1\n      revert\n        /* \"ERC721A.sol\":16455:16519  if (!_exists(tokenId)) revert ApprovalQueryForNonexistentToken() */\n    tag_112:\n        /* \"ERC721A.sol\":16537:16552  _tokenApprovals */\n      0x06\n        /* \"ERC721A.sol\":16537:16561  _tokenApprovals[tokenId] */\n      0x00\n        /* \"ERC721A.sol\":16553:16560  tokenId */\n      dup4\n        /* \"ERC721A.sol\":16537:16561  _tokenApprovals[tokenId] */\n      dup2\n      mstore\n      0x20\n      add\n      swap1\n      dup2\n      mstore\n      0x20\n      add\n      0x00\n      keccak256\n        /* \"ERC721A.sol\":16537:16567  _tokenApprovals[tokenId].value */\n      0x00\n      add\n      0x00\n      swap1\n      sload\n      swap1\n      0x0100\n      exp\n      swap1\n      div\n      0xffffffffffffffffffffffffffffffffffffffff\n      and\n        /* \"ERC721A.sol\":16530:16567  return _tokenApprovals[tokenId].value */\n      swap1\n      pop\n        /* \"ERC721A.sol\":16360:16574  function getApproved(uint256 tokenId) public view virtual override returns (address) {... */\n      swap2\n      swap1\n      pop\n      jump\t// out\n        /* \"ERC721A.sol\":15812:16210  function approve(address to, uint256 tokenId) public payable virtual override {... */\n    tag_43:\n        /* \"ERC721A.sol\":15900:15913  address owner */\n      0x00\n        /* \"ERC721A.sol\":15916:15932  ownerOf(tokenId) */\n      tag_114\n        /* \"ERC721A.sol\":15924:15931  tokenId */\n      dup3\n        /* \"ERC721A.sol\":15916:15923  ownerOf */\n      tag_63\n        /* \"ERC721A.sol\":15916:15932  ownerOf(tokenId) */\n      jump\t// in\n    tag_114:\n        /* \"ERC721A.sol\":15900:15932  address owner = ownerOf(tokenId) */\n      swap1\n      pop\n        /* \"ERC721A.sol\":15970:15975  owner */\n      dup1\n        /* \"ERC721A.sol\":15947:15975  _msgSenderERC721A() != owner */\n      0xffffffffffffffffffffffffffffffffffffffff\n      and\n        /* \"ERC721A.sol\":15947:15966  _msgSenderERC721A() */\n      tag_115\n        /* \"ERC721A.sol\":15947:15964  _msgSenderERC721A */\n      tag_116\n        /* \"ERC721A.sol\":15947:15966  _msgSenderERC721A() */\n      jump\t// in\n    tag_115:\n        /* \"ERC721A.sol\":15947:15975  _msgSenderERC721A() != owner */\n      0xffffffffffffffffffffffffffffffffffffffff\n      and\n      eq\n        /* \"ERC721A.sol\":15943:16115  if (_msgSenderERC721A() != owner)... */\n      tag_117\n      jumpi\n        /* \"ERC721A.sol\":15994:16038  isApprovedForAll(owner, _msgSenderERC721A()) */\n      tag_118\n        /* \"ERC721A.sol\":16011:16016  owner */\n      dup2\n        /* \"ERC721A.sol\":16018:16037  _msgSenderERC721A() */\n      tag_119\n        /* \"ERC721A.sol\":16018:16035  _msgSenderERC721A */\n      tag_116\n        /* \"ERC721A.sol\":16018:16037  _msgSenderERC721A() */\n      jump\t// in\n    tag_119:\n        /* \"ERC721A.sol\":15994:16010  isApprovedForAll */\n      tag_97\n        /* \"ERC721A.sol\":15994:16038  isApprovedForAll(owner, _msgSenderERC721A()) */\n      jump\t// in\n    tag_118:\n        /* \"ERC721A.sol\":15989:16115  if (!isApprovedForAll(owner, _msgSenderERC721A())) {... */\n      tag_120\n      jumpi\n        /* \"ERC721A.sol\":16065:16100  ApprovalCallerNotOwnerNorApproved() */\n      mload(0x40)\n      0xcfb3b94200000000000000000000000000000000000000000000000000000000\n      dup2\n      mstore\n      0x04\n      add\n      mload(0x40)\n      dup1\n      swap2\n      sub\n      swap1\n      revert\n        /* \"ERC721A.sol\":15989:16115  if (!isApprovedForAll(owner, _msgSenderERC721A())) {... */\n    tag_120:\n        /* \"ERC721A.sol\":15943:16115  if (_msgSenderERC721A() != owner)... */\n    tag_117:\n        /* \"ERC721A.sol\":16158:16160  to */\n      dup3\n        /* \"ERC721A.sol\":16125:16140  _tokenApprovals */\n      0x06\n        /* \"ERC721A.sol\":16125:16149  _tokenApprovals[tokenId] */\n      0x00\n        /* \"ERC721A.sol\":16141:16148  tokenId */\n      dup5\n        /* \"ERC721A.sol\":16125:16149  _tokenApprovals[tokenId] */\n      dup2\n      mstore\n      0x20\n      add\n      swap1\n      dup2\n      mstore\n      0x20\n      add\n      0x00\n      keccak256\n        /* \"ERC721A.sol\":16125:16155  _tokenApprovals[tokenId].value */\n      0x00\n      add\n      0x00\n        /* \"ERC721A.sol\":16125:16160  _tokenApprovals[tokenId].value = to */\n      0x0100\n      exp\n      dup2\n      sload\n      dup2\n      0xffffffffffffffffffffffffffffffffffffffff\n      mul\n      not\n      and\n      swap1\n      dup4\n      0xffffffffffffffffffffffffffffffffffffffff\n      and\n      mul\n      or\n      swap1\n      sstore\n      pop\n        /* \"ERC721A.sol\":16195:16202  tokenId */\n      dup2\n        /* \"ERC721A.sol\":16191:16193  to */\n      dup4\n        /* \"ERC721A.sol\":16175:16203  Approval(owner, to, tokenId) */\n      0xffffffffffffffffffffffffffffffffffffffff\n      and\n        /* \"ERC721A.sol\":16184:16189  owner */\n      dup3\n        /* \"ERC721A.sol\":16175:16203  Approval(owner, to, tokenId) */\n      0xffffffffffffffffffffffffffffffffffffffff\n      and\n      0x8c5be1e5ebec7d5bd14f71427d1e84f3dd0314c0f7b2291e5b200ac8c7c3b925\n      mload(0x40)\n      mload(0x40)\n      dup1\n      swap2\n      sub\n      swap1\n      log4\n        /* \"ERC721A.sol\":15890:16210  {... */\n      pop\n        /* \"ERC721A.sol\":15812:16210  function approve(address to, uint256 tokenId) public payable virtual override {... */\n      pop\n      pop\n      jump\t// out\n        /* \"ERC721A.sol\":5894:6211  function totalSupply() public view virtual override returns (uint256) {... */\n    tag_46:\n        /* \"ERC721A.sol\":5955:5962  uint256 */\n      0x00\n        /* \"ERC721A.sol\":6179:6194  _startTokenId() */\n      tag_122\n        /* \"ERC721A.sol\":6179:6192  _startTokenId */\n      tag_123\n        /* \"ERC721A.sol\":6179:6194  _startTokenId() */\n      jump\t// in\n    tag_122:\n        /* \"ERC721A.sol\":6164:6176  _burnCounter */\n      sload(0x01)\n        /* \"ERC721A.sol\":6148:6161  _currentIndex */\n      sload(0x00)\n        /* \"ERC721A.sol\":6148:6176  _currentIndex - _burnCounter */\n      sub\n        /* \"ERC721A.sol\":6148:6194  _currentIndex - _burnCounter - _startTokenId() */\n      sub\n        /* \"ERC721A.sol\":6141:6194  return _currentIndex - _burnCounter - _startTokenId() */\n      swap1\n      pop\n        /* \"ERC721A.sol\":5894:6211  function totalSupply() public view virtual override returns (uint256) {... */\n      swap1\n      jump\t// out\n        /* \"ERC721A.sol\":19903:22667  function transferFrom(... */\n    tag_52:\n        /* \"ERC721A.sol\":20040:20067  uint256 prevOwnershipPacked */\n      0x00\n        /* \"ERC721A.sol\":20070:20097  _packedOwnershipOf(tokenId) */\n      tag_125\n        /* \"ERC721A.sol\":20089:20096  tokenId */\n      dup3\n        /* \"ERC721A.sol\":20070:20088  _packedOwnershipOf */\n      tag_126\n        /* \"ERC721A.sol\":20070:20097  _packedOwnershipOf(tokenId) */\n      jump\t// in\n    tag_125:\n        /* \"ERC721A.sol\":20040:20097  uint256 prevOwnershipPacked = _packedOwnershipOf(tokenId) */\n      swap1\n      pop\n        /* \"ERC721A.sol\":20153:20157  from */\n      dup4\n        /* \"ERC721A.sol\":20112:20157  address(uint160(prevOwnershipPacked)) != from */\n      0xffffffffffffffffffffffffffffffffffffffff\n      and\n        /* \"ERC721A.sol\":20128:20147  prevOwnershipPacked */\n      dup2\n        /* \"ERC721A.sol\":20112:20157  address(uint160(prevOwnershipPacked)) != from */\n      0xffffffffffffffffffffffffffffffffffffffff\n      and\n      eq\n        /* \"ERC721A.sol\":20108:20194  if (address(uint160(prevOwnershipPacked)) != from) revert TransferFromIncorrectOwner() */\n      tag_127\n      jumpi\n        /* \"ERC721A.sol\":20166:20194  TransferFromIncorrectOwner() */\n      mload(0x40)\n      0xa114810000000000000000000000000000000000000000000000000000000000\n      dup2\n      mstore\n      0x04\n      add\n      mload(0x40)\n      dup1\n      swap2\n      sub\n      swap1\n      revert\n        /* \"ERC721A.sol\":20108:20194  if (address(uint160(prevOwnershipPacked)) != from) revert TransferFromIncorrectOwner() */\n    tag_127:\n        /* \"ERC721A.sol\":20206:20233  uint256 approvedAddressSlot */\n      0x00\n        /* \"ERC721A.sol\":20235:20258  address approvedAddress */\n      dup1\n        /* \"ERC721A.sol\":20262:20297  _getApprovedSlotAndAddress(tokenId) */\n      tag_128\n        /* \"ERC721A.sol\":20289:20296  tokenId */\n      dup5\n        /* \"ERC721A.sol\":20262:20288  _getApprovedSlotAndAddress */\n      tag_129\n        /* \"ERC721A.sol\":20262:20297  _getApprovedSlotAndAddress(tokenId) */\n      jump\t// in\n    tag_128:\n        /* \"ERC721A.sol\":20205:20297  (uint256 approvedAddressSlot, address approvedAddress) = _getApprovedSlotAndAddress(tokenId) */\n      swap2\n      pop\n      swap2\n      pop\n        /* \"ERC721A.sol\":20394:20462  _isSenderApprovedOrOwner(approvedAddress, from, _msgSenderERC721A()) */\n      tag_130\n        /* \"ERC721A.sol\":20419:20434  approvedAddress */\n      dup2\n        /* \"ERC721A.sol\":20436:20440  from */\n      dup8\n        /* \"ERC721A.sol\":20442:20461  _msgSenderERC721A() */\n      tag_131\n        /* \"ERC721A.sol\":20442:20459  _msgSenderERC721A */\n      tag_116\n        /* \"ERC721A.sol\":20442:20461  _msgSenderERC721A() */\n      jump\t// in\n    tag_131:\n        /* \"ERC721A.sol\":20394:20418  _isSenderApprovedOrOwner */\n      tag_132\n        /* \"ERC721A.sol\":20394:20462  _isSenderApprovedOrOwner(approvedAddress, from, _msgSenderERC721A()) */\n      jump\t// in\n    tag_130:\n        /* \"ERC721A.sol\":20389:20568  if (!_isSenderApprovedOrOwner(approvedAddress, from, _msgSenderERC721A()))... */\n      tag_133\n      jumpi\n        /* \"ERC721A.sol\":20481:20524  isApprovedForAll(from, _msgSenderERC721A()) */\n      tag_134\n        /* \"ERC721A.sol\":20498:20502  from */\n      dup7\n        /* \"ERC721A.sol\":20504:20523  _msgSenderERC721A() */\n      tag_135\n        /* \"ERC721A.sol\":20504:20521  _msgSenderERC721A */\n      tag_116\n        /* \"ERC721A.sol\":20504:20523  _msgSenderERC721A() */\n      jump\t// in\n    tag_135:\n        /* \"ERC721A.sol\":20481:20497  isApprovedForAll */\n      tag_97\n        /* \"ERC721A.sol\":20481:20524  isApprovedForAll(from, _msgSenderERC721A()) */\n      jump\t// in\n    tag_134:\n        /* \"ERC721A.sol\":20476:20568  if (!isApprovedForAll(from, _msgSenderERC721A())) revert TransferCallerNotOwnerNorApproved() */\n      tag_136\n      jumpi\n        /* \"ERC721A.sol\":20533:20568  TransferCallerNotOwnerNorApproved() */\n      mload(0x40)\n      0x59c896be00000000000000000000000000000000000000000000000000000000\n      dup2\n      mstore\n      0x04\n      add\n      mload(0x40)\n      dup1\n      swap2\n      sub\n      swap1\n      revert\n        /* \"ERC721A.sol\":20476:20568  if (!isApprovedForAll(from, _msgSenderERC721A())) revert TransferCallerNotOwnerNorApproved() */\n    tag_136:\n        /* \"ERC721A.sol\":20389:20568  if (!_isSenderApprovedOrOwner(approvedAddress, from, _msgSenderERC721A()))... */\n    tag_133:\n        /* \"ERC721A.sol\":20597:20598  0 */\n      0x00\n        /* \"ERC721A.sol\":20583:20599  to == address(0) */\n      0xffffffffffffffffffffffffffffffffffffffff\n      and\n        /* \"ERC721A.sol\":20583:20585  to */\n      dup6\n        /* \"ERC721A.sol\":20583:20599  to == address(0) */\n      0xffffffffffffffffffffffffffffffffffffffff\n      and\n      eq\n        /* \"ERC721A.sol\":20579:20631  if (to == address(0)) revert TransferToZeroAddress() */\n      iszero\n      tag_137\n      jumpi\n        /* \"ERC721A.sol\":20608:20631  TransferToZeroAddress() */\n      mload(0x40)\n      0xea553b3400000000000000000000000000000000000000000000000000000000\n      dup2\n      mstore\n      0x04\n      add\n      mload(0x40)\n      dup1\n      swap2\n      sub\n      swap1\n      revert\n        /* \"ERC721A.sol\":20579:20631  if (to == address(0)) revert TransferToZeroAddress() */\n    tag_137:\n        /* \"ERC721A.sol\":20642:20685  _beforeTokenTransfers(from, to, tokenId, 1) */\n      tag_138\n        /* \"ERC721A.sol\":20664:20668  from */\n      dup7\n        /* \"ERC721A.sol\":20670:20672  to */\n      dup7\n        /* \"ERC721A.sol\":20674:20681  tokenId */\n      dup7\n        /* \"ERC721A.sol\":20683:20684  1 */\n      0x01\n        /* \"ERC721A.sol\":20642:20663  _beforeTokenTransfers */\n      tag_139\n        /* \"ERC721A.sol\":20642:20685  _beforeTokenTransfers(from, to, tokenId, 1) */\n      jump\t// in\n    tag_138:\n        /* \"ERC721A.sol\":20774:20789  approvedAddress */\n      dup1\n        /* \"ERC721A.sol\":20771:20928  if approvedAddress {... */\n      iszero\n      tag_140\n      jumpi\n        /* \"ERC721A.sol\":20912:20913  0 */\n      0x00\n        /* \"ERC721A.sol\":20891:20910  approvedAddressSlot */\n      dup3\n        /* \"ERC721A.sol\":20884:20914  sstore(approvedAddressSlot, 0) */\n      sstore\n        /* \"ERC721A.sol\":20771:20928  if approvedAddress {... */\n    tag_140:\n        /* \"ERC721A.sol\":21300:21318  _packedAddressData */\n      0x05\n        /* \"ERC721A.sol\":21300:21324  _packedAddressData[from] */\n      0x00\n        /* \"ERC721A.sol\":21319:21323  from */\n      dup8\n        /* \"ERC721A.sol\":21300:21324  _packedAddressData[from] */\n      0xffffffffffffffffffffffffffffffffffffffff\n      and\n      0xffffffffffffffffffffffffffffffffffffffff\n      and\n      dup2\n      mstore\n      0x20\n      add\n      swap1\n      dup2\n      mstore\n      0x20\n      add\n      0x00\n      keccak256\n      0x00\n        /* \"ERC721A.sol\":21298:21324  --_packedAddressData[from] */\n      dup2\n      sload\n      0x01\n      swap1\n      sub\n      swap2\n      swap1\n      pop\n      dup2\n      swap1\n      sstore\n      pop\n        /* \"ERC721A.sol\":21368:21386  _packedAddressData */\n      0x05\n        /* \"ERC721A.sol\":21368:21390  _packedAddressData[to] */\n      0x00\n        /* \"ERC721A.sol\":21387:21389  to */\n      dup7\n        /* \"ERC721A.sol\":21368:21390  _packedAddressData[to] */\n      0xffffffffffffffffffffffffffffffffffffffff\n      and\n      0xffffffffffffffffffffffffffffffffffffffff\n      and\n      dup2\n      mstore\n      0x20\n      add\n      swap1\n      dup2\n      mstore\n      0x20\n      add\n      0x00\n      keccak256\n      0x00\n        /* \"ERC721A.sol\":21366:21390  ++_packedAddressData[to] */\n      dup2\n      sload\n      0x01\n      add\n      swap2\n      swap1\n      pop\n      dup2\n      swap1\n      sstore\n      pop\n        /* \"ERC721A.sol\":21683:21826  _packOwnershipData(... */\n      tag_141\n        /* \"ERC721A.sol\":21719:21721  to */\n      dup6\n        /* \"ERC721A.sol\":21767:21812  _nextExtraData(from, to, prevOwnershipPacked) */\n      tag_142\n        /* \"ERC721A.sol\":21782:21786  from */\n      dup9\n        /* \"ERC721A.sol\":21788:21790  to */\n      dup9\n        /* \"ERC721A.sol\":21792:21811  prevOwnershipPacked */\n      dup8\n        /* \"ERC721A.sol\":21767:21781  _nextExtraData */\n      tag_143\n        /* \"ERC721A.sol\":21767:21812  _nextExtraData(from, to, prevOwnershipPacked) */\n      jump\t// in\n    tag_142:\n        /* \"ERC721A.sol\":2392:2400  1 << 225 */\n      0x0200000000000000000000000000000000000000000000000000000000\n        /* \"ERC721A.sol\":21739:21812  _BITMASK_NEXT_INITIALIZED | _nextExtraData(from, to, prevOwnershipPacked) */\n      or\n        /* \"ERC721A.sol\":21683:21701  _packOwnershipData */\n      tag_144\n        /* \"ERC721A.sol\":21683:21826  _packOwnershipData(... */\n      jump\t// in\n    tag_141:\n        /* \"ERC721A.sol\":21654:21671  _packedOwnerships */\n      0x04\n        /* \"ERC721A.sol\":21654:21680  _packedOwnerships[tokenId] */\n      0x00\n        /* \"ERC721A.sol\":21672:21679  tokenId */\n      dup7\n        /* \"ERC721A.sol\":21654:21680  _packedOwnerships[tokenId] */\n      dup2\n      mstore\n      0x20\n      add\n      swap1\n      dup2\n      mstore\n      0x20\n      add\n      0x00\n      keccak256\n        /* \"ERC721A.sol\":21654:21826  _packedOwnerships[tokenId] = _packOwnershipData(... */\n      dup2\n      swap1\n      sstore\n      pop\n        /* \"ERC721A.sol\":21994:21995  0 */\n      0x00\n        /* \"ERC721A.sol\":2392:2400  1 << 225 */\n      0x0200000000000000000000000000000000000000000000000000000000\n        /* \"ERC721A.sol\":21943:21962  prevOwnershipPacked */\n      dup5\n        /* \"ERC721A.sol\":21943:21990  prevOwnershipPacked & _BITMASK_NEXT_INITIALIZED */\n      and\n        /* \"ERC721A.sol\":21943:21995  prevOwnershipPacked & _BITMASK_NEXT_INITIALIZED == 0 */\n      eq\n        /* \"ERC721A.sol\":21939:22556  if (prevOwnershipPacked & _BITMASK_NEXT_INITIALIZED == 0) {... */\n      iszero\n      tag_145\n      jumpi\n        /* \"ERC721A.sol\":22015:22034  uint256 nextTokenId */\n      0x00\n        /* \"ERC721A.sol\":22047:22048  1 */\n      0x01\n        /* \"ERC721A.sol\":22037:22044  tokenId */\n      dup6\n        /* \"ERC721A.sol\":22037:22048  tokenId + 1 */\n      add\n        /* \"ERC721A.sol\":22015:22048  uint256 nextTokenId = tokenId + 1 */\n      swap1\n      pop\n        /* \"ERC721A.sol\":22202:22203  0 */\n      0x00\n        /* \"ERC721A.sol\":22168:22185  _packedOwnerships */\n      0x04\n        /* \"ERC721A.sol\":22168:22198  _packedOwnerships[nextTokenId] */\n      0x00\n        /* \"ERC721A.sol\":22186:22197  nextTokenId */\n      dup4\n        /* \"ERC721A.sol\":22168:22198  _packedOwnerships[nextTokenId] */\n      dup2\n      mstore\n      0x20\n      add\n      swap1\n      dup2\n      mstore\n      0x20\n      add\n      0x00\n      keccak256\n      sload\n        /* \"ERC721A.sol\":22168:22203  _packedOwnerships[nextTokenId] == 0 */\n      eq\n        /* \"ERC721A.sol\":22164:22542  if (_packedOwnerships[nextTokenId] == 0) {... */\n      iszero\n      tag_146\n      jumpi\n        /* \"ERC721A.sol\":22304:22317  _currentIndex */\n      sload(0x00)\n        /* \"ERC721A.sol\":22289:22300  nextTokenId */\n      dup2\n        /* \"ERC721A.sol\":22289:22317  nextTokenId != _currentIndex */\n      eq\n        /* \"ERC721A.sol\":22285:22524  if (nextTokenId != _currentIndex) {... */\n      tag_147\n      jumpi\n        /* \"ERC721A.sol\":22482:22501  prevOwnershipPacked */\n      dup4\n        /* \"ERC721A.sol\":22449:22466  _packedOwnerships */\n      0x04\n        /* \"ERC721A.sol\":22449:22479  _packedOwnerships[nextTokenId] */\n      0x00\n        /* \"ERC721A.sol\":22467:22478  nextTokenId */\n      dup4\n        /* \"ERC721A.sol\":22449:22479  _packedOwnerships[nextTokenId] */\n      dup2\n      mstore\n      0x20\n      add\n      swap1\n      dup2\n      mstore\n      0x20\n      add\n      0x00\n      keccak256\n        /* \"ERC721A.sol\":22449:22501  _packedOwnerships[nextTokenId] = prevOwnershipPacked */\n      dup2\n      swap1\n      sstore\n      pop\n        /* \"ERC721A.sol\":22285:22524  if (nextTokenId != _currentIndex) {... */\n    tag_147:\n        /* \"ERC721A.sol\":22164:22542  if (_packedOwnerships[nextTokenId] == 0) {... */\n    tag_146:\n        /* \"ERC721A.sol\":21997:22556  {... */\n      pop\n        /* \"ERC721A.sol\":21939:22556  if (prevOwnershipPacked & _BITMASK_NEXT_INITIALIZED == 0) {... */\n    tag_145:\n        /* \"ERC721A.sol\":22600:22607  tokenId */\n      dup4\n        /* \"ERC721A.sol\":22596:22598  to */\n      dup6\n        /* \"ERC721A.sol\":22581:22608  Transfer(from, to, tokenId) */\n      0xffffffffffffffffffffffffffffffffffffffff\n      and\n        /* \"ERC721A.sol\":22590:22594  from */\n      dup8\n        /* \"ERC721A.sol\":22581:22608  Transfer(from, to, tokenId) */\n      0xffffffffffffffffffffffffffffffffffffffff\n      and\n      0xddf252ad1be2c89b69c2b068fc378daa952ba7f163c4a11628f55a4df523b3ef\n      mload(0x40)\n      mload(0x40)\n      dup1\n      swap2\n      sub\n      swap1\n      log4\n        /* \"ERC721A.sol\":22618:22660  _afterTokenTransfers(from, to, tokenId, 1) */\n      tag_148\n        /* \"ERC721A.sol\":22639:22643  from */\n      dup7\n        /* \"ERC721A.sol\":22645:22647  to */\n      dup7\n        /* \"ERC721A.sol\":22649:22656  tokenId */\n      dup7\n        /* \"ERC721A.sol\":22658:22659  1 */\n      0x01\n        /* \"ERC721A.sol\":22618:22638  _afterTokenTransfers */\n      tag_149\n        /* \"ERC721A.sol\":22618:22660  _afterTokenTransfers(from, to, tokenId, 1) */\n      jump\t// in\n    tag_148:\n        /* \"ERC721A.sol\":20030:22667  {... */\n      pop\n      pop\n      pop\n        /* \"ERC721A.sol\":19903:22667  function transferFrom(... */\n      pop\n      pop\n      pop\n      jump\t// out\n        /* \"ERC721A.sol\":22758:22945  function safeTransferFrom(... */\n    tag_55:\n        /* \"ERC721A.sol\":22899:22938  safeTransferFrom(from, to, tokenId, '') */\n      tag_151\n        /* \"ERC721A.sol\":22916:22920  from */\n      dup4\n        /* \"ERC721A.sol\":22922:22924  to */\n      dup4\n        /* \"ERC721A.sol\":22926:22933  tokenId */\n      dup4\n        /* \"ERC721A.sol\":22899:22938  safeTransferFrom(from, to, tokenId, '') */\n      mload(0x40)\n      dup1\n      0x20\n      add\n      0x40\n      mstore\n      dup1\n      0x00\n      dup2\n      mstore\n      pop\n        /* \"ERC721A.sol\":22899:22915  safeTransferFrom */\n      tag_87\n        /* \"ERC721A.sol\":22899:22938  safeTransferFrom(from, to, tokenId, '') */\n      jump\t// in\n    tag_151:\n        /* \"ERC721A.sol\":22758:22945  function safeTransferFrom(... */\n      pop\n      pop\n      pop\n      jump\t// out\n        /* \"ERC721ABurnable.sol\":509:601  function burn(uint256 tokenId) public virtual override {... */\n    tag_59:\n        /* \"ERC721ABurnable.sol\":574:594  _burn(tokenId, true) */\n      tag_153\n        /* \"ERC721ABurnable.sol\":580:587  tokenId */\n      dup2\n        /* \"ERC721ABurnable.sol\":589:593  true */\n      0x01\n        /* \"ERC721ABurnable.sol\":574:579  _burn */\n      tag_154\n        /* \"ERC721ABurnable.sol\":574:594  _burn(tokenId, true) */\n      jump\t// in\n    tag_153:\n        /* \"ERC721ABurnable.sol\":509:601  function burn(uint256 tokenId) public virtual override {... */\n      pop\n      jump\t// out\n        /* \"ERC721A.sol\":11391:11541  function ownerOf(uint256 tokenId) public view virtual override returns (address) {... */\n    tag_63:\n        /* \"ERC721A.sol\":11463:11470  address */\n      0x00\n        /* \"ERC721A.sol\":11505:11532  _packedOwnershipOf(tokenId) */\n      tag_156\n        /* \"ERC721A.sol\":11524:11531  tokenId */\n      dup3\n        /* \"ERC721A.sol\":11505:11523  _packedOwnershipOf */\n      tag_126\n        /* \"ERC721A.sol\":11505:11532  _packedOwnershipOf(tokenId) */\n      jump\t// in\n    tag_156:\n        /* \"ERC721A.sol\":11482:11534  return address(uint160(_packedOwnershipOf(tokenId))) */\n      swap1\n      pop\n        /* \"ERC721A.sol\":11391:11541  function ownerOf(uint256 tokenId) public view virtual override returns (address) {... */\n      swap2\n      swap1\n      pop\n      jump\t// out\n        /* \"ERC721A.sol\":7045:7275  function balanceOf(address owner) public view virtual override returns (uint256) {... */\n    tag_69:\n        /* \"ERC721A.sol\":7117:7124  uint256 */\n      0x00\n        /* \"ERC721A.sol\":7157:7158  0 */\n      dup1\n        /* \"ERC721A.sol\":7140:7159  owner == address(0) */\n      0xffffffffffffffffffffffffffffffffffffffff\n      and\n        /* \"ERC721A.sol\":7140:7145  owner */\n      dup3\n        /* \"ERC721A.sol\":7140:7159  owner == address(0) */\n      0xffffffffffffffffffffffffffffffffffffffff\n      and\n      eq\n        /* \"ERC721A.sol\":7136:7196  if (owner == address(0)) revert BalanceQueryForZeroAddress() */\n      iszero\n      tag_158\n      jumpi\n        /* \"ERC721A.sol\":7168:7196  BalanceQueryForZeroAddress() */\n      mload(0x40)\n      0x8f4eb60400000000000000000000000000000000000000000000000000000000\n      dup2\n      mstore\n      0x04\n      add\n      mload(0x40)\n      dup1\n      swap2\n      sub\n      swap1\n      revert\n        /* \"ERC721A.sol\":7136:7196  if (owner == address(0)) revert BalanceQueryForZeroAddress() */\n    tag_158:\n        /* \"ERC721A.sol\":1360:1373  (1 << 64) - 1 */\n      0xffffffffffffffff\n        /* \"ERC721A.sol\":7213:7231  _packedAddressData */\n      0x05\n        /* \"ERC721A.sol\":7213:7238  _packedAddressData[owner] */\n      0x00\n        /* \"ERC721A.sol\":7232:7237  owner */\n      dup5\n        /* \"ERC721A.sol\":7213:7238  _packedAddressData[owner] */\n      0xffffffffffffffffffffffffffffffffffffffff\n      and\n      0xffffffffffffffffffffffffffffffffffffffff\n      and\n      dup2\n      mstore\n      0x20\n      add\n      swap1\n      dup2\n      mstore\n      0x20\n      add\n      0x00\n      keccak256\n      sload\n        /* \"ERC721A.sol\":7213:7268  _packedAddressData[owner] & _BITMASK_ADDRESS_DATA_ENTRY */\n      and\n        /* \"ERC721A.sol\":7206:7268  return _packedAddressData[owner] & _BITMASK_ADDRESS_DATA_ENTRY */\n      swap1\n      pop\n        /* \"ERC721A.sol\":7045:7275  function balanceOf(address owner) public view virtual override returns (uint256) {... */\n      swap2\n      swap1\n      pop\n      jump\t// out\n        /* \"ERC721A.sol\":10208:10310  function symbol() public view virtual override returns (string memory) {... */\n    tag_73:\n        /* \"ERC721A.sol\":10264:10277  string memory */\n      0x60\n        /* \"ERC721A.sol\":10296:10303  _symbol */\n      0x03\n        /* \"ERC721A.sol\":10289:10303  return _symbol */\n      dup1\n      sload\n      tag_160\n      swap1\n      tag_104\n      jump\t// in\n    tag_160:\n      dup1\n      0x1f\n      add\n      0x20\n      dup1\n      swap2\n      div\n      mul\n      0x20\n      add\n      mload(0x40)\n      swap1\n      dup2\n      add\n      0x40\n      mstore\n      dup1\n      swap3\n      swap2\n      swap1\n      dup2\n      dup2\n      mstore\n      0x20\n      add\n      dup3\n      dup1\n      sload\n      tag_161\n      swap1\n      tag_104\n      jump\t// in\n    tag_161:\n      dup1\n      iszero\n      tag_162\n      jumpi\n      dup1\n      0x1f\n      lt\n      tag_163\n      jumpi\n      0x0100\n      dup1\n      dup4\n      sload\n      div\n      mul\n      dup4\n      mstore\n      swap2\n      0x20\n      add\n      swap2\n      jump(tag_162)\n    tag_163:\n      dup3\n      add\n      swap2\n      swap1\n      0x00\n      mstore\n      keccak256(0x00, 0x20)\n      swap1\n    tag_164:\n      dup2\n      sload\n      dup2\n      mstore\n      swap1\n      0x01\n      add\n      swap1\n      0x20\n      add\n      dup1\n      dup4\n      gt\n      tag_164\n      jumpi\n      dup3\n      swap1\n      sub\n      0x1f\n      and\n      dup3\n      add\n      swap2\n    tag_162:\n      pop\n      pop\n      pop\n      pop\n      pop\n      swap1\n      pop\n        /* \"ERC721A.sol\":10208:10310  function symbol() public view virtual override returns (string memory) {... */\n      swap1\n      jump\t// out\n        /* \"BuildGuildSoulbound.sol\":288:383  function safeMint(address to, uint256 quantity) public {... */\n    tag_78:\n        /* \"BuildGuildSoulbound.sol\":353:376  _safeMint(to, quantity) */\n      tag_166\n        /* \"BuildGuildSoulbound.sol\":363:365  to */\n      dup3\n        /* \"BuildGuildSoulbound.sol\":367:375  quantity */\n      dup3\n        /* \"BuildGuildSoulbound.sol\":353:362  _safeMint */\n      tag_167\n        /* \"BuildGuildSoulbound.sol\":353:376  _safeMint(to, quantity) */\n      jump\t// in\n    tag_166:\n        /* \"BuildGuildSoulbound.sol\":288:383  function safeMint(address to, uint256 quantity) public {... */\n      pop\n      pop\n      jump\t// out\n        /* \"ERC721A.sol\":16901:17132  function setApprovalForAll(address operator, bool approved) public virtual override {... */\n    tag_83:\n        /* \"ERC721A.sol\":17047:17055  approved */\n      dup1\n        /* \"ERC721A.sol\":16995:17013  _operatorApprovals */\n      0x07\n        /* \"ERC721A.sol\":16995:17034  _operatorApprovals[_msgSenderERC721A()] */\n      0x00\n        /* \"ERC721A.sol\":17014:17033  _msgSenderERC721A() */\n      tag_169\n        /* \"ERC721A.sol\":17014:17031  _msgSenderERC721A */\n      tag_116\n        /* \"ERC721A.sol\":17014:17033  _msgSenderERC721A() */\n      jump\t// in\n    tag_169:\n        /* \"ERC721A.sol\":16995:17034  _operatorApprovals[_msgSenderERC721A()] */\n      0xffffffffffffffffffffffffffffffffffffffff\n      and\n      0xffffffffffffffffffffffffffffffffffffffff\n      and\n      dup2\n      mstore\n      0x20\n      add\n      swap1\n      dup2\n      mstore\n      0x20\n      add\n      0x00\n      keccak256\n        /* \"ERC721A.sol\":16995:17044  _operatorApprovals[_msgSenderERC721A()][operator] */\n      0x00\n        /* \"ERC721A.sol\":17035:17043  operator */\n      dup5\n        /* \"ERC721A.sol\":16995:17044  _operatorApprovals[_msgSenderERC721A()][operator] */\n      0xffffffffffffffffffffffffffffffffffffffff\n      and\n      0xffffffffffffffffffffffffffffffffffffffff\n      and\n      dup2\n      mstore\n      0x20\n      add\n      swap1\n      dup2\n      mstore\n      0x20\n      add\n      0x00\n      keccak256\n      0x00\n        /* \"ERC721A.sol\":16995:17055  _operatorApprovals[_msgSenderERC721A()][operator] = approved */\n      0x0100\n      exp\n      dup2\n      sload\n      dup2\n      0xff\n      mul\n      not\n      and\n      swap1\n      dup4\n      iszero\n      iszero\n      mul\n      or\n      swap1\n      sstore\n      pop\n        /* \"ERC721A.sol\":17106:17114  operator */\n      dup2\n        /* \"ERC721A.sol\":17070:17125  ApprovalForAll(_msgSenderERC721A(), operator, approved) */\n      0xffffffffffffffffffffffffffffffffffffffff\n      and\n        /* \"ERC721A.sol\":17085:17104  _msgSenderERC721A() */\n      tag_170\n        /* \"ERC721A.sol\":17085:17102  _msgSenderERC721A */\n      tag_116\n        /* \"ERC721A.sol\":17085:17104  _msgSenderERC721A() */\n      jump\t// in\n    tag_170:\n        /* \"ERC721A.sol\":17070:17125  ApprovalForAll(_msgSenderERC721A(), operator, approved) */\n      0xffffffffffffffffffffffffffffffffffffffff\n      and\n      0x17307eab39ab6107e8899845ad3d59bd9653f200f220920489ca2b5937696c31\n        /* \"ERC721A.sol\":17116:17124  approved */\n      dup4\n        /* \"ERC721A.sol\":17070:17125  ApprovalForAll(_msgSenderERC721A(), operator, approved) */\n      mload(0x40)\n      tag_171\n      swap2\n      swap1\n      tag_27\n      jump\t// in\n    tag_171:\n      mload(0x40)\n      dup1\n      swap2\n      sub\n      swap1\n      log3\n        /* \"ERC721A.sol\":16901:17132  function setApprovalForAll(address operator, bool approved) public virtual override {... */\n      pop\n      pop\n      jump\t// out\n        /* \"ERC721A.sol\":23526:23922  function safeTransferFrom(... */\n    tag_87:\n        /* \"ERC721A.sol\":23695:23726  transferFrom(from, to, tokenId) */\n      tag_173\n        /* \"ERC721A.sol\":23708:23712  from */\n      dup5\n        /* \"ERC721A.sol\":23714:23716  to */\n      dup5\n        /* \"ERC721A.sol\":23718:23725  tokenId */\n      dup5\n        /* \"ERC721A.sol\":23695:23707  transferFrom */\n      tag_52\n        /* \"ERC721A.sol\":23695:23726  transferFrom(from, to, tokenId) */\n      jump\t// in\n    tag_173:\n        /* \"ERC721A.sol\":23758:23759  0 */\n      0x00\n        /* \"ERC721A.sol\":23740:23742  to */\n      dup4\n        /* \"ERC721A.sol\":23740:23754  to.code.length */\n      0xffffffffffffffffffffffffffffffffffffffff\n      and\n      extcodesize\n        /* \"ERC721A.sol\":23740:23759  to.code.length != 0 */\n      eq\n        /* \"ERC721A.sol\":23736:23916  if (to.code.length != 0)... */\n      tag_174\n      jumpi\n        /* \"ERC721A.sol\":23778:23834  _checkContractOnERC721Received(from, to, tokenId, _data) */\n      tag_175\n        /* \"ERC721A.sol\":23809:23813  from */\n      dup5\n        /* \"ERC721A.sol\":23815:23817  to */\n      dup5\n        /* \"ERC721A.sol\":23819:23826  tokenId */\n      dup5\n        /* \"ERC721A.sol\":23828:23833  _data */\n      dup5\n        /* \"ERC721A.sol\":23778:23808  _checkContractOnERC721Received */\n      tag_176\n        /* \"ERC721A.sol\":23778:23834  _checkContractOnERC721Received(from, to, tokenId, _data) */\n      jump\t// in\n    tag_175:\n        /* \"ERC721A.sol\":23773:23916  if (!_checkContractOnERC721Received(from, to, tokenId, _data)) {... */\n      tag_177\n      jumpi\n        /* \"ERC721A.sol\":23861:23901  TransferToNonERC721ReceiverImplementer() */\n      mload(0x40)\n      0xd1a57ed600000000000000000000000000000000000000000000000000000000\n      dup2\n      mstore\n      0x04\n      add\n      mload(0x40)\n      dup1\n      swap2\n      sub\n      swap1\n      revert\n        /* \"ERC721A.sol\":23773:23916  if (!_checkContractOnERC721Received(from, to, tokenId, _data)) {... */\n    tag_177:\n        /* \"ERC721A.sol\":23736:23916  if (to.code.length != 0)... */\n    tag_174:\n        /* \"ERC721A.sol\":23526:23922  function safeTransferFrom(... */\n      pop\n      pop\n      pop\n      pop\n      jump\t// out\n        /* \"ERC721A.sol\":10411:10724  function tokenURI(uint256 tokenId) public view virtual override returns (string memory) {... */\n    tag_91:\n        /* \"ERC721A.sol\":10484:10497  string memory */\n      0x60\n        /* \"ERC721A.sol\":10514:10530  _exists(tokenId) */\n      tag_179\n        /* \"ERC721A.sol\":10522:10529  tokenId */\n      dup3\n        /* \"ERC721A.sol\":10514:10521  _exists */\n      tag_111\n        /* \"ERC721A.sol\":10514:10530  _exists(tokenId) */\n      jump\t// in\n    tag_179:\n        /* \"ERC721A.sol\":10509:10568  if (!_exists(tokenId)) revert URIQueryForNonexistentToken() */\n      tag_180\n      jumpi\n        /* \"ERC721A.sol\":10539:10568  URIQueryForNonexistentToken() */\n      mload(0x40)\n      0xa14c4b5000000000000000000000000000000000000000000000000000000000\n      dup2\n      mstore\n      0x04\n      add\n      mload(0x40)\n      dup1\n      swap2\n      sub\n      swap1\n      revert\n        /* \"ERC721A.sol\":10509:10568  if (!_exists(tokenId)) revert URIQueryForNonexistentToken() */\n    tag_180:\n        /* \"ERC721A.sol\":10579:10600  string memory baseURI */\n      0x00\n        /* \"ERC721A.sol\":10603:10613  _baseURI() */\n      tag_181\n        /* \"ERC721A.sol\":10603:10611  _baseURI */\n      tag_182\n        /* \"ERC721A.sol\":10603:10613  _baseURI() */\n      jump\t// in\n    tag_181:\n        /* \"ERC721A.sol\":10579:10613  string memory baseURI = _baseURI() */\n      swap1\n      pop\n        /* \"ERC721A.sol\":10655:10656  0 */\n      0x00\n        /* \"ERC721A.sol\":10636:10643  baseURI */\n      dup2\n        /* \"ERC721A.sol\":10630:10651  bytes(baseURI).length */\n      mload\n        /* \"ERC721A.sol\":10630:10656  bytes(baseURI).length != 0 */\n      eq\n      iszero\n        /* \"ERC721A.sol\":10630:10717  bytes(baseURI).length != 0 ? string(abi.encodePacked(baseURI, _toString(tokenId))) : '' */\n      tag_183\n      jumpi\n      mload(0x40)\n      dup1\n      0x20\n      add\n      0x40\n      mstore\n      dup1\n      0x00\n      dup2\n      mstore\n      pop\n      jump(tag_184)\n    tag_183:\n        /* \"ERC721A.sol\":10683:10690  baseURI */\n      dup1\n        /* \"ERC721A.sol\":10692:10710  _toString(tokenId) */\n      tag_185\n        /* \"ERC721A.sol\":10702:10709  tokenId */\n      dup5\n        /* \"ERC721A.sol\":10692:10701  _toString */\n      tag_186\n        /* \"ERC721A.sol\":10692:10710  _toString(tokenId) */\n      jump\t// in\n    tag_185:\n        /* \"ERC721A.sol\":10666:10711  abi.encodePacked(baseURI, _toString(tokenId)) */\n      add(0x20, mload(0x40))\n      tag_187\n      swap3\n      swap2\n      swap1\n      tag_188\n      jump\t// in\n    tag_187:\n      mload(0x40)\n      0x20\n      dup2\n      dup4\n      sub\n      sub\n      dup2\n      mstore\n      swap1\n      0x40\n      mstore\n        /* \"ERC721A.sol\":10630:10717  bytes(baseURI).length != 0 ? string(abi.encodePacked(baseURI, _toString(tokenId))) : '' */\n    tag_184:\n        /* \"ERC721A.sol\":10623:10717  return bytes(baseURI).length != 0 ? string(abi.encodePacked(baseURI, _toString(tokenId))) : '' */\n      swap2\n      pop\n      pop\n        /* \"ERC721A.sol\":10411:10724  function tokenURI(uint256 tokenId) public view virtual override returns (string memory) {... */\n      swap2\n      swap1\n      pop\n      jump\t// out\n        /* \"ERC721A.sol\":17282:17444  function isApprovedForAll(address owner, address operator) public view virtual override returns (bool) {... */\n    tag_97:\n        /* \"ERC721A.sol\":17379:17383  bool */\n      0x00\n        /* \"ERC721A.sol\":17402:17420  _operatorApprovals */\n      0x07\n        /* \"ERC721A.sol\":17402:17427  _operatorApprovals[owner] */\n      0x00\n        /* \"ERC721A.sol\":17421:17426  owner */\n      dup5\n        /* \"ERC721A.sol\":17402:17427  _operatorApprovals[owner] */\n      0xffffffffffffffffffffffffffffffffffffffff\n      and\n      0xffffffffffffffffffffffffffffffffffffffff\n      and\n      dup2\n      mstore\n      0x20\n      add\n      swap1\n      dup2\n      mstore\n      0x20\n      add\n      0x00\n      keccak256\n        /* \"ERC721A.sol\":17402:17437  _operatorApprovals[owner][operator] */\n      0x00\n        /* \"ERC721A.sol\":17428:17436  operator */\n      dup4\n        /* \"ERC721A.sol\":17402:17437  _operatorApprovals[owner][operator] */\n      0xffffffffffffffffffffffffffffffffffffffff\n      and\n      0xffffffffffffffffffffffffffffffffffffffff\n      and\n      dup2\n      mstore\n      0x20\n      add\n      swap1\n      dup2\n      mstore\n      0x20\n      add\n      0x00\n      keccak256\n      0x00\n      swap1\n      sload\n      swap1\n      0x0100\n      exp\n      swap1\n      div\n      0xff\n      and\n        /* \"ERC721A.sol\":17395:17437  return _operatorApprovals[owner][operator] */\n      swap1\n      pop\n        /* \"ERC721A.sol\":17282:17444  function isApprovedForAll(address owner, address operator) public view virtual override returns (bool) {... */\n      swap3\n      swap2\n      pop\n      pop\n      jump\t// out\n        /* \"ERC721A.sol\":17693:17970  function _exists(uint256 tokenId) internal view virtual returns (bool) {... */\n    tag_111:\n        /* \"ERC721A.sol\":17758:17762  bool */\n      0x00\n        /* \"ERC721A.sol\":17812:17819  tokenId */\n      dup2\n        /* \"ERC721A.sol\":17793:17808  _startTokenId() */\n      tag_191\n        /* \"ERC721A.sol\":17793:17806  _startTokenId */\n      tag_123\n        /* \"ERC721A.sol\":17793:17808  _startTokenId() */\n      jump\t// in\n    tag_191:\n        /* \"ERC721A.sol\":17793:17819  _startTokenId() <= tokenId */\n      gt\n      iszero\n        /* \"ERC721A.sol\":17793:17858  _startTokenId() <= tokenId &&... */\n      dup1\n      iszero\n      tag_192\n      jumpi\n      pop\n        /* \"ERC721A.sol\":17845:17858  _currentIndex */\n      sload(0x00)\n        /* \"ERC721A.sol\":17835:17842  tokenId */\n      dup3\n        /* \"ERC721A.sol\":17835:17858  tokenId < _currentIndex */\n      lt\n        /* \"ERC721A.sol\":17793:17858  _startTokenId() <= tokenId &&... */\n    tag_192:\n        /* \"ERC721A.sol\":17793:17944  _startTokenId() <= tokenId &&... */\n      dup1\n      iszero\n      tag_193\n      jumpi\n      pop\n        /* \"ERC721A.sol\":17943:17944  0 */\n      0x00\n        /* \"ERC721A.sol\":2118:2126  1 << 224 */\n      0x0100000000000000000000000000000000000000000000000000000000\n        /* \"ERC721A.sol\":17895:17912  _packedOwnerships */\n      0x04\n        /* \"ERC721A.sol\":17895:17921  _packedOwnerships[tokenId] */\n      0x00\n        /* \"ERC721A.sol\":17913:17920  tokenId */\n      dup6\n        /* \"ERC721A.sol\":17895:17921  _packedOwnerships[tokenId] */\n      dup2\n      mstore\n      0x20\n      add\n      swap1\n      dup2\n      mstore\n      0x20\n      add\n      0x00\n      keccak256\n      sload\n        /* \"ERC721A.sol\":17895:17939  _packedOwnerships[tokenId] & _BITMASK_BURNED */\n      and\n        /* \"ERC721A.sol\":17895:17944  _packedOwnerships[tokenId] & _BITMASK_BURNED == 0 */\n      eq\n        /* \"ERC721A.sol\":17793:17944  _startTokenId() <= tokenId &&... */\n    tag_193:\n        /* \"ERC721A.sol\":17774:17944  return... */\n      swap1\n      pop\n        /* \"ERC721A.sol\":17693:17970  function _exists(uint256 tokenId) internal view virtual returns (bool) {... */\n      swap2\n      swap1\n      pop\n      jump\t// out\n        /* \"ERC721A.sol\":39437:39540  function _msgSenderERC721A() internal view virtual returns (address) {... */\n    tag_116:\n        /* \"ERC721A.sol\":39497:39504  address */\n      0x00\n        /* \"ERC721A.sol\":39523:39533  msg.sender */\n      caller\n        /* \"ERC721A.sol\":39516:39533  return msg.sender */\n      swap1\n      pop\n        /* \"ERC721A.sol\":39437:39540  function _msgSenderERC721A() internal view virtual returns (address) {... */\n      swap1\n      jump\t// out\n        /* \"ERC721A.sol\":5426:5516  function _startTokenId() internal view virtual returns (uint256) {... */\n    tag_123:\n        /* \"ERC721A.sol\":5482:5489  uint256 */\n      0x00\n        /* \"ERC721A.sol\":5426:5516  function _startTokenId() internal view virtual returns (uint256) {... */\n      swap1\n      jump\t// out\n        /* \"ERC721A.sol\":12515:13764  function _packedOwnershipOf(uint256 tokenId) private view returns (uint256) {... */\n    tag_126:\n        /* \"ERC721A.sol\":12582:12589  uint256 */\n      0x00\n        /* \"ERC721A.sol\":12601:12613  uint256 curr */\n      dup1\n        /* \"ERC721A.sol\":12616:12623  tokenId */\n      dup3\n        /* \"ERC721A.sol\":12601:12623  uint256 curr = tokenId */\n      swap1\n      pop\n        /* \"ERC721A.sol\":12681:12685  curr */\n      dup1\n        /* \"ERC721A.sol\":12662:12677  _startTokenId() */\n      tag_197\n        /* \"ERC721A.sol\":12662:12675  _startTokenId */\n      tag_123\n        /* \"ERC721A.sol\":12662:12677  _startTokenId() */\n      jump\t// in\n    tag_197:\n        /* \"ERC721A.sol\":12662:12685  _startTokenId() <= curr */\n      gt\n        /* \"ERC721A.sol\":12658:13700  if (_startTokenId() <= curr)... */\n      tag_198\n      jumpi\n        /* \"ERC721A.sol\":12714:12727  _currentIndex */\n      sload(0x00)\n        /* \"ERC721A.sol\":12707:12711  curr */\n      dup2\n        /* \"ERC721A.sol\":12707:12727  curr < _currentIndex */\n      lt\n        /* \"ERC721A.sol\":12703:13700  if (curr < _currentIndex) {... */\n      iszero\n      tag_199\n      jumpi\n        /* \"ERC721A.sol\":12751:12765  uint256 packed */\n      0x00\n        /* \"ERC721A.sol\":12768:12785  _packedOwnerships */\n      0x04\n        /* \"ERC721A.sol\":12768:12791  _packedOwnerships[curr] */\n      0x00\n        /* \"ERC721A.sol\":12786:12790  curr */\n      dup4\n        /* \"ERC721A.sol\":12768:12791  _packedOwnerships[curr] */\n      dup2\n      mstore\n      0x20\n      add\n      swap1\n      dup2\n      mstore\n      0x20\n      add\n      0x00\n      keccak256\n      sload\n        /* \"ERC721A.sol\":12751:12791  uint256 packed = _packedOwnerships[curr] */\n      swap1\n      pop\n        /* \"ERC721A.sol\":12883:12884  0 */\n      0x00\n        /* \"ERC721A.sol\":2118:2126  1 << 224 */\n      0x0100000000000000000000000000000000000000000000000000000000\n        /* \"ERC721A.sol\":12855:12861  packed */\n      dup3\n        /* \"ERC721A.sol\":12855:12879  packed & _BITMASK_BURNED */\n      and\n        /* \"ERC721A.sol\":12855:12884  packed & _BITMASK_BURNED == 0 */\n      eq\n        /* \"ERC721A.sol\":12851:13682  if (packed & _BITMASK_BURNED == 0) {... */\n      iszero\n      tag_200\n      jumpi\n        /* \"ERC721A.sol\":13510:13621  while (packed == 0) {... */\n    tag_201:\n        /* \"ERC721A.sol\":13527:13528  0 */\n      0x00\n        /* \"ERC721A.sol\":13517:13523  packed */\n      dup2\n        /* \"ERC721A.sol\":13517:13528  packed == 0 */\n      eq\n        /* \"ERC721A.sol\":13510:13621  while (packed == 0) {... */\n      iszero\n      tag_202\n      jumpi\n        /* \"ERC721A.sol\":13569:13586  _packedOwnerships */\n      0x04\n        /* \"ERC721A.sol\":13569:13594  _packedOwnerships[--curr] */\n      0x00\n        /* \"ERC721A.sol\":13587:13593  --curr */\n      dup4\n      0x01\n      swap1\n      sub\n      swap4\n      pop\n      dup4\n        /* \"ERC721A.sol\":13569:13594  _packedOwnerships[--curr] */\n      dup2\n      mstore\n      0x20\n      add\n      swap1\n      dup2\n      mstore\n      0x20\n      add\n      0x00\n      keccak256\n      sload\n        /* \"ERC721A.sol\":13560:13594  packed = _packedOwnerships[--curr] */\n      swap1\n      pop\n        /* \"ERC721A.sol\":13510:13621  while (packed == 0) {... */\n      jump(tag_201)\n    tag_202:\n        /* \"ERC721A.sol\":13653:13659  packed */\n      dup1\n        /* \"ERC721A.sol\":13646:13659  return packed */\n      swap3\n      pop\n      pop\n      pop\n      jump(tag_196)\n        /* \"ERC721A.sol\":12851:13682  if (packed & _BITMASK_BURNED == 0) {... */\n    tag_200:\n        /* \"ERC721A.sol\":12729:13700  {... */\n      pop\n        /* \"ERC721A.sol\":12703:13700  if (curr < _currentIndex) {... */\n    tag_199:\n        /* \"ERC721A.sol\":12658:13700  if (_startTokenId() <= curr)... */\n    tag_198:\n        /* \"ERC721A.sol\":13726:13757  OwnerQueryForNonexistentToken() */\n      mload(0x40)\n      0xdf2d9b4200000000000000000000000000000000000000000000000000000000\n      dup2\n      mstore\n      0x04\n      add\n      mload(0x40)\n      dup1\n      swap2\n      sub\n      swap1\n      revert\n        /* \"ERC721A.sol\":12515:13764  function _packedOwnershipOf(uint256 tokenId) private view returns (uint256) {... */\n    tag_196:\n      swap2\n      swap1\n      pop\n      jump\t// out\n        /* \"ERC721A.sol\":18828:19302  function _getApprovedSlotAndAddress(uint256 tokenId)... */\n    tag_129:\n        /* \"ERC721A.sol\":18927:18954  uint256 approvedAddressSlot */\n      0x00\n        /* \"ERC721A.sol\":18956:18979  address approvedAddress */\n      dup1\n        /* \"ERC721A.sol\":18995:19033  TokenApprovalRef storage tokenApproval */\n      0x00\n        /* \"ERC721A.sol\":19036:19051  _tokenApprovals */\n      0x06\n        /* \"ERC721A.sol\":19036:19060  _tokenApprovals[tokenId] */\n      0x00\n        /* \"ERC721A.sol\":19052:19059  tokenId */\n      dup6\n        /* \"ERC721A.sol\":19036:19060  _tokenApprovals[tokenId] */\n      dup2\n      mstore\n      0x20\n      add\n      swap1\n      dup2\n      mstore\n      0x20\n      add\n      0x00\n      keccak256\n        /* \"ERC721A.sol\":18995:19060  TokenApprovalRef storage tokenApproval = _tokenApprovals[tokenId] */\n      swap1\n      pop\n        /* \"ERC721A.sol\":19210:19228  tokenApproval.slot */\n      dup1\n        /* \"ERC721A.sol\":19187:19228  approvedAddressSlot := tokenApproval.slot */\n      swap3\n      pop\n        /* \"ERC721A.sol\":19266:19285  approvedAddressSlot */\n      dup3\n        /* \"ERC721A.sol\":19260:19286  sload(approvedAddressSlot) */\n      sload\n        /* \"ERC721A.sol\":19241:19286  approvedAddress := sload(approvedAddressSlot) */\n      swap2\n      pop\n        /* \"ERC721A.sol\":19173:19296  {... */\n      pop\n        /* \"ERC721A.sol\":18828:19302  function _getApprovedSlotAndAddress(uint256 tokenId)... */\n      swap2\n      pop\n      swap2\n      jump\t// out\n        /* \"ERC721A.sol\":18074:18720  function _isSenderApprovedOrOwner(... */\n    tag_132:\n        /* \"ERC721A.sol\":18219:18230  bool result */\n      0x00\n        /* \"ERC721A.sol\":18381:18397  _BITMASK_ADDRESS */\n      0xffffffffffffffffffffffffffffffffffffffff\n        /* \"ERC721A.sol\":18374:18379  owner */\n      dup4\n        /* \"ERC721A.sol\":18370:18398  and(owner, _BITMASK_ADDRESS) */\n      and\n        /* \"ERC721A.sol\":18361:18398  owner := and(owner, _BITMASK_ADDRESS) */\n      swap3\n      pop\n        /* \"ERC721A.sol\":18539:18555  _BITMASK_ADDRESS */\n      0xffffffffffffffffffffffffffffffffffffffff\n        /* \"ERC721A.sol\":18528:18537  msgSender */\n      dup3\n        /* \"ERC721A.sol\":18524:18556  and(msgSender, _BITMASK_ADDRESS) */\n      and\n        /* \"ERC721A.sol\":18511:18556  msgSender := and(msgSender, _BITMASK_ADDRESS) */\n      swap2\n      pop\n        /* \"ERC721A.sol\":18687:18702  approvedAddress */\n      dup4\n        /* \"ERC721A.sol\":18676:18685  msgSender */\n      dup3\n        /* \"ERC721A.sol\":18673:18703  eq(msgSender, approvedAddress) */\n      eq\n        /* \"ERC721A.sol\":18665:18670  owner */\n      dup4\n        /* \"ERC721A.sol\":18654:18663  msgSender */\n      dup4\n        /* \"ERC721A.sol\":18651:18671  eq(msgSender, owner) */\n      eq\n        /* \"ERC721A.sol\":18648:18704  or(eq(msgSender, owner), eq(msgSender, approvedAddress)) */\n      or\n        /* \"ERC721A.sol\":18638:18704  result := or(eq(msgSender, owner), eq(msgSender, approvedAddress)) */\n      swap1\n      pop\n        /* \"ERC721A.sol\":18074:18720  function _isSenderApprovedOrOwner(... */\n      swap4\n      swap3\n      pop\n      pop\n      pop\n      jump\t// out\n        /* \"ERC721ASoulbound.sol\":578:870  function _beforeTokenTransfers(... */\n    tag_139:\n        /* \"ERC721ASoulbound.sol\":769:770  0 */\n      0x00\n        /* \"ERC721ASoulbound.sol\":753:771  from != address(0) */\n      0xffffffffffffffffffffffffffffffffffffffff\n      and\n        /* \"ERC721ASoulbound.sol\":753:757  from */\n      dup5\n        /* \"ERC721ASoulbound.sol\":753:771  from != address(0) */\n      0xffffffffffffffffffffffffffffffffffffffff\n      and\n      eq\n        /* \"ERC721ASoulbound.sol\":749:863  if (from != address(0)) ... */\n      tag_206\n      jumpi\n        /* \"ERC721ASoulbound.sol\":804:805  0 */\n      0x00\n        /* \"ERC721ASoulbound.sol\":790:806  to != address(0) */\n      0xffffffffffffffffffffffffffffffffffffffff\n      and\n        /* \"ERC721ASoulbound.sol\":790:792  to */\n      dup4\n        /* \"ERC721ASoulbound.sol\":790:806  to != address(0) */\n      0xffffffffffffffffffffffffffffffffffffffff\n      and\n      eq\n        /* \"ERC721ASoulbound.sol\":786:863  if (to != address(0)) ... */\n      tag_207\n      jumpi\n        /* \"ERC721ASoulbound.sol\":828:863  SoulboundTokenCannotBeTransferred() */\n      mload(0x40)\n      0x0701eeb900000000000000000000000000000000000000000000000000000000\n      dup2\n      mstore\n      0x04\n      add\n      mload(0x40)\n      dup1\n      swap2\n      sub\n      swap1\n      revert\n        /* \"ERC721ASoulbound.sol\":786:863  if (to != address(0)) ... */\n    tag_207:\n        /* \"ERC721ASoulbound.sol\":749:863  if (from != address(0)) ... */\n    tag_206:\n        /* \"ERC721ASoulbound.sol\":578:870  function _beforeTokenTransfers(... */\n      pop\n      pop\n      pop\n      pop\n      jump\t// out\n        /* \"ERC721A.sol\":38764:39068  function _nextExtraData(... */\n    tag_143:\n        /* \"ERC721A.sol\":38895:38902  uint256 */\n      0x00\n        /* \"ERC721A.sol\":38914:38930  uint24 extraData */\n      dup1\n        /* \"ERC721A.sol\":2513:2516  232 */\n      0xe8\n        /* \"ERC721A.sol\":38940:38959  prevOwnershipPacked */\n      dup4\n        /* \"ERC721A.sol\":38940:38981  prevOwnershipPacked >> _BITPOS_EXTRA_DATA */\n      swap1\n      shr\n        /* \"ERC721A.sol\":38914:38982  uint24 extraData = uint24(prevOwnershipPacked >> _BITPOS_EXTRA_DATA) */\n      swap1\n      pop\n        /* \"ERC721A.sol\":2513:2516  232 */\n      0xe8\n        /* \"ERC721A.sol\":39007:39038  _extraData(from, to, extraData) */\n      tag_209\n        /* \"ERC721A.sol\":39018:39022  from */\n      dup7\n        /* \"ERC721A.sol\":39024:39026  to */\n      dup7\n        /* \"ERC721A.sol\":39028:39037  extraData */\n      dup5\n        /* \"ERC721A.sol\":39007:39017  _extraData */\n      tag_210\n        /* \"ERC721A.sol\":39007:39038  _extraData(from, to, extraData) */\n      jump\t// in\n    tag_209:\n        /* \"ERC721A.sol\":38999:39039  uint256(_extraData(from, to, extraData)) */\n      0xffffff\n      and\n        /* \"ERC721A.sol\":38999:39061  uint256(_extraData(from, to, extraData)) << _BITPOS_EXTRA_DATA */\n      swap1\n      shl\n        /* \"ERC721A.sol\":38992:39061  return uint256(_extraData(from, to, extraData)) << _BITPOS_EXTRA_DATA */\n      swap2\n      pop\n      pop\n        /* \"ERC721A.sol\":38764:39068  function _nextExtraData(... */\n      swap4\n      swap3\n      pop\n      pop\n      pop\n      jump\t// out\n        /* \"ERC721A.sol\":14297:14740  function _packOwnershipData(address owner, uint256 flags) private view returns (uint256 result) {... */\n    tag_144:\n        /* \"ERC721A.sol\":14377:14391  uint256 result */\n      0x00\n        /* \"ERC721A.sol\":14542:14558  _BITMASK_ADDRESS */\n      0xffffffffffffffffffffffffffffffffffffffff\n        /* \"ERC721A.sol\":14535:14540  owner */\n      dup4\n        /* \"ERC721A.sol\":14531:14559  and(owner, _BITMASK_ADDRESS) */\n      and\n        /* \"ERC721A.sol\":14522:14559  owner := and(owner, _BITMASK_ADDRESS) */\n      swap3\n      pop\n        /* \"ERC721A.sol\":14717:14722  flags */\n      dup2\n        /* \"ERC721A.sol\":14703:14714  timestamp() */\n      timestamp\n        /* \"ERC721A.sol\":14678:14701  _BITPOS_START_TIMESTAMP */\n      0xa0\n        /* \"ERC721A.sol\":14674:14715  shl(_BITPOS_START_TIMESTAMP, timestamp()) */\n      shl\n        /* \"ERC721A.sol\":14671:14723  or(shl(_BITPOS_START_TIMESTAMP, timestamp()), flags) */\n      or\n        /* \"ERC721A.sol\":14664:14669  owner */\n      dup4\n        /* \"ERC721A.sol\":14661:14724  or(owner, or(shl(_BITPOS_START_TIMESTAMP, timestamp()), flags)) */\n      or\n        /* \"ERC721A.sol\":14651:14724  result := or(owner, or(shl(_BITPOS_START_TIMESTAMP, timestamp()), flags)) */\n      swap1\n      pop\n        /* \"ERC721A.sol\":14297:14740  function _packOwnershipData(address owner, uint256 flags) private view returns (uint256 result) {... */\n      swap3\n      swap2\n      pop\n      pop\n      jump\t// out\n        /* \"ERC721A.sol\":25367:25520  function _afterTokenTransfers(... */\n    tag_149:\n      pop\n      pop\n      pop\n      pop\n      jump\t// out\n        /* \"ERC721A.sol\":34095:37110  function _burn(uint256 tokenId, bool approvalCheck) internal virtual {... */\n    tag_154:\n        /* \"ERC721A.sol\":34174:34201  uint256 prevOwnershipPacked */\n      0x00\n        /* \"ERC721A.sol\":34204:34231  _packedOwnershipOf(tokenId) */\n      tag_214\n        /* \"ERC721A.sol\":34223:34230  tokenId */\n      dup4\n        /* \"ERC721A.sol\":34204:34222  _packedOwnershipOf */\n      tag_126\n        /* \"ERC721A.sol\":34204:34231  _packedOwnershipOf(tokenId) */\n      jump\t// in\n    tag_214:\n        /* \"ERC721A.sol\":34174:34231  uint256 prevOwnershipPacked = _packedOwnershipOf(tokenId) */\n      swap1\n      pop\n        /* \"ERC721A.sol\":34242:34254  address from */\n      0x00\n        /* \"ERC721A.sol\":34273:34292  prevOwnershipPacked */\n      dup2\n        /* \"ERC721A.sol\":34242:34294  address from = address(uint160(prevOwnershipPacked)) */\n      swap1\n      pop\n        /* \"ERC721A.sol\":34306:34333  uint256 approvedAddressSlot */\n      0x00\n        /* \"ERC721A.sol\":34335:34358  address approvedAddress */\n      dup1\n        /* \"ERC721A.sol\":34362:34397  _getApprovedSlotAndAddress(tokenId) */\n      tag_215\n        /* \"ERC721A.sol\":34389:34396  tokenId */\n      dup7\n        /* \"ERC721A.sol\":34362:34388  _getApprovedSlotAndAddress */\n      tag_129\n        /* \"ERC721A.sol\":34362:34397  _getApprovedSlotAndAddress(tokenId) */\n      jump\t// in\n    tag_215:\n        /* \"ERC721A.sol\":34305:34397  (uint256 approvedAddressSlot, address approvedAddress) = _getApprovedSlotAndAddress(tokenId) */\n      swap2\n      pop\n      swap2\n      pop\n        /* \"ERC721A.sol\":34412:34425  approvalCheck */\n      dup5\n        /* \"ERC721A.sol\":34408:34720  if (approvalCheck) {... */\n      iszero\n      tag_216\n      jumpi\n        /* \"ERC721A.sol\":34531:34599  _isSenderApprovedOrOwner(approvedAddress, from, _msgSenderERC721A()) */\n      tag_217\n        /* \"ERC721A.sol\":34556:34571  approvedAddress */\n      dup2\n        /* \"ERC721A.sol\":34573:34577  from */\n      dup5\n        /* \"ERC721A.sol\":34579:34598  _msgSenderERC721A() */\n      tag_218\n        /* \"ERC721A.sol\":34579:34596  _msgSenderERC721A */\n      tag_116\n        /* \"ERC721A.sol\":34579:34598  _msgSenderERC721A() */\n      jump\t// in\n    tag_218:\n        /* \"ERC721A.sol\":34531:34555  _isSenderApprovedOrOwner */\n      tag_132\n        /* \"ERC721A.sol\":34531:34599  _isSenderApprovedOrOwner(approvedAddress, from, _msgSenderERC721A()) */\n      jump\t// in\n    tag_217:\n        /* \"ERC721A.sol\":34526:34709  if (!_isSenderApprovedOrOwner(approvedAddress, from, _msgSenderERC721A()))... */\n      tag_219\n      jumpi\n        /* \"ERC721A.sol\":34622:34665  isApprovedForAll(from, _msgSenderERC721A()) */\n      tag_220\n        /* \"ERC721A.sol\":34639:34643  from */\n      dup4\n        /* \"ERC721A.sol\":34645:34664  _msgSenderERC721A() */\n      tag_221\n        /* \"ERC721A.sol\":34645:34662  _msgSenderERC721A */\n      tag_116\n        /* \"ERC721A.sol\":34645:34664  _msgSenderERC721A() */\n      jump\t// in\n    tag_221:\n        /* \"ERC721A.sol\":34622:34638  isApprovedForAll */\n      tag_97\n        /* \"ERC721A.sol\":34622:34665  isApprovedForAll(from, _msgSenderERC721A()) */\n      jump\t// in\n    tag_220:\n        /* \"ERC721A.sol\":34617:34709  if (!isApprovedForAll(from, _msgSenderERC721A())) revert TransferCallerNotOwnerNorApproved() */\n      tag_222\n      jumpi\n        /* \"ERC721A.sol\":34674:34709  TransferCallerNotOwnerNorApproved() */\n      mload(0x40)\n      0x59c896be00000000000000000000000000000000000000000000000000000000\n      dup2\n      mstore\n      0x04\n      add\n      mload(0x40)\n      dup1\n      swap2\n      sub\n      swap1\n      revert\n        /* \"ERC721A.sol\":34617:34709  if (!isApprovedForAll(from, _msgSenderERC721A())) revert TransferCallerNotOwnerNorApproved() */\n    tag_222:\n        /* \"ERC721A.sol\":34526:34709  if (!_isSenderApprovedOrOwner(approvedAddress, from, _msgSenderERC721A()))... */\n    tag_219:\n        /* \"ERC721A.sol\":34408:34720  if (approvalCheck) {... */\n    tag_216:\n        /* \"ERC721A.sol\":34730:34781  _beforeTokenTransfers(from, address(0), tokenId, 1) */\n      tag_223\n        /* \"ERC721A.sol\":34752:34756  from */\n      dup4\n        /* \"ERC721A.sol\":34766:34767  0 */\n      0x00\n        /* \"ERC721A.sol\":34770:34777  tokenId */\n      dup9\n        /* \"ERC721A.sol\":34779:34780  1 */\n      0x01\n        /* \"ERC721A.sol\":34730:34751  _beforeTokenTransfers */\n      tag_139\n        /* \"ERC721A.sol\":34730:34781  _beforeTokenTransfers(from, address(0), tokenId, 1) */\n      jump\t// in\n    tag_223:\n        /* \"ERC721A.sol\":34870:34885  approvedAddress */\n      dup1\n        /* \"ERC721A.sol\":34867:35024  if approvedAddress {... */\n      iszero\n      tag_224\n      jumpi\n        /* \"ERC721A.sol\":35008:35009  0 */\n      0x00\n        /* \"ERC721A.sol\":34987:35006  approvedAddressSlot */\n      dup3\n        /* \"ERC721A.sol\":34980:35010  sstore(approvedAddressSlot, 0) */\n      sstore\n        /* \"ERC721A.sol\":34867:35024  if approvedAddress {... */\n    tag_224:\n        /* \"ERC721A.sol\":35672:35673  1 */\n      0x01\n        /* \"ERC721A.sol\":1619:1622  128 */\n      0x80\n        /* \"ERC721A.sol\":35642:35643  1 */\n      0x01\n        /* \"ERC721A.sol\":35642:35668  1 << _BITPOS_NUMBER_BURNED */\n      swap1\n      shl\n        /* \"ERC721A.sol\":35641:35673  (1 << _BITPOS_NUMBER_BURNED) - 1 */\n      sub\n        /* \"ERC721A.sol\":35613:35631  _packedAddressData */\n      0x05\n        /* \"ERC721A.sol\":35613:35637  _packedAddressData[from] */\n      0x00\n        /* \"ERC721A.sol\":35632:35636  from */\n      dup6\n        /* \"ERC721A.sol\":35613:35637  _packedAddressData[from] */\n      0xffffffffffffffffffffffffffffffffffffffff\n      and\n      0xffffffffffffffffffffffffffffffffffffffff\n      and\n      dup2\n      mstore\n      0x20\n      add\n      swap1\n      dup2\n      mstore\n      0x20\n      add\n      0x00\n      keccak256\n      0x00\n        /* \"ERC721A.sol\":35613:35673  _packedAddressData[from] += (1 << _BITPOS_NUMBER_BURNED) - 1 */\n      dup3\n      dup3\n      sload\n      add\n      swap3\n      pop\n      pop\n      dup2\n      swap1\n      sstore\n      pop\n        /* \"ERC721A.sol\":35933:36106  _packOwnershipData(... */\n      tag_225\n        /* \"ERC721A.sol\":35969:35973  from */\n      dup4\n        /* \"ERC721A.sol\":36039:36092  _nextExtraData(from, address(0), prevOwnershipPacked) */\n      tag_226\n        /* \"ERC721A.sol\":36054:36058  from */\n      dup6\n        /* \"ERC721A.sol\":36068:36069  0 */\n      0x00\n        /* \"ERC721A.sol\":36072:36091  prevOwnershipPacked */\n      dup9\n        /* \"ERC721A.sol\":36039:36053  _nextExtraData */\n      tag_143\n        /* \"ERC721A.sol\":36039:36092  _nextExtraData(from, address(0), prevOwnershipPacked) */\n      jump\t// in\n    tag_226:\n        /* \"ERC721A.sol\":2392:2400  1 << 225 */\n      0x0200000000000000000000000000000000000000000000000000000000\n        /* \"ERC721A.sol\":2118:2126  1 << 224 */\n      0x0100000000000000000000000000000000000000000000000000000000\n        /* \"ERC721A.sol\":35992:36035  _BITMASK_BURNED | _BITMASK_NEXT_INITIALIZED */\n      or\n        /* \"ERC721A.sol\":35991:36092  (_BITMASK_BURNED | _BITMASK_NEXT_INITIALIZED) | _nextExtraData(from, address(0), prevOwnershipPacked) */\n      or\n        /* \"ERC721A.sol\":35933:35951  _packOwnershipData */\n      tag_144\n        /* \"ERC721A.sol\":35933:36106  _packOwnershipData(... */\n      jump\t// in\n    tag_225:\n        /* \"ERC721A.sol\":35904:35921  _packedOwnerships */\n      0x04\n        /* \"ERC721A.sol\":35904:35930  _packedOwnerships[tokenId] */\n      0x00\n        /* \"ERC721A.sol\":35922:35929  tokenId */\n      dup9\n        /* \"ERC721A.sol\":35904:35930  _packedOwnerships[tokenId] */\n      dup2\n      mstore\n      0x20\n      add\n      swap1\n      dup2\n      mstore\n      0x20\n      add\n      0x00\n      keccak256\n        /* \"ERC721A.sol\":35904:36106  _packedOwnerships[tokenId] = _packOwnershipData(... */\n      dup2\n      swap1\n      sstore\n      pop\n        /* \"ERC721A.sol\":36274:36275  0 */\n      0x00\n        /* \"ERC721A.sol\":2392:2400  1 << 225 */\n      0x0200000000000000000000000000000000000000000000000000000000\n        /* \"ERC721A.sol\":36223:36242  prevOwnershipPacked */\n      dup6\n        /* \"ERC721A.sol\":36223:36270  prevOwnershipPacked & _BITMASK_NEXT_INITIALIZED */\n      and\n        /* \"ERC721A.sol\":36223:36275  prevOwnershipPacked & _BITMASK_NEXT_INITIALIZED == 0 */\n      eq\n        /* \"ERC721A.sol\":36219:36836  if (prevOwnershipPacked & _BITMASK_NEXT_INITIALIZED == 0) {... */\n      iszero\n      tag_227\n      jumpi\n        /* \"ERC721A.sol\":36295:36314  uint256 nextTokenId */\n      0x00\n        /* \"ERC721A.sol\":36327:36328  1 */\n      0x01\n        /* \"ERC721A.sol\":36317:36324  tokenId */\n      dup8\n        /* \"ERC721A.sol\":36317:36328  tokenId + 1 */\n      add\n        /* \"ERC721A.sol\":36295:36328  uint256 nextTokenId = tokenId + 1 */\n      swap1\n      pop\n        /* \"ERC721A.sol\":36482:36483  0 */\n      0x00\n        /* \"ERC721A.sol\":36448:36465  _packedOwnerships */\n      0x04\n        /* \"ERC721A.sol\":36448:36478  _packedOwnerships[nextTokenId] */\n      0x00\n        /* \"ERC721A.sol\":36466:36477  nextTokenId */\n      dup4\n        /* \"ERC721A.sol\":36448:36478  _packedOwnerships[nextTokenId] */\n      dup2\n      mstore\n      0x20\n      add\n      swap1\n      dup2\n      mstore\n      0x20\n      add\n      0x00\n      keccak256\n      sload\n        /* \"ERC721A.sol\":36448:36483  _packedOwnerships[nextTokenId] == 0 */\n      eq\n        /* \"ERC721A.sol\":36444:36822  if (_packedOwnerships[nextTokenId] == 0) {... */\n      iszero\n      tag_228\n      jumpi\n        /* \"ERC721A.sol\":36584:36597  _currentIndex */\n      sload(0x00)\n        /* \"ERC721A.sol\":36569:36580  nextTokenId */\n      dup2\n        /* \"ERC721A.sol\":36569:36597  nextTokenId != _currentIndex */\n      eq\n        /* \"ERC721A.sol\":36565:36804  if (nextTokenId != _currentIndex) {... */\n      tag_229\n      jumpi\n        /* \"ERC721A.sol\":36762:36781  prevOwnershipPacked */\n      dup5\n        /* \"ERC721A.sol\":36729:36746  _packedOwnerships */\n      0x04\n        /* \"ERC721A.sol\":36729:36759  _packedOwnerships[nextTokenId] */\n      0x00\n        /* \"ERC721A.sol\":36747:36758  nextTokenId */\n      dup4\n        /* \"ERC721A.sol\":36729:36759  _packedOwnerships[nextTokenId] */\n      dup2\n      mstore\n      0x20\n      add\n      swap1\n      dup2\n      mstore\n      0x20\n      add\n      0x00\n      keccak256\n        /* \"ERC721A.sol\":36729:36781  _packedOwnerships[nextTokenId] = prevOwnershipPacked */\n      dup2\n      swap1\n      sstore\n      pop\n        /* \"ERC721A.sol\":36565:36804  if (nextTokenId != _currentIndex) {... */\n    tag_229:\n        /* \"ERC721A.sol\":36444:36822  if (_packedOwnerships[nextTokenId] == 0) {... */\n    tag_228:\n        /* \"ERC721A.sol\":36277:36836  {... */\n      pop\n        /* \"ERC721A.sol\":36219:36836  if (prevOwnershipPacked & _BITMASK_NEXT_INITIALIZED == 0) {... */\n    tag_227:\n        /* \"ERC721A.sol\":36888:36895  tokenId */\n      dup6\n        /* \"ERC721A.sol\":36884:36885  0 */\n      0x00\n        /* \"ERC721A.sol\":36861:36896  Transfer(from, address(0), tokenId) */\n      0xffffffffffffffffffffffffffffffffffffffff\n      and\n        /* \"ERC721A.sol\":36870:36874  from */\n      dup5\n        /* \"ERC721A.sol\":36861:36896  Transfer(from, address(0), tokenId) */\n      0xffffffffffffffffffffffffffffffffffffffff\n      and\n      0xddf252ad1be2c89b69c2b068fc378daa952ba7f163c4a11628f55a4df523b3ef\n      mload(0x40)\n      mload(0x40)\n      dup1\n      swap2\n      sub\n      swap1\n      log4\n        /* \"ERC721A.sol\":36906:36956  _afterTokenTransfers(from, address(0), tokenId, 1) */\n      tag_230\n        /* \"ERC721A.sol\":36927:36931  from */\n      dup4\n        /* \"ERC721A.sol\":36941:36942  0 */\n      0x00\n        /* \"ERC721A.sol\":36945:36952  tokenId */\n      dup9\n        /* \"ERC721A.sol\":36954:36955  1 */\n      0x01\n        /* \"ERC721A.sol\":36906:36926  _afterTokenTransfers */\n      tag_149\n        /* \"ERC721A.sol\":36906:36956  _afterTokenTransfers(from, address(0), tokenId, 1) */\n      jump\t// in\n    tag_230:\n        /* \"ERC721A.sol\":37079:37091  _burnCounter */\n      0x01\n      0x00\n        /* \"ERC721A.sol\":37079:37093  _burnCounter++ */\n      dup2\n      sload\n      dup1\n      swap3\n      swap2\n      swap1\n      0x01\n      add\n      swap2\n      swap1\n      pop\n      sstore\n      pop\n        /* \"ERC721A.sol\":34164:37110  {... */\n      pop\n      pop\n      pop\n      pop\n        /* \"ERC721A.sol\":34095:37110  function _burn(uint256 tokenId, bool approvalCheck) internal virtual {... */\n      pop\n      pop\n      jump\t// out\n        /* \"ERC721A.sol\":33423:33533  function _safeMint(address to, uint256 quantity) internal virtual {... */\n    tag_167:\n        /* \"ERC721A.sol\":33499:33526  _safeMint(to, quantity, '') */\n      tag_232\n        /* \"ERC721A.sol\":33509:33511  to */\n      dup3\n        /* \"ERC721A.sol\":33513:33521  quantity */\n      dup3\n        /* \"ERC721A.sol\":33499:33526  _safeMint(to, quantity, '') */\n      mload(0x40)\n      dup1\n      0x20\n      add\n      0x40\n      mstore\n      dup1\n      0x00\n      dup2\n      mstore\n      pop\n        /* \"ERC721A.sol\":33499:33508  _safeMint */\n      tag_233\n        /* \"ERC721A.sol\":33499:33526  _safeMint(to, quantity, '') */\n      jump\t// in\n    tag_232:\n        /* \"ERC721A.sol\":33423:33533  function _safeMint(address to, uint256 quantity) internal virtual {... */\n      pop\n      pop\n      jump\t// out\n        /* \"ERC721A.sol\":25948:26645  function _checkContractOnERC721Received(... */\n    tag_176:\n        /* \"ERC721A.sol\":26106:26110  bool */\n      0x00\n        /* \"ERC721A.sol\":26151:26153  to */\n      dup4\n        /* \"ERC721A.sol\":26126:26171  ERC721A__IERC721Receiver(to).onERC721Received */\n      0xffffffffffffffffffffffffffffffffffffffff\n      and\n      0x150b7a02\n        /* \"ERC721A.sol\":26172:26191  _msgSenderERC721A() */\n      tag_235\n        /* \"ERC721A.sol\":26172:26189  _msgSenderERC721A */\n      tag_116\n        /* \"ERC721A.sol\":26172:26191  _msgSenderERC721A() */\n      jump\t// in\n    tag_235:\n        /* \"ERC721A.sol\":26193:26197  from */\n      dup8\n        /* \"ERC721A.sol\":26199:26206  tokenId */\n      dup7\n        /* \"ERC721A.sol\":26208:26213  _data */\n      dup7\n        /* \"ERC721A.sol\":26126:26214  ERC721A__IERC721Receiver(to).onERC721Received(_msgSenderERC721A(), from, tokenId, _data) */\n      mload(0x40)\n      dup6\n      0xffffffff\n      and\n      0xe0\n      shl\n      dup2\n      mstore\n      0x04\n      add\n      tag_236\n      swap5\n      swap4\n      swap3\n      swap2\n      swap1\n      tag_237\n      jump\t// in\n    tag_236:\n      0x20\n      mload(0x40)\n      dup1\n      dup4\n      sub\n      dup2\n      0x00\n      dup8\n      dup1\n      extcodesize\n      iszero\n      dup1\n      iszero\n      tag_238\n      jumpi\n      0x00\n      dup1\n      revert\n    tag_238:\n      pop\n      gas\n      call\n      swap3\n      pop\n      pop\n      pop\n      dup1\n      iszero\n      tag_239\n      jumpi\n      pop\n      mload(0x40)\n      returndatasize\n      not(0x1f)\n      0x1f\n      dup3\n      add\n      and\n      dup3\n      add\n      dup1\n      0x40\n      mstore\n      pop\n      dup2\n      add\n      swap1\n      tag_240\n      swap2\n      swap1\n      tag_241\n      jump\t// in\n    tag_240:\n      0x01\n    tag_239:\n        /* \"ERC721A.sol\":26122:26639  try ERC721A__IERC721Receiver(to).onERC721Received(_msgSenderERC721A(), from, tokenId, _data) returns (... */\n      tag_242\n      jumpi\n      returndatasize\n      dup1\n      0x00\n      dup2\n      eq\n      tag_247\n      jumpi\n      mload(0x40)\n      swap2\n      pop\n      and(add(returndatasize, 0x3f), not(0x1f))\n      dup3\n      add\n      0x40\n      mstore\n      returndatasize\n      dup3\n      mstore\n      returndatasize\n      0x00\n      0x20\n      dup5\n      add\n      returndatacopy\n      jump(tag_246)\n    tag_247:\n      0x60\n      swap2\n      pop\n    tag_246:\n      pop\n        /* \"ERC721A.sol\":26421:26422  0 */\n      0x00\n        /* \"ERC721A.sol\":26404:26410  reason */\n      dup2\n        /* \"ERC721A.sol\":26404:26417  reason.length */\n      mload\n        /* \"ERC721A.sol\":26404:26422  reason.length == 0 */\n      eq\n        /* \"ERC721A.sol\":26400:26629  if (reason.length == 0) {... */\n      iszero\n      tag_248\n      jumpi\n        /* \"ERC721A.sol\":26449:26489  TransferToNonERC721ReceiverImplementer() */\n      mload(0x40)\n      0xd1a57ed600000000000000000000000000000000000000000000000000000000\n      dup2\n      mstore\n      0x04\n      add\n      mload(0x40)\n      dup1\n      swap2\n      sub\n      swap1\n      revert\n        /* \"ERC721A.sol\":26400:26629  if (reason.length == 0) {... */\n    tag_248:\n        /* \"ERC721A.sol\":26589:26595  reason */\n      dup1\n        /* \"ERC721A.sol\":26583:26596  mload(reason) */\n      mload\n        /* \"ERC721A.sol\":26574:26580  reason */\n      dup2\n        /* \"ERC721A.sol\":26570:26572  32 */\n      0x20\n        /* \"ERC721A.sol\":26566:26581  add(32, reason) */\n      add\n        /* \"ERC721A.sol\":26559:26597  revert(add(32, reason), mload(reason)) */\n      revert\n        /* \"ERC721A.sol\":26122:26639  try ERC721A__IERC721Receiver(to).onERC721Received(_msgSenderERC721A(), from, tokenId, _data) returns (... */\n    tag_242:\n        /* \"ERC721A.sol\":26292:26346  ERC721A__IERC721Receiver(to).onERC721Received.selector */\n      shl(0xe0, 0x150b7a02)\n        /* \"ERC721A.sol\":26282:26346  retval == ERC721A__IERC721Receiver(to).onERC721Received.selector */\n      not(0xffffffffffffffffffffffffffffffffffffffffffffffffffffffff)\n      and\n        /* \"ERC721A.sol\":26282:26288  retval */\n      dup2\n        /* \"ERC721A.sol\":26282:26346  retval == ERC721A__IERC721Receiver(to).onERC721Received.selector */\n      not(0xffffffffffffffffffffffffffffffffffffffffffffffffffffffff)\n      and\n      eq\n        /* \"ERC721A.sol\":26275:26346  return retval == ERC721A__IERC721Receiver(to).onERC721Received.selector */\n      swap2\n      pop\n      pop\n        /* \"ERC721A.sol\":25948:26645  function _checkContractOnERC721Received(... */\n      swap5\n      swap4\n      pop\n      pop\n      pop\n      pop\n      jump\t// out\n        /* \"ERC721A.sol\":10969:11061  function _baseURI() internal view virtual returns (string memory) {... */\n    tag_182:\n        /* \"ERC721A.sol\":11020:11033  string memory */\n      0x60\n        /* \"ERC721A.sol\":11045:11054  return '' */\n      mload(0x40)\n      dup1\n      0x20\n      add\n      0x40\n      mstore\n      dup1\n      0x00\n      dup2\n      mstore\n      pop\n      swap1\n      pop\n        /* \"ERC721A.sol\":10969:11061  function _baseURI() internal view virtual returns (string memory) {... */\n      swap1\n      jump\t// out\n        /* \"ERC721A.sol\":39637:41345  function _toString(uint256 value) internal pure virtual returns (string memory str) {... */\n    tag_186:\n        /* \"ERC721A.sol\":39702:39719  string memory str */\n      0x60\n        /* \"ERC721A.sol\":40130:40134  0xa0 */\n      0xa0\n        /* \"ERC721A.sol\":40123:40127  0x40 */\n      0x40\n        /* \"ERC721A.sol\":40117:40128  mload(0x40) */\n      mload\n        /* \"ERC721A.sol\":40113:40135  add(mload(0x40), 0xa0) */\n      add\n        /* \"ERC721A.sol\":40220:40221  m */\n      dup1\n        /* \"ERC721A.sol\":40214:40218  0x40 */\n      0x40\n        /* \"ERC721A.sol\":40207:40222  mstore(0x40, m) */\n      mstore\n        /* \"ERC721A.sol\":40293:40297  0x20 */\n      0x20\n        /* \"ERC721A.sol\":40290:40291  m */\n      dup2\n        /* \"ERC721A.sol\":40286:40298  sub(m, 0x20) */\n      sub\n        /* \"ERC721A.sol\":40279:40298  str := sub(m, 0x20) */\n      swap2\n      pop\n        /* \"ERC721A.sol\":40373:40374  0 */\n      0x00\n        /* \"ERC721A.sol\":40368:40371  str */\n      dup3\n        /* \"ERC721A.sol\":40361:40375  mstore(str, 0) */\n      mstore\n        /* \"ERC721A.sol\":40474:40477  str */\n      dup2\n        /* \"ERC721A.sol\":40708:40713  value */\n      dup4\n        /* \"ERC721A.sol\":40690:41109  for { let temp := value } 1 {} {... */\n    tag_253:\n        /* \"ERC721A.sol\":40716:40717  1 */\n      0x01\n        /* \"ERC721A.sol\":40690:41109  for { let temp := value } 1 {} {... */\n      iszero\n      tag_255\n      jumpi\n        /* \"ERC721A.sol\":40755:40756  1 */\n      0x01\n        /* \"ERC721A.sol\":40750:40753  str */\n      dup5\n        /* \"ERC721A.sol\":40746:40757  sub(str, 1) */\n      sub\n        /* \"ERC721A.sol\":40739:40757  str := sub(str, 1) */\n      swap4\n      pop\n        /* \"ERC721A.sol\":40923:40925  10 */\n      0x0a\n        /* \"ERC721A.sol\":40917:40921  temp */\n      dup2\n        /* \"ERC721A.sol\":40913:40926  mod(temp, 10) */\n      mod\n        /* \"ERC721A.sol\":40909:40911  48 */\n      0x30\n        /* \"ERC721A.sol\":40905:40927  add(48, mod(temp, 10)) */\n      add\n        /* \"ERC721A.sol\":40900:40903  str */\n      dup5\n        /* \"ERC721A.sol\":40892:40928  mstore8(str, add(48, mod(temp, 10))) */\n      mstore8\n        /* \"ERC721A.sol\":41015:41017  10 */\n      0x0a\n        /* \"ERC721A.sol\":41009:41013  temp */\n      dup2\n        /* \"ERC721A.sol\":41005:41018  div(temp, 10) */\n      div\n        /* \"ERC721A.sol\":40997:41018  temp := div(temp, 10) */\n      swap1\n      pop\n        /* \"ERC721A.sol\":41080:41084  temp */\n      dup1\n        /* \"ERC721A.sol\":41070:41095  if iszero(temp) { break } */\n      tag_256\n      jumpi\n        /* \"ERC721A.sol\":41088:41093  break */\n      jump(tag_255)\n        /* \"ERC721A.sol\":41070:41095  if iszero(temp) { break } */\n    tag_256:\n        /* \"ERC721A.sol\":40690:41109  for { let temp := value } 1 {} {... */\n      jump(tag_253)\n    tag_255:\n        /* \"ERC721A.sol\":40694:40715  { let temp := value } */\n      pop\n        /* \"ERC721A.sol\":41146:41149  str */\n      dup3\n        /* \"ERC721A.sol\":41141:41144  end */\n      dup2\n        /* \"ERC721A.sol\":41137:41150  sub(end, str) */\n      sub\n        /* \"ERC721A.sol\":41259:41263  0x20 */\n      0x20\n        /* \"ERC721A.sol\":41254:41257  str */\n      dup5\n        /* \"ERC721A.sol\":41250:41264  sub(str, 0x20) */\n      sub\n        /* \"ERC721A.sol\":41243:41264  str := sub(str, 0x20) */\n      swap4\n      pop\n        /* \"ERC721A.sol\":41322:41328  length */\n      dup1\n        /* \"ERC721A.sol\":41317:41320  str */\n      dup5\n        /* \"ERC721A.sol\":41310:41329  mstore(str, length) */\n      mstore\n        /* \"ERC721A.sol\":39740:41339  {... */\n      pop\n      pop\n      pop\n        /* \"ERC721A.sol\":39637:41345  function _toString(uint256 value) internal pure virtual returns (string memory str) {... */\n      swap2\n      swap1\n      pop\n      jump\t// out\n        /* \"ERC721A.sol\":38475:38618  function _extraData(... */\n    tag_210:\n        /* \"ERC721A.sol\":38608:38614  uint24 */\n      0x00\n        /* \"ERC721A.sol\":38475:38618  function _extraData(... */\n      swap4\n      swap3\n      pop\n      pop\n      pop\n      jump\t// out\n        /* \"ERC721A.sol\":32675:33344  function _safeMint(... */\n    tag_233:\n        /* \"ERC721A.sol\":32801:32820  _mint(to, quantity) */\n      tag_259\n        /* \"ERC721A.sol\":32807:32809  to */\n      dup4\n        /* \"ERC721A.sol\":32811:32819  quantity */\n      dup4\n        /* \"ERC721A.sol\":32801:32806  _mint */\n      tag_260\n        /* \"ERC721A.sol\":32801:32820  _mint(to, quantity) */\n      jump\t// in\n    tag_259:\n        /* \"ERC721A.sol\":32877:32878  0 */\n      0x00\n        /* \"ERC721A.sol\":32859:32861  to */\n      dup4\n        /* \"ERC721A.sol\":32859:32873  to.code.length */\n      0xffffffffffffffffffffffffffffffffffffffff\n      and\n      extcodesize\n        /* \"ERC721A.sol\":32859:32878  to.code.length != 0 */\n      eq\n        /* \"ERC721A.sol\":32855:33328  if (to.code.length != 0) {... */\n      tag_261\n      jumpi\n        /* \"ERC721A.sol\":32898:32909  uint256 end */\n      0x00\n        /* \"ERC721A.sol\":32912:32925  _currentIndex */\n      dup1\n      sload\n        /* \"ERC721A.sol\":32898:32925  uint256 end = _currentIndex */\n      swap1\n      pop\n        /* \"ERC721A.sol\":32943:32956  uint256 index */\n      0x00\n        /* \"ERC721A.sol\":32965:32973  quantity */\n      dup4\n        /* \"ERC721A.sol\":32959:32962  end */\n      dup3\n        /* \"ERC721A.sol\":32959:32973  end - quantity */\n      sub\n        /* \"ERC721A.sol\":32943:32973  uint256 index = end - quantity */\n      swap1\n      pop\n        /* \"ERC721A.sol\":32991:33220  do {... */\n    tag_262:\n        /* \"ERC721A.sol\":33021:33083  _checkContractOnERC721Received(address(0), to, index++, _data) */\n      tag_265\n        /* \"ERC721A.sol\":33060:33061  0 */\n      0x00\n        /* \"ERC721A.sol\":33064:33066  to */\n      dup7\n        /* \"ERC721A.sol\":33068:33075  index++ */\n      dup4\n      dup1\n      0x01\n      add\n      swap5\n      pop\n        /* \"ERC721A.sol\":33077:33082  _data */\n      dup7\n        /* \"ERC721A.sol\":33021:33051  _checkContractOnERC721Received */\n      tag_176\n        /* \"ERC721A.sol\":33021:33083  _checkContractOnERC721Received(address(0), to, index++, _data) */\n      jump\t// in\n    tag_265:\n        /* \"ERC721A.sol\":33016:33181  if (!_checkContractOnERC721Received(address(0), to, index++, _data)) {... */\n      tag_266\n      jumpi\n        /* \"ERC721A.sol\":33118:33158  TransferToNonERC721ReceiverImplementer() */\n      mload(0x40)\n      0xd1a57ed600000000000000000000000000000000000000000000000000000000\n      dup2\n      mstore\n      0x04\n      add\n      mload(0x40)\n      dup1\n      swap2\n      sub\n      swap1\n      revert\n        /* \"ERC721A.sol\":33016:33181  if (!_checkContractOnERC721Received(address(0), to, index++, _data)) {... */\n    tag_266:\n        /* \"ERC721A.sol\":33215:33218  end */\n      dup2\n        /* \"ERC721A.sol\":33207:33212  index */\n      dup2\n        /* \"ERC721A.sol\":33207:33218  index < end */\n      lt\n        /* \"ERC721A.sol\":32991:33220  do {... */\n      tag_262\n      jumpi\n        /* \"ERC721A.sol\":33300:33303  end */\n      dup2\n        /* \"ERC721A.sol\":33283:33296  _currentIndex */\n      sload(0x00)\n        /* \"ERC721A.sol\":33283:33303  _currentIndex != end */\n      eq\n        /* \"ERC721A.sol\":33279:33313  if (_currentIndex != end) revert() */\n      tag_267\n      jumpi\n        /* \"ERC721A.sol\":33305:33313  revert() */\n      0x00\n      dup1\n      revert\n        /* \"ERC721A.sol\":33279:33313  if (_currentIndex != end) revert() */\n    tag_267:\n        /* \"ERC721A.sol\":32880:33328  {... */\n      pop\n      pop\n        /* \"ERC721A.sol\":32855:33328  if (to.code.length != 0) {... */\n    tag_261:\n        /* \"ERC721A.sol\":32675:33344  function _safeMint(... */\n      pop\n      pop\n      pop\n      jump\t// out\n        /* \"ERC721A.sol\":27091:29993  function _mint(address to, uint256 quantity) internal virtual {... */\n    tag_260:\n        /* \"ERC721A.sol\":27163:27183  uint256 startTokenId */\n      0x00\n        /* \"ERC721A.sol\":27186:27199  _currentIndex */\n      dup1\n      sload\n        /* \"ERC721A.sol\":27163:27199  uint256 startTokenId = _currentIndex */\n      swap1\n      pop\n        /* \"ERC721A.sol\":27225:27226  0 */\n      0x00\n        /* \"ERC721A.sol\":27213:27221  quantity */\n      dup3\n        /* \"ERC721A.sol\":27213:27226  quantity == 0 */\n      eq\n        /* \"ERC721A.sol\":27209:27253  if (quantity == 0) revert MintZeroQuantity() */\n      iszero\n      tag_269\n      jumpi\n        /* \"ERC721A.sol\":27235:27253  MintZeroQuantity() */\n      mload(0x40)\n      0xb562e8dd00000000000000000000000000000000000000000000000000000000\n      dup2\n      mstore\n      0x04\n      add\n      mload(0x40)\n      dup1\n      swap2\n      sub\n      swap1\n      revert\n        /* \"ERC721A.sol\":27209:27253  if (quantity == 0) revert MintZeroQuantity() */\n    tag_269:\n        /* \"ERC721A.sol\":27264:27325  _beforeTokenTransfers(address(0), to, startTokenId, quantity) */\n      tag_270\n        /* \"ERC721A.sol\":27294:27295  0 */\n      0x00\n        /* \"ERC721A.sol\":27298:27300  to */\n      dup5\n        /* \"ERC721A.sol\":27302:27314  startTokenId */\n      dup4\n        /* \"ERC721A.sol\":27316:27324  quantity */\n      dup6\n        /* \"ERC721A.sol\":27264:27285  _beforeTokenTransfers */\n      tag_139\n        /* \"ERC721A.sol\":27264:27325  _beforeTokenTransfers(address(0), to, startTokenId, quantity) */\n      jump\t// in\n    tag_270:\n        /* \"ERC721A.sol\":27797:27798  1 */\n      0x01\n        /* \"ERC721A.sol\":1495:1497  64 */\n      0x40\n        /* \"ERC721A.sol\":27767:27768  1 */\n      0x01\n        /* \"ERC721A.sol\":27767:27793  1 << _BITPOS_NUMBER_MINTED */\n      swap1\n      shl\n        /* \"ERC721A.sol\":27766:27798  (1 << _BITPOS_NUMBER_MINTED) | 1 */\n      or\n        /* \"ERC721A.sol\":27754:27762  quantity */\n      dup3\n        /* \"ERC721A.sol\":27754:27799  quantity * ((1 << _BITPOS_NUMBER_MINTED) | 1) */\n      mul\n        /* \"ERC721A.sol\":27728:27746  _packedAddressData */\n      0x05\n        /* \"ERC721A.sol\":27728:27750  _packedAddressData[to] */\n      0x00\n        /* \"ERC721A.sol\":27747:27749  to */\n      dup6\n        /* \"ERC721A.sol\":27728:27750  _packedAddressData[to] */\n      0xffffffffffffffffffffffffffffffffffffffff\n      and\n      0xffffffffffffffffffffffffffffffffffffffff\n      and\n      dup2\n      mstore\n      0x20\n      add\n      swap1\n      dup2\n      mstore\n      0x20\n      add\n      0x00\n      keccak256\n      0x00\n        /* \"ERC721A.sol\":27728:27799  _packedAddressData[to] += quantity * ((1 << _BITPOS_NUMBER_MINTED) | 1) */\n      dup3\n      dup3\n      sload\n      add\n      swap3\n      pop\n      pop\n      dup2\n      swap1\n      sstore\n      pop\n        /* \"ERC721A.sol\":28069:28205  _packOwnershipData(... */\n      tag_271\n        /* \"ERC721A.sol\":28105:28107  to */\n      dup4\n        /* \"ERC721A.sol\":28158:28191  _nextExtraData(address(0), to, 0) */\n      tag_272\n        /* \"ERC721A.sol\":28181:28182  0 */\n      0x00\n        /* \"ERC721A.sol\":28185:28187  to */\n      dup7\n        /* \"ERC721A.sol\":28189:28190  0 */\n      0x00\n        /* \"ERC721A.sol\":28158:28172  _nextExtraData */\n      tag_143\n        /* \"ERC721A.sol\":28158:28191  _nextExtraData(address(0), to, 0) */\n      jump\t// in\n    tag_272:\n        /* \"ERC721A.sol\":28125:28155  _nextInitializedFlag(quantity) */\n      tag_273\n        /* \"ERC721A.sol\":28146:28154  quantity */\n      dup6\n        /* \"ERC721A.sol\":28125:28145  _nextInitializedFlag */\n      tag_274\n        /* \"ERC721A.sol\":28125:28155  _nextInitializedFlag(quantity) */\n      jump\t// in\n    tag_273:\n        /* \"ERC721A.sol\":28125:28191  _nextInitializedFlag(quantity) | _nextExtraData(address(0), to, 0) */\n      or\n        /* \"ERC721A.sol\":28069:28087  _packOwnershipData */\n      tag_144\n        /* \"ERC721A.sol\":28069:28205  _packOwnershipData(... */\n      jump\t// in\n    tag_271:\n        /* \"ERC721A.sol\":28035:28052  _packedOwnerships */\n      0x04\n        /* \"ERC721A.sol\":28035:28066  _packedOwnerships[startTokenId] */\n      0x00\n        /* \"ERC721A.sol\":28053:28065  startTokenId */\n      dup4\n        /* \"ERC721A.sol\":28035:28066  _packedOwnerships[startTokenId] */\n      dup2\n      mstore\n      0x20\n      add\n      swap1\n      dup2\n      mstore\n      0x20\n      add\n      0x00\n      keccak256\n        /* \"ERC721A.sol\":28035:28205  _packedOwnerships[startTokenId] = _packOwnershipData(... */\n      dup2\n      swap1\n      sstore\n      pop\n        /* \"ERC721A.sol\":28220:28236  uint256 toMasked */\n      0x00\n        /* \"ERC721A.sol\":28250:28261  uint256 end */\n      dup1\n        /* \"ERC721A.sol\":28279:28287  quantity */\n      dup4\n        /* \"ERC721A.sol\":28264:28276  startTokenId */\n      dup4\n        /* \"ERC721A.sol\":28264:28287  startTokenId + quantity */\n      add\n        /* \"ERC721A.sol\":28250:28287  uint256 end = startTokenId + quantity */\n      swap1\n      pop\n        /* \"ERC721A.sol\":28792:28808  _BITMASK_ADDRESS */\n      0xffffffffffffffffffffffffffffffffffffffff\n        /* \"ERC721A.sol\":28788:28790  to */\n      dup6\n        /* \"ERC721A.sol\":28784:28809  and(to, _BITMASK_ADDRESS) */\n      and\n        /* \"ERC721A.sol\":28772:28809  toMasked := and(to, _BITMASK_ADDRESS) */\n      swap2\n      pop\n        /* \"ERC721A.sol\":29156:29168  startTokenId */\n      dup3\n        /* \"ERC721A.sol\":29117:29125  toMasked */\n      dup3\n        /* \"ERC721A.sol\":29077:29078  0 */\n      0x00\n        /* \"ERC721A.sol\":29016:29041  _TRANSFER_EVENT_SIGNATURE */\n      0xddf252ad1be2c89b69c2b068fc378daa952ba7f163c4a11628f55a4df523b3ef\n        /* \"ERC721A.sol\":28958:28959  0 */\n      0x00\n        /* \"ERC721A.sol\":28898:28899  0 */\n      dup1\n        /* \"ERC721A.sol\":28872:29200  log4(... */\n      log4\n        /* \"ERC721A.sol\":29520:29521  1 */\n      0x01\n        /* \"ERC721A.sol\":29506:29518  startTokenId */\n      dup4\n        /* \"ERC721A.sol\":29502:29522  add(startTokenId, 1) */\n      add\n        /* \"ERC721A.sol\":29461:29800  for {... */\n    tag_275:\n        /* \"ERC721A.sol\":29560:29563  end */\n      dup2\n        /* \"ERC721A.sol\":29551:29558  tokenId */\n      dup2\n        /* \"ERC721A.sol\":29548:29564  eq(tokenId, end) */\n      eq\n        /* \"ERC721A.sol\":29461:29800  for {... */\n      tag_277\n      jumpi\n        /* \"ERC721A.sol\":29774:29781  tokenId */\n      dup1\n        /* \"ERC721A.sol\":29764:29772  toMasked */\n      dup4\n        /* \"ERC721A.sol\":29761:29762  0 */\n      0x00\n        /* \"ERC721A.sol\":29734:29759  _TRANSFER_EVENT_SIGNATURE */\n      0xddf252ad1be2c89b69c2b068fc378daa952ba7f163c4a11628f55a4df523b3ef\n        /* \"ERC721A.sol\":29731:29732  0 */\n      0x00\n        /* \"ERC721A.sol\":29728:29729  0 */\n      dup1\n        /* \"ERC721A.sol\":29723:29782  log4(0, 0, _TRANSFER_EVENT_SIGNATURE, 0, toMasked, tokenId) */\n      log4\n        /* \"ERC721A.sol\":29612:29613  1 */\n      0x01\n        /* \"ERC721A.sol\":29603:29610  tokenId */\n      dup2\n        /* \"ERC721A.sol\":29599:29614  add(tokenId, 1) */\n      add\n        /* \"ERC721A.sol\":29588:29614  tokenId := add(tokenId, 1) */\n      swap1\n      pop\n        /* \"ERC721A.sol\":29461:29800  for {... */\n      jump(tag_275)\n    tag_277:\n        /* \"ERC721A.sol\":29465:29540  {... */\n      pop\n        /* \"ERC721A.sol\":29843:29844  0 */\n      0x00\n        /* \"ERC721A.sol\":29831:29839  toMasked */\n      dup3\n        /* \"ERC721A.sol\":29831:29844  toMasked == 0 */\n      eq\n        /* \"ERC721A.sol\":29827:29872  if (toMasked == 0) revert MintToZeroAddress() */\n      iszero\n      tag_278\n      jumpi\n        /* \"ERC721A.sol\":29853:29872  MintToZeroAddress() */\n      mload(0x40)\n      0x2e07630000000000000000000000000000000000000000000000000000000000\n      dup2\n      mstore\n      0x04\n      add\n      mload(0x40)\n      dup1\n      swap2\n      sub\n      swap1\n      revert\n        /* \"ERC721A.sol\":29827:29872  if (toMasked == 0) revert MintToZeroAddress() */\n    tag_278:\n        /* \"ERC721A.sol\":29903:29906  end */\n      dup1\n        /* \"ERC721A.sol\":29887:29900  _currentIndex */\n      0x00\n        /* \"ERC721A.sol\":29887:29906  _currentIndex = end */\n      dup2\n      swap1\n      sstore\n      pop\n        /* \"ERC721A.sol\":27508:29917  unchecked {... */\n      pop\n      pop\n        /* \"ERC721A.sol\":29926:29986  _afterTokenTransfers(address(0), to, startTokenId, quantity) */\n      tag_279\n        /* \"ERC721A.sol\":29955:29956  0 */\n      0x00\n        /* \"ERC721A.sol\":29959:29961  to */\n      dup5\n        /* \"ERC721A.sol\":29963:29975  startTokenId */\n      dup4\n        /* \"ERC721A.sol\":29977:29985  quantity */\n      dup6\n        /* \"ERC721A.sol\":29926:29946  _afterTokenTransfers */\n      tag_149\n        /* \"ERC721A.sol\":29926:29986  _afterTokenTransfers(address(0), to, startTokenId, quantity) */\n      jump\t// in\n    tag_279:\n        /* \"ERC721A.sol\":27153:29993  {... */\n      pop\n        /* \"ERC721A.sol\":27091:29993  function _mint(address to, uint256 quantity) internal virtual {... */\n      pop\n      pop\n      jump\t// out\n        /* \"ERC721A.sol\":14837:15155  function _nextInitializedFlag(uint256 quantity) private pure returns (uint256 result) {... */\n    tag_274:\n        /* \"ERC721A.sol\":14907:14921  uint256 result */\n      0x00\n        /* \"ERC721A.sol\":15136:15137  1 */\n      0x01\n        /* \"ERC721A.sol\":15126:15134  quantity */\n      dup3\n        /* \"ERC721A.sol\":15123:15138  eq(quantity, 1) */\n      eq\n        /* \"ERC721A.sol\":15097:15121  _BITPOS_NEXT_INITIALIZED */\n      0xe1\n        /* \"ERC721A.sol\":15093:15139  shl(_BITPOS_NEXT_INITIALIZED, eq(quantity, 1)) */\n      shl\n        /* \"ERC721A.sol\":15083:15139  result := shl(_BITPOS_NEXT_INITIALIZED, eq(quantity, 1)) */\n      swap1\n      pop\n        /* \"ERC721A.sol\":14837:15155  function _nextInitializedFlag(uint256 quantity) private pure returns (uint256 result) {... */\n      swap2\n      swap1\n      pop\n      jump\t// out\n        /* \"#utility.yul\":7:417   */\n    tag_282:\n        /* \"#utility.yul\":84:89   */\n      0x00\n        /* \"#utility.yul\":109:174   */\n      tag_284\n        /* \"#utility.yul\":125:173   */\n      tag_285\n        /* \"#utility.yul\":166:172   */\n      dup5\n        /* \"#utility.yul\":125:173   */\n      tag_286\n      jump\t// in\n    tag_285:\n        /* \"#utility.yul\":109:174   */\n      tag_287\n      jump\t// in\n    tag_284:\n        /* \"#utility.yul\":100:174   */\n      swap1\n      pop\n        /* \"#utility.yul\":197:203   */\n      dup3\n        /* \"#utility.yul\":190:195   */\n      dup2\n        /* \"#utility.yul\":183:204   */\n      mstore\n        /* \"#utility.yul\":235:239   */\n      0x20\n        /* \"#utility.yul\":228:233   */\n      dup2\n        /* \"#utility.yul\":224:240   */\n      add\n        /* \"#utility.yul\":273:276   */\n      dup5\n        /* \"#utility.yul\":264:270   */\n      dup5\n        /* \"#utility.yul\":259:262   */\n      dup5\n        /* \"#utility.yul\":255:271   */\n      add\n        /* \"#utility.yul\":252:277   */\n      gt\n        /* \"#utility.yul\":249:361   */\n      iszero\n      tag_288\n      jumpi\n        /* \"#utility.yul\":280:359   */\n      tag_289\n      tag_290\n      jump\t// in\n    tag_289:\n        /* \"#utility.yul\":249:361   */\n    tag_288:\n        /* \"#utility.yul\":370:411   */\n      tag_291\n        /* \"#utility.yul\":404:410   */\n      dup5\n        /* \"#utility.yul\":399:402   */\n      dup3\n        /* \"#utility.yul\":394:397   */\n      dup6\n        /* \"#utility.yul\":370:411   */\n      tag_292\n      jump\t// in\n    tag_291:\n        /* \"#utility.yul\":90:417   */\n      pop\n        /* \"#utility.yul\":7:417   */\n      swap4\n      swap3\n      pop\n      pop\n      pop\n      jump\t// out\n        /* \"#utility.yul\":423:562   */\n    tag_293:\n        /* \"#utility.yul\":469:474   */\n      0x00\n        /* \"#utility.yul\":507:513   */\n      dup2\n        /* \"#utility.yul\":494:514   */\n      calldataload\n        /* \"#utility.yul\":485:514   */\n      swap1\n      pop\n        /* \"#utility.yul\":523:556   */\n      tag_295\n        /* \"#utility.yul\":550:555   */\n      dup2\n        /* \"#utility.yul\":523:556   */\n      tag_296\n      jump\t// in\n    tag_295:\n        /* \"#utility.yul\":423:562   */\n      swap3\n      swap2\n      pop\n      pop\n      jump\t// out\n        /* \"#utility.yul\":568:701   */\n    tag_297:\n        /* \"#utility.yul\":611:616   */\n      0x00\n        /* \"#utility.yul\":649:655   */\n      dup2\n        /* \"#utility.yul\":636:656   */\n      calldataload\n        /* \"#utility.yul\":627:656   */\n      swap1\n      pop\n        /* \"#utility.yul\":665:695   */\n      tag_299\n        /* \"#utility.yul\":689:694   */\n      dup2\n        /* \"#utility.yul\":665:695   */\n      tag_300\n      jump\t// in\n    tag_299:\n        /* \"#utility.yul\":568:701   */\n      swap3\n      swap2\n      pop\n      pop\n      jump\t// out\n        /* \"#utility.yul\":707:844   */\n    tag_301:\n        /* \"#utility.yul\":752:757   */\n      0x00\n        /* \"#utility.yul\":790:796   */\n      dup2\n        /* \"#utility.yul\":777:797   */\n      calldataload\n        /* \"#utility.yul\":768:797   */\n      swap1\n      pop\n        /* \"#utility.yul\":806:838   */\n      tag_303\n        /* \"#utility.yul\":832:837   */\n      dup2\n        /* \"#utility.yul\":806:838   */\n      tag_304\n      jump\t// in\n    tag_303:\n        /* \"#utility.yul\":707:844   */\n      swap3\n      swap2\n      pop\n      pop\n      jump\t// out\n        /* \"#utility.yul\":850:991   */\n    tag_305:\n        /* \"#utility.yul\":906:911   */\n      0x00\n        /* \"#utility.yul\":937:943   */\n      dup2\n        /* \"#utility.yul\":931:944   */\n      mload\n        /* \"#utility.yul\":922:944   */\n      swap1\n      pop\n        /* \"#utility.yul\":953:985   */\n      tag_307\n        /* \"#utility.yul\":979:984   */\n      dup2\n        /* \"#utility.yul\":953:985   */\n      tag_304\n      jump\t// in\n    tag_307:\n        /* \"#utility.yul\":850:991   */\n      swap3\n      swap2\n      pop\n      pop\n      jump\t// out\n        /* \"#utility.yul\":1010:1348   */\n    tag_308:\n        /* \"#utility.yul\":1065:1070   */\n      0x00\n        /* \"#utility.yul\":1114:1117   */\n      dup3\n        /* \"#utility.yul\":1107:1111   */\n      0x1f\n        /* \"#utility.yul\":1099:1105   */\n      dup4\n        /* \"#utility.yul\":1095:1112   */\n      add\n        /* \"#utility.yul\":1091:1118   */\n      slt\n        /* \"#utility.yul\":1081:1203   */\n      tag_310\n      jumpi\n        /* \"#utility.yul\":1122:1201   */\n      tag_311\n      tag_312\n      jump\t// in\n    tag_311:\n        /* \"#utility.yul\":1081:1203   */\n    tag_310:\n        /* \"#utility.yul\":1239:1245   */\n      dup2\n        /* \"#utility.yul\":1226:1246   */\n      calldataload\n        /* \"#utility.yul\":1264:1342   */\n      tag_313\n        /* \"#utility.yul\":1338:1341   */\n      dup5\n        /* \"#utility.yul\":1330:1336   */\n      dup3\n        /* \"#utility.yul\":1323:1327   */\n      0x20\n        /* \"#utility.yul\":1315:1321   */\n      dup7\n        /* \"#utility.yul\":1311:1328   */\n      add\n        /* \"#utility.yul\":1264:1342   */\n      tag_282\n      jump\t// in\n    tag_313:\n        /* \"#utility.yul\":1255:1342   */\n      swap2\n      pop\n        /* \"#utility.yul\":1071:1348   */\n      pop\n        /* \"#utility.yul\":1010:1348   */\n      swap3\n      swap2\n      pop\n      pop\n      jump\t// out\n        /* \"#utility.yul\":1354:1493   */\n    tag_314:\n        /* \"#utility.yul\":1400:1405   */\n      0x00\n        /* \"#utility.yul\":1438:1444   */\n      dup2\n        /* \"#utility.yul\":1425:1445   */\n      calldataload\n        /* \"#utility.yul\":1416:1445   */\n      swap1\n      pop\n        /* \"#utility.yul\":1454:1487   */\n      tag_316\n        /* \"#utility.yul\":1481:1486   */\n      dup2\n        /* \"#utility.yul\":1454:1487   */\n      tag_317\n      jump\t// in\n    tag_316:\n        /* \"#utility.yul\":1354:1493   */\n      swap3\n      swap2\n      pop\n      pop\n      jump\t// out\n        /* \"#utility.yul\":1499:1828   */\n    tag_68:\n        /* \"#utility.yul\":1558:1564   */\n      0x00\n        /* \"#utility.yul\":1607:1609   */\n      0x20\n        /* \"#utility.yul\":1595:1604   */\n      dup3\n        /* \"#utility.yul\":1586:1593   */\n      dup5\n        /* \"#utility.yul\":1582:1605   */\n      sub\n        /* \"#utility.yul\":1578:1610   */\n      slt\n        /* \"#utility.yul\":1575:1694   */\n      iszero\n      tag_319\n      jumpi\n        /* \"#utility.yul\":1613:1692   */\n      tag_320\n      tag_321\n      jump\t// in\n    tag_320:\n        /* \"#utility.yul\":1575:1694   */\n    tag_319:\n        /* \"#utility.yul\":1733:1734   */\n      0x00\n        /* \"#utility.yul\":1758:1811   */\n      tag_322\n        /* \"#utility.yul\":1803:1810   */\n      dup5\n        /* \"#utility.yul\":1794:1800   */\n      dup3\n        /* \"#utility.yul\":1783:1792   */\n      dup6\n        /* \"#utility.yul\":1779:1801   */\n      add\n        /* \"#utility.yul\":1758:1811   */\n      tag_293\n      jump\t// in\n    tag_322:\n        /* \"#utility.yul\":1748:1811   */\n      swap2\n      pop\n        /* \"#utility.yul\":1704:1821   */\n      pop\n        /* \"#utility.yul\":1499:1828   */\n      swap3\n      swap2\n      pop\n      pop\n      jump\t// out\n        /* \"#utility.yul\":1834:2308   */\n    tag_96:\n        /* \"#utility.yul\":1902:1908   */\n      0x00\n        /* \"#utility.yul\":1910:1916   */\n      dup1\n        /* \"#utility.yul\":1959:1961   */\n      0x40\n        /* \"#utility.yul\":1947:1956   */\n      dup4\n        /* \"#utility.yul\":1938:1945   */\n      dup6\n        /* \"#utility.yul\":1934:1957   */\n      sub\n        /* \"#utility.yul\":1930:1962   */\n      slt\n        /* \"#utility.yul\":1927:2046   */\n      iszero\n      tag_324\n      jumpi\n        /* \"#utility.yul\":1965:2044   */\n      tag_325\n      tag_321\n      jump\t// in\n    tag_325:\n        /* \"#utility.yul\":1927:2046   */\n    tag_324:\n        /* \"#utility.yul\":2085:2086   */\n      0x00\n        /* \"#utility.yul\":2110:2163   */\n      tag_326\n        /* \"#utility.yul\":2155:2162   */\n      dup6\n        /* \"#utility.yul\":2146:2152   */\n      dup3\n        /* \"#utility.yul\":2135:2144   */\n      dup7\n        /* \"#utility.yul\":2131:2153   */\n      add\n        /* \"#utility.yul\":2110:2163   */\n      tag_293\n      jump\t// in\n    tag_326:\n        /* \"#utility.yul\":2100:2163   */\n      swap3\n      pop\n        /* \"#utility.yul\":2056:2173   */\n      pop\n        /* \"#utility.yul\":2212:2214   */\n      0x20\n        /* \"#utility.yul\":2238:2291   */\n      tag_327\n        /* \"#utility.yul\":2283:2290   */\n      dup6\n        /* \"#utility.yul\":2274:2280   */\n      dup3\n        /* \"#utility.yul\":2263:2272   */\n      dup7\n        /* \"#utility.yul\":2259:2281   */\n      add\n        /* \"#utility.yul\":2238:2291   */\n      tag_293\n      jump\t// in\n    tag_327:\n        /* \"#utility.yul\":2228:2291   */\n      swap2\n      pop\n        /* \"#utility.yul\":2183:2301   */\n      pop\n        /* \"#utility.yul\":1834:2308   */\n      swap3\n      pop\n      swap3\n      swap1\n      pop\n      jump\t// out\n        /* \"#utility.yul\":2314:2933   */\n    tag_51:\n        /* \"#utility.yul\":2391:2397   */\n      0x00\n        /* \"#utility.yul\":2399:2405   */\n      dup1\n        /* \"#utility.yul\":2407:2413   */\n      0x00\n        /* \"#utility.yul\":2456:2458   */\n      0x60\n        /* \"#utility.yul\":2444:2453   */\n      dup5\n        /* \"#utility.yul\":2435:2442   */\n      dup7\n        /* \"#utility.yul\":2431:2454   */\n      sub\n        /* \"#utility.yul\":2427:2459   */\n      slt\n        /* \"#utility.yul\":2424:2543   */\n      iszero\n      tag_329\n      jumpi\n        /* \"#utility.yul\":2462:2541   */\n      tag_330\n      tag_321\n      jump\t// in\n    tag_330:\n        /* \"#utility.yul\":2424:2543   */\n    tag_329:\n        /* \"#utility.yul\":2582:2583   */\n      0x00\n        /* \"#utility.yul\":2607:2660   */\n      tag_331\n        /* \"#utility.yul\":2652:2659   */\n      dup7\n        /* \"#utility.yul\":2643:2649   */\n      dup3\n        /* \"#utility.yul\":2632:2641   */\n      dup8\n        /* \"#utility.yul\":2628:2650   */\n      add\n        /* \"#utility.yul\":2607:2660   */\n      tag_293\n      jump\t// in\n    tag_331:\n        /* \"#utility.yul\":2597:2660   */\n      swap4\n      pop\n        /* \"#utility.yul\":2553:2670   */\n      pop\n        /* \"#utility.yul\":2709:2711   */\n      0x20\n        /* \"#utility.yul\":2735:2788   */\n      tag_332\n        /* \"#utility.yul\":2780:2787   */\n      dup7\n        /* \"#utility.yul\":2771:2777   */\n      dup3\n        /* \"#utility.yul\":2760:2769   */\n      dup8\n        /* \"#utility.yul\":2756:2778   */\n      add\n        /* \"#utility.yul\":2735:2788   */\n      tag_293\n      jump\t// in\n    tag_332:\n        /* \"#utility.yul\":2725:2788   */\n      swap3\n      pop\n        /* \"#utility.yul\":2680:2798   */\n      pop\n        /* \"#utility.yul\":2837:2839   */\n      0x40\n        /* \"#utility.yul\":2863:2916   */\n      tag_333\n        /* \"#utility.yul\":2908:2915   */\n      dup7\n        /* \"#utility.yul\":2899:2905   */\n      dup3\n        /* \"#utility.yul\":2888:2897   */\n      dup8\n        /* \"#utility.yul\":2884:2906   */\n      add\n        /* \"#utility.yul\":2863:2916   */\n      tag_314\n      jump\t// in\n    tag_333:\n        /* \"#utility.yul\":2853:2916   */\n      swap2\n      pop\n        /* \"#utility.yul\":2808:2926   */\n      pop\n        /* \"#utility.yul\":2314:2933   */\n      swap3\n      pop\n      swap3\n      pop\n      swap3\n      jump\t// out\n        /* \"#utility.yul\":2939:3882   */\n    tag_86:\n        /* \"#utility.yul\":3034:3040   */\n      0x00\n        /* \"#utility.yul\":3042:3048   */\n      dup1\n        /* \"#utility.yul\":3050:3056   */\n      0x00\n        /* \"#utility.yul\":3058:3064   */\n      dup1\n        /* \"#utility.yul\":3107:3110   */\n      0x80\n        /* \"#utility.yul\":3095:3104   */\n      dup6\n        /* \"#utility.yul\":3086:3093   */\n      dup8\n        /* \"#utility.yul\":3082:3105   */\n      sub\n        /* \"#utility.yul\":3078:3111   */\n      slt\n        /* \"#utility.yul\":3075:3195   */\n      iszero\n      tag_335\n      jumpi\n        /* \"#utility.yul\":3114:3193   */\n      tag_336\n      tag_321\n      jump\t// in\n    tag_336:\n        /* \"#utility.yul\":3075:3195   */\n    tag_335:\n        /* \"#utility.yul\":3234:3235   */\n      0x00\n        /* \"#utility.yul\":3259:3312   */\n      tag_337\n        /* \"#utility.yul\":3304:3311   */\n      dup8\n        /* \"#utility.yul\":3295:3301   */\n      dup3\n        /* \"#utility.yul\":3284:3293   */\n      dup9\n        /* \"#utility.yul\":3280:3302   */\n      add\n        /* \"#utility.yul\":3259:3312   */\n      tag_293\n      jump\t// in\n    tag_337:\n        /* \"#utility.yul\":3249:3312   */\n      swap5\n      pop\n        /* \"#utility.yul\":3205:3322   */\n      pop\n        /* \"#utility.yul\":3361:3363   */\n      0x20\n        /* \"#utility.yul\":3387:3440   */\n      tag_338\n        /* \"#utility.yul\":3432:3439   */\n      dup8\n        /* \"#utility.yul\":3423:3429   */\n      dup3\n        /* \"#utility.yul\":3412:3421   */\n      dup9\n        /* \"#utility.yul\":3408:3430   */\n      add\n        /* \"#utility.yul\":3387:3440   */\n      tag_293\n      jump\t// in\n    tag_338:\n        /* \"#utility.yul\":3377:3440   */\n      swap4\n      pop\n        /* \"#utility.yul\":3332:3450   */\n      pop\n        /* \"#utility.yul\":3489:3491   */\n      0x40\n        /* \"#utility.yul\":3515:3568   */\n      tag_339\n        /* \"#utility.yul\":3560:3567   */\n      dup8\n        /* \"#utility.yul\":3551:3557   */\n      dup3\n        /* \"#utility.yul\":3540:3549   */\n      dup9\n        /* \"#utility.yul\":3536:3558   */\n      add\n        /* \"#utility.yul\":3515:3568   */\n      tag_314\n      jump\t// in\n    tag_339:\n        /* \"#utility.yul\":3505:3568   */\n      swap3\n      pop\n        /* \"#utility.yul\":3460:3578   */\n      pop\n        /* \"#utility.yul\":3645:3647   */\n      0x60\n        /* \"#utility.yul\":3634:3643   */\n      dup6\n        /* \"#utility.yul\":3630:3648   */\n      add\n        /* \"#utility.yul\":3617:3649   */\n      calldataload\n        /* \"#utility.yul\":3676:3694   */\n      0xffffffffffffffff\n        /* \"#utility.yul\":3668:3674   */\n      dup2\n        /* \"#utility.yul\":3665:3695   */\n      gt\n        /* \"#utility.yul\":3662:3779   */\n      iszero\n      tag_340\n      jumpi\n        /* \"#utility.yul\":3698:3777   */\n      tag_341\n      tag_342\n      jump\t// in\n    tag_341:\n        /* \"#utility.yul\":3662:3779   */\n    tag_340:\n        /* \"#utility.yul\":3803:3865   */\n      tag_343\n        /* \"#utility.yul\":3857:3864   */\n      dup8\n        /* \"#utility.yul\":3848:3854   */\n      dup3\n        /* \"#utility.yul\":3837:3846   */\n      dup9\n        /* \"#utility.yul\":3833:3855   */\n      add\n        /* \"#utility.yul\":3803:3865   */\n      tag_308\n      jump\t// in\n    tag_343:\n        /* \"#utility.yul\":3793:3865   */\n      swap2\n      pop\n        /* \"#utility.yul\":3588:3875   */\n      pop\n        /* \"#utility.yul\":2939:3882   */\n      swap3\n      swap6\n      swap2\n      swap5\n      pop\n      swap3\n      pop\n      jump\t// out\n        /* \"#utility.yul\":3888:4356   */\n    tag_82:\n        /* \"#utility.yul\":3953:3959   */\n      0x00\n        /* \"#utility.yul\":3961:3967   */\n      dup1\n        /* \"#utility.yul\":4010:4012   */\n      0x40\n        /* \"#utility.yul\":3998:4007   */\n      dup4\n        /* \"#utility.yul\":3989:3996   */\n      dup6\n        /* \"#utility.yul\":3985:4008   */\n      sub\n        /* \"#utility.yul\":3981:4013   */\n      slt\n        /* \"#utility.yul\":3978:4097   */\n      iszero\n      tag_345\n      jumpi\n        /* \"#utility.yul\":4016:4095   */\n      tag_346\n      tag_321\n      jump\t// in\n    tag_346:\n        /* \"#utility.yul\":3978:4097   */\n    tag_345:\n        /* \"#utility.yul\":4136:4137   */\n      0x00\n        /* \"#utility.yul\":4161:4214   */\n      tag_347\n        /* \"#utility.yul\":4206:4213   */\n      dup6\n        /* \"#utility.yul\":4197:4203   */\n      dup3\n        /* \"#utility.yul\":4186:4195   */\n      dup7\n        /* \"#utility.yul\":4182:4204   */\n      add\n        /* \"#utility.yul\":4161:4214   */\n      tag_293\n      jump\t// in\n    tag_347:\n        /* \"#utility.yul\":4151:4214   */\n      swap3\n      pop\n        /* \"#utility.yul\":4107:4224   */\n      pop\n        /* \"#utility.yul\":4263:4265   */\n      0x20\n        /* \"#utility.yul\":4289:4339   */\n      tag_348\n        /* \"#utility.yul\":4331:4338   */\n      dup6\n        /* \"#utility.yul\":4322:4328   */\n      dup3\n        /* \"#utility.yul\":4311:4320   */\n      dup7\n        /* \"#utility.yul\":4307:4329   */\n      add\n        /* \"#utility.yul\":4289:4339   */\n      tag_297\n      jump\t// in\n    tag_348:\n        /* \"#utility.yul\":4279:4339   */\n      swap2\n      pop\n        /* \"#utility.yul\":4234:4349   */\n      pop\n        /* \"#utility.yul\":3888:4356   */\n      swap3\n      pop\n      swap3\n      swap1\n      pop\n      jump\t// out\n        /* \"#utility.yul\":4362:4836   */\n    tag_42:\n        /* \"#utility.yul\":4430:4436   */\n      0x00\n        /* \"#utility.yul\":4438:4444   */\n      dup1\n        /* \"#utility.yul\":4487:4489   */\n      0x40\n        /* \"#utility.yul\":4475:4484   */\n      dup4\n        /* \"#utility.yul\":4466:4473   */\n      dup6\n        /* \"#utility.yul\":4462:4485   */\n      sub\n        /* \"#utility.yul\":4458:4490   */\n      slt\n        /* \"#utility.yul\":4455:4574   */\n      iszero\n      tag_350\n      jumpi\n        /* \"#utility.yul\":4493:4572   */\n      tag_351\n      tag_321\n      jump\t// in\n    tag_351:\n        /* \"#utility.yul\":4455:4574   */\n    tag_350:\n        /* \"#utility.yul\":4613:4614   */\n      0x00\n        /* \"#utility.yul\":4638:4691   */\n      tag_352\n        /* \"#utility.yul\":4683:4690   */\n      dup6\n        /* \"#utility.yul\":4674:4680   */\n      dup3\n        /* \"#utility.yul\":4663:4672   */\n      dup7\n        /* \"#utility.yul\":4659:4681   */\n      add\n        /* \"#utility.yul\":4638:4691   */\n      tag_293\n      jump\t// in\n    tag_352:\n        /* \"#utility.yul\":4628:4691   */\n      swap3\n      pop\n        /* \"#utility.yul\":4584:4701   */\n      pop\n        /* \"#utility.yul\":4740:4742   */\n      0x20\n        /* \"#utility.yul\":4766:4819   */\n      tag_353\n        /* \"#utility.yul\":4811:4818   */\n      dup6\n        /* \"#utility.yul\":4802:4808   */\n      dup3\n        /* \"#utility.yul\":4791:4800   */\n      dup7\n        /* \"#utility.yul\":4787:4809   */\n      add\n        /* \"#utility.yul\":4766:4819   */\n      tag_314\n      jump\t// in\n    tag_353:\n        /* \"#utility.yul\":4756:4819   */\n      swap2\n      pop\n        /* \"#utility.yul\":4711:4829   */\n      pop\n        /* \"#utility.yul\":4362:4836   */\n      swap3\n      pop\n      swap3\n      swap1\n      pop\n      jump\t// out\n        /* \"#utility.yul\":4842:5169   */\n    tag_24:\n        /* \"#utility.yul\":4900:4906   */\n      0x00\n        /* \"#utility.yul\":4949:4951   */\n      0x20\n        /* \"#utility.yul\":4937:4946   */\n      dup3\n        /* \"#utility.yul\":4928:4935   */\n      dup5\n        /* \"#utility.yul\":4924:4947   */\n      sub\n        /* \"#utility.yul\":4920:4952   */\n      slt\n        /* \"#utility.yul\":4917:5036   */\n      iszero\n      tag_355\n      jumpi\n        /* \"#utility.yul\":4955:5034   */\n      tag_356\n      tag_321\n      jump\t// in\n    tag_356:\n        /* \"#utility.yul\":4917:5036   */\n    tag_355:\n        /* \"#utility.yul\":5075:5076   */\n      0x00\n        /* \"#utility.yul\":5100:5152   */\n      tag_357\n        /* \"#utility.yul\":5144:5151   */\n      dup5\n        /* \"#utility.yul\":5135:5141   */\n      dup3\n        /* \"#utility.yul\":5124:5133   */\n      dup6\n        /* \"#utility.yul\":5120:5142   */\n      add\n        /* \"#utility.yul\":5100:5152   */\n      tag_301\n      jump\t// in\n    tag_357:\n        /* \"#utility.yul\":5090:5152   */\n      swap2\n      pop\n        /* \"#utility.yul\":5046:5162   */\n      pop\n        /* \"#utility.yul\":4842:5169   */\n      swap3\n      swap2\n      pop\n      pop\n      jump\t// out\n        /* \"#utility.yul\":5175:5524   */\n    tag_241:\n        /* \"#utility.yul\":5244:5250   */\n      0x00\n        /* \"#utility.yul\":5293:5295   */\n      0x20\n        /* \"#utility.yul\":5281:5290   */\n      dup3\n        /* \"#utility.yul\":5272:5279   */\n      dup5\n        /* \"#utility.yul\":5268:5291   */\n      sub\n        /* \"#utility.yul\":5264:5296   */\n      slt\n        /* \"#utility.yul\":5261:5380   */\n      iszero\n      tag_359\n      jumpi\n        /* \"#utility.yul\":5299:5378   */\n      tag_360\n      tag_321\n      jump\t// in\n    tag_360:\n        /* \"#utility.yul\":5261:5380   */\n    tag_359:\n        /* \"#utility.yul\":5419:5420   */\n      0x00\n        /* \"#utility.yul\":5444:5507   */\n      tag_361\n        /* \"#utility.yul\":5499:5506   */\n      dup5\n        /* \"#utility.yul\":5490:5496   */\n      dup3\n        /* \"#utility.yul\":5479:5488   */\n      dup6\n        /* \"#utility.yul\":5475:5497   */\n      add\n        /* \"#utility.yul\":5444:5507   */\n      tag_305\n      jump\t// in\n    tag_361:\n        /* \"#utility.yul\":5434:5507   */\n      swap2\n      pop\n        /* \"#utility.yul\":5390:5517   */\n      pop\n        /* \"#utility.yul\":5175:5524   */\n      swap3\n      swap2\n      pop\n      pop\n      jump\t// out\n        /* \"#utility.yul\":5530:5859   */\n    tag_36:\n        /* \"#utility.yul\":5589:5595   */\n      0x00\n        /* \"#utility.yul\":5638:5640   */\n      0x20\n        /* \"#utility.yul\":5626:5635   */\n      dup3\n        /* \"#utility.yul\":5617:5624   */\n      dup5\n        /* \"#utility.yul\":5613:5636   */\n      sub\n        /* \"#utility.yul\":5609:5641   */\n      slt\n        /* \"#utility.yul\":5606:5725   */\n      iszero\n      tag_363\n      jumpi\n        /* \"#utility.yul\":5644:5723   */\n      tag_364\n      tag_321\n      jump\t// in\n    tag_364:\n        /* \"#utility.yul\":5606:5725   */\n    tag_363:\n        /* \"#utility.yul\":5764:5765   */\n      0x00\n        /* \"#utility.yul\":5789:5842   */\n      tag_365\n        /* \"#utility.yul\":5834:5841   */\n      dup5\n        /* \"#utility.yul\":5825:5831   */\n      dup3\n        /* \"#utility.yul\":5814:5823   */\n      dup6\n        /* \"#utility.yul\":5810:5832   */\n      add\n        /* \"#utility.yul\":5789:5842   */\n      tag_314\n      jump\t// in\n    tag_365:\n        /* \"#utility.yul\":5779:5842   */\n      swap2\n      pop\n        /* \"#utility.yul\":5735:5852   */\n      pop\n        /* \"#utility.yul\":5530:5859   */\n      swap3\n      swap2\n      pop\n      pop\n      jump\t// out\n        /* \"#utility.yul\":5865:5983   */\n    tag_366:\n        /* \"#utility.yul\":5952:5976   */\n      tag_368\n        /* \"#utility.yul\":5970:5975   */\n      dup2\n        /* \"#utility.yul\":5952:5976   */\n      tag_369\n      jump\t// in\n    tag_368:\n        /* \"#utility.yul\":5947:5950   */\n      dup3\n        /* \"#utility.yul\":5940:5977   */\n      mstore\n        /* \"#utility.yul\":5865:5983   */\n      pop\n      pop\n      jump\t// out\n        /* \"#utility.yul\":5989:6098   */\n    tag_370:\n        /* \"#utility.yul\":6070:6091   */\n      tag_372\n        /* \"#utility.yul\":6085:6090   */\n      dup2\n        /* \"#utility.yul\":6070:6091   */\n      tag_373\n      jump\t// in\n    tag_372:\n        /* \"#utility.yul\":6065:6068   */\n      dup3\n        /* \"#utility.yul\":6058:6092   */\n      mstore\n        /* \"#utility.yul\":5989:6098   */\n      pop\n      pop\n      jump\t// out\n        /* \"#utility.yul\":6104:6464   */\n    tag_374:\n        /* \"#utility.yul\":6190:6193   */\n      0x00\n        /* \"#utility.yul\":6218:6256   */\n      tag_376\n        /* \"#utility.yul\":6250:6255   */\n      dup3\n        /* \"#utility.yul\":6218:6256   */\n      tag_377\n      jump\t// in\n    tag_376:\n        /* \"#utility.yul\":6272:6342   */\n      tag_378\n        /* \"#utility.yul\":6335:6341   */\n      dup2\n        /* \"#utility.yul\":6330:6333   */\n      dup6\n        /* \"#utility.yul\":6272:6342   */\n      tag_379\n      jump\t// in\n    tag_378:\n        /* \"#utility.yul\":6265:6342   */\n      swap4\n      pop\n        /* \"#utility.yul\":6351:6403   */\n      tag_380\n        /* \"#utility.yul\":6396:6402   */\n      dup2\n        /* \"#utility.yul\":6391:6394   */\n      dup6\n        /* \"#utility.yul\":6384:6388   */\n      0x20\n        /* \"#utility.yul\":6377:6382   */\n      dup7\n        /* \"#utility.yul\":6373:6389   */\n      add\n        /* \"#utility.yul\":6351:6403   */\n      tag_381\n      jump\t// in\n    tag_380:\n        /* \"#utility.yul\":6428:6457   */\n      tag_382\n        /* \"#utility.yul\":6450:6456   */\n      dup2\n        /* \"#utility.yul\":6428:6457   */\n      tag_383\n      jump\t// in\n    tag_382:\n        /* \"#utility.yul\":6423:6426   */\n      dup5\n        /* \"#utility.yul\":6419:6458   */\n      add\n        /* \"#utility.yul\":6412:6458   */\n      swap2\n      pop\n        /* \"#utility.yul\":6194:6464   */\n      pop\n        /* \"#utility.yul\":6104:6464   */\n      swap3\n      swap2\n      pop\n      pop\n      jump\t// out\n        /* \"#utility.yul\":6470:6834   */\n    tag_384:\n        /* \"#utility.yul\":6558:6561   */\n      0x00\n        /* \"#utility.yul\":6586:6625   */\n      tag_386\n        /* \"#utility.yul\":6619:6624   */\n      dup3\n        /* \"#utility.yul\":6586:6625   */\n      tag_387\n      jump\t// in\n    tag_386:\n        /* \"#utility.yul\":6641:6712   */\n      tag_388\n        /* \"#utility.yul\":6705:6711   */\n      dup2\n        /* \"#utility.yul\":6700:6703   */\n      dup6\n        /* \"#utility.yul\":6641:6712   */\n      tag_389\n      jump\t// in\n    tag_388:\n        /* \"#utility.yul\":6634:6712   */\n      swap4\n      pop\n        /* \"#utility.yul\":6721:6773   */\n      tag_390\n        /* \"#utility.yul\":6766:6772   */\n      dup2\n        /* \"#utility.yul\":6761:6764   */\n      dup6\n        /* \"#utility.yul\":6754:6758   */\n      0x20\n        /* \"#utility.yul\":6747:6752   */\n      dup7\n        /* \"#utility.yul\":6743:6759   */\n      add\n        /* \"#utility.yul\":6721:6773   */\n      tag_381\n      jump\t// in\n    tag_390:\n        /* \"#utility.yul\":6798:6827   */\n      tag_391\n        /* \"#utility.yul\":6820:6826   */\n      dup2\n        /* \"#utility.yul\":6798:6827   */\n      tag_383\n      jump\t// in\n    tag_391:\n        /* \"#utility.yul\":6793:6796   */\n      dup5\n        /* \"#utility.yul\":6789:6828   */\n      add\n        /* \"#utility.yul\":6782:6828   */\n      swap2\n      pop\n        /* \"#utility.yul\":6562:6834   */\n      pop\n        /* \"#utility.yul\":6470:6834   */\n      swap3\n      swap2\n      pop\n      pop\n      jump\t// out\n        /* \"#utility.yul\":6840:7217   */\n    tag_392:\n        /* \"#utility.yul\":6946:6949   */\n      0x00\n        /* \"#utility.yul\":6974:7013   */\n      tag_394\n        /* \"#utility.yul\":7007:7012   */\n      dup3\n        /* \"#utility.yul\":6974:7013   */\n      tag_387\n      jump\t// in\n    tag_394:\n        /* \"#utility.yul\":7029:7118   */\n      tag_395\n        /* \"#utility.yul\":7111:7117   */\n      dup2\n        /* \"#utility.yul\":7106:7109   */\n      dup6\n        /* \"#utility.yul\":7029:7118   */\n      tag_396\n      jump\t// in\n    tag_395:\n        /* \"#utility.yul\":7022:7118   */\n      swap4\n      pop\n        /* \"#utility.yul\":7127:7179   */\n      tag_397\n        /* \"#utility.yul\":7172:7178   */\n      dup2\n        /* \"#utility.yul\":7167:7170   */\n      dup6\n        /* \"#utility.yul\":7160:7164   */\n      0x20\n        /* \"#utility.yul\":7153:7158   */\n      dup7\n        /* \"#utility.yul\":7149:7165   */\n      add\n        /* \"#utility.yul\":7127:7179   */\n      tag_381\n      jump\t// in\n    tag_397:\n        /* \"#utility.yul\":7204:7210   */\n      dup1\n        /* \"#utility.yul\":7199:7202   */\n      dup5\n        /* \"#utility.yul\":7195:7211   */\n      add\n        /* \"#utility.yul\":7188:7211   */\n      swap2\n      pop\n        /* \"#utility.yul\":6950:7217   */\n      pop\n        /* \"#utility.yul\":6840:7217   */\n      swap3\n      swap2\n      pop\n      pop\n      jump\t// out\n        /* \"#utility.yul\":7223:7341   */\n    tag_398:\n        /* \"#utility.yul\":7310:7334   */\n      tag_400\n        /* \"#utility.yul\":7328:7333   */\n      dup2\n        /* \"#utility.yul\":7310:7334   */\n      tag_401\n      jump\t// in\n    tag_400:\n        /* \"#utility.yul\":7305:7308   */\n      dup3\n        /* \"#utility.yul\":7298:7335   */\n      mstore\n        /* \"#utility.yul\":7223:7341   */\n      pop\n      pop\n      jump\t// out\n        /* \"#utility.yul\":7347:7782   */\n    tag_188:\n        /* \"#utility.yul\":7527:7530   */\n      0x00\n        /* \"#utility.yul\":7549:7644   */\n      tag_403\n        /* \"#utility.yul\":7640:7643   */\n      dup3\n        /* \"#utility.yul\":7631:7637   */\n      dup6\n        /* \"#utility.yul\":7549:7644   */\n      tag_392\n      jump\t// in\n    tag_403:\n        /* \"#utility.yul\":7542:7644   */\n      swap2\n      pop\n        /* \"#utility.yul\":7661:7756   */\n      tag_404\n        /* \"#utility.yul\":7752:7755   */\n      dup3\n        /* \"#utility.yul\":7743:7749   */\n      dup5\n        /* \"#utility.yul\":7661:7756   */\n      tag_392\n      jump\t// in\n    tag_404:\n        /* \"#utility.yul\":7654:7756   */\n      swap2\n      pop\n        /* \"#utility.yul\":7773:7776   */\n      dup2\n        /* \"#utility.yul\":7766:7776   */\n      swap1\n      pop\n        /* \"#utility.yul\":7347:7782   */\n      swap4\n      swap3\n      pop\n      pop\n      pop\n      jump\t// out\n        /* \"#utility.yul\":7788:8010   */\n    tag_39:\n        /* \"#utility.yul\":7881:7885   */\n      0x00\n        /* \"#utility.yul\":7919:7921   */\n      0x20\n        /* \"#utility.yul\":7908:7917   */\n      dup3\n        /* \"#utility.yul\":7904:7922   */\n      add\n        /* \"#utility.yul\":7896:7922   */\n      swap1\n      pop\n        /* \"#utility.yul\":7932:8003   */\n      tag_406\n        /* \"#utility.yul\":8000:8001   */\n      0x00\n        /* \"#utility.yul\":7989:7998   */\n      dup4\n        /* \"#utility.yul\":7985:8002   */\n      add\n        /* \"#utility.yul\":7976:7982   */\n      dup5\n        /* \"#utility.yul\":7932:8003   */\n      tag_366\n      jump\t// in\n    tag_406:\n        /* \"#utility.yul\":7788:8010   */\n      swap3\n      swap2\n      pop\n      pop\n      jump\t// out\n        /* \"#utility.yul\":8016:8656   */\n    tag_237:\n        /* \"#utility.yul\":8211:8215   */\n      0x00\n        /* \"#utility.yul\":8249:8252   */\n      0x80\n        /* \"#utility.yul\":8238:8247   */\n      dup3\n        /* \"#utility.yul\":8234:8253   */\n      add\n        /* \"#utility.yul\":8226:8253   */\n      swap1\n      pop\n        /* \"#utility.yul\":8263:8334   */\n      tag_408\n        /* \"#utility.yul\":8331:8332   */\n      0x00\n        /* \"#utility.yul\":8320:8329   */\n      dup4\n        /* \"#utility.yul\":8316:8333   */\n      add\n        /* \"#utility.yul\":8307:8313   */\n      dup8\n        /* \"#utility.yul\":8263:8334   */\n      tag_366\n      jump\t// in\n    tag_408:\n        /* \"#utility.yul\":8344:8416   */\n      tag_409\n        /* \"#utility.yul\":8412:8414   */\n      0x20\n        /* \"#utility.yul\":8401:8410   */\n      dup4\n        /* \"#utility.yul\":8397:8415   */\n      add\n        /* \"#utility.yul\":8388:8394   */\n      dup7\n        /* \"#utility.yul\":8344:8416   */\n      tag_366\n      jump\t// in\n    tag_409:\n        /* \"#utility.yul\":8426:8498   */\n      tag_410\n        /* \"#utility.yul\":8494:8496   */\n      0x40\n        /* \"#utility.yul\":8483:8492   */\n      dup4\n        /* \"#utility.yul\":8479:8497   */\n      add\n        /* \"#utility.yul\":8470:8476   */\n      dup6\n        /* \"#utility.yul\":8426:8498   */\n      tag_398\n      jump\t// in\n    tag_410:\n        /* \"#utility.yul\":8545:8554   */\n      dup2\n        /* \"#utility.yul\":8539:8543   */\n      dup2\n        /* \"#utility.yul\":8535:8555   */\n      sub\n        /* \"#utility.yul\":8530:8532   */\n      0x60\n        /* \"#utility.yul\":8519:8528   */\n      dup4\n        /* \"#utility.yul\":8515:8533   */\n      add\n        /* \"#utility.yul\":8508:8556   */\n      mstore\n        /* \"#utility.yul\":8573:8649   */\n      tag_411\n        /* \"#utility.yul\":8644:8648   */\n      dup2\n        /* \"#utility.yul\":8635:8641   */\n      dup5\n        /* \"#utility.yul\":8573:8649   */\n      tag_374\n      jump\t// in\n    tag_411:\n        /* \"#utility.yul\":8565:8649   */\n      swap1\n      pop\n        /* \"#utility.yul\":8016:8656   */\n      swap6\n      swap5\n      pop\n      pop\n      pop\n      pop\n      pop\n      jump\t// out\n        /* \"#utility.yul\":8662:8872   */\n    tag_27:\n        /* \"#utility.yul\":8749:8753   */\n      0x00\n        /* \"#utility.yul\":8787:8789   */\n      0x20\n        /* \"#utility.yul\":8776:8785   */\n      dup3\n        /* \"#utility.yul\":8772:8790   */\n      add\n        /* \"#utility.yul\":8764:8790   */\n      swap1\n      pop\n        /* \"#utility.yul\":8800:8865   */\n      tag_413\n        /* \"#utility.yul\":8862:8863   */\n      0x00\n        /* \"#utility.yul\":8851:8860   */\n      dup4\n        /* \"#utility.yul\":8847:8864   */\n      add\n        /* \"#utility.yul\":8838:8844   */\n      dup5\n        /* \"#utility.yul\":8800:8865   */\n      tag_370\n      jump\t// in\n    tag_413:\n        /* \"#utility.yul\":8662:8872   */\n      swap3\n      swap2\n      pop\n      pop\n      jump\t// out\n        /* \"#utility.yul\":8878:9191   */\n    tag_32:\n        /* \"#utility.yul\":8991:8995   */\n      0x00\n        /* \"#utility.yul\":9029:9031   */\n      0x20\n        /* \"#utility.yul\":9018:9027   */\n      dup3\n        /* \"#utility.yul\":9014:9032   */\n      add\n        /* \"#utility.yul\":9006:9032   */\n      swap1\n      pop\n        /* \"#utility.yul\":9078:9087   */\n      dup2\n        /* \"#utility.yul\":9072:9076   */\n      dup2\n        /* \"#utility.yul\":9068:9088   */\n      sub\n        /* \"#utility.yul\":9064:9065   */\n      0x00\n        /* \"#utility.yul\":9053:9062   */\n      dup4\n        /* \"#utility.yul\":9049:9066   */\n      add\n        /* \"#utility.yul\":9042:9089   */\n      mstore\n        /* \"#utility.yul\":9106:9184   */\n      tag_415\n        /* \"#utility.yul\":9179:9183   */\n      dup2\n        /* \"#utility.yul\":9170:9176   */\n      dup5\n        /* \"#utility.yul\":9106:9184   */\n      tag_384\n      jump\t// in\n    tag_415:\n        /* \"#utility.yul\":9098:9184   */\n      swap1\n      pop\n        /* \"#utility.yul\":8878:9191   */\n      swap3\n      swap2\n      pop\n      pop\n      jump\t// out\n        /* \"#utility.yul\":9197:9419   */\n    tag_48:\n        /* \"#utility.yul\":9290:9294   */\n      0x00\n        /* \"#utility.yul\":9328:9330   */\n      0x20\n        /* \"#utility.yul\":9317:9326   */\n      dup3\n        /* \"#utility.yul\":9313:9331   */\n      add\n        /* \"#utility.yul\":9305:9331   */\n      swap1\n      pop\n        /* \"#utility.yul\":9341:9412   */\n      tag_417\n        /* \"#utility.yul\":9409:9410   */\n      0x00\n        /* \"#utility.yul\":9398:9407   */\n      dup4\n        /* \"#utility.yul\":9394:9411   */\n      add\n        /* \"#utility.yul\":9385:9391   */\n      dup5\n        /* \"#utility.yul\":9341:9412   */\n      tag_398\n      jump\t// in\n    tag_417:\n        /* \"#utility.yul\":9197:9419   */\n      swap3\n      swap2\n      pop\n      pop\n      jump\t// out\n        /* \"#utility.yul\":9425:9554   */\n    tag_287:\n        /* \"#utility.yul\":9459:9465   */\n      0x00\n        /* \"#utility.yul\":9486:9506   */\n      tag_419\n      tag_420\n      jump\t// in\n    tag_419:\n        /* \"#utility.yul\":9476:9506   */\n      swap1\n      pop\n        /* \"#utility.yul\":9515:9548   */\n      tag_421\n        /* \"#utility.yul\":9543:9547   */\n      dup3\n        /* \"#utility.yul\":9535:9541   */\n      dup3\n        /* \"#utility.yul\":9515:9548   */\n      tag_422\n      jump\t// in\n    tag_421:\n        /* \"#utility.yul\":9425:9554   */\n      swap2\n      swap1\n      pop\n      jump\t// out\n        /* \"#utility.yul\":9560:9635   */\n    tag_420:\n        /* \"#utility.yul\":9593:9599   */\n      0x00\n        /* \"#utility.yul\":9626:9628   */\n      0x40\n        /* \"#utility.yul\":9620:9629   */\n      mload\n        /* \"#utility.yul\":9610:9629   */\n      swap1\n      pop\n        /* \"#utility.yul\":9560:9635   */\n      swap1\n      jump\t// out\n        /* \"#utility.yul\":9641:9948   */\n    tag_286:\n        /* \"#utility.yul\":9702:9706   */\n      0x00\n        /* \"#utility.yul\":9792:9810   */\n      0xffffffffffffffff\n        /* \"#utility.yul\":9784:9790   */\n      dup3\n        /* \"#utility.yul\":9781:9811   */\n      gt\n        /* \"#utility.yul\":9778:9834   */\n      iszero\n      tag_425\n      jumpi\n        /* \"#utility.yul\":9814:9832   */\n      tag_426\n      tag_427\n      jump\t// in\n    tag_426:\n        /* \"#utility.yul\":9778:9834   */\n    tag_425:\n        /* \"#utility.yul\":9852:9881   */\n      tag_428\n        /* \"#utility.yul\":9874:9880   */\n      dup3\n        /* \"#utility.yul\":9852:9881   */\n      tag_383\n      jump\t// in\n    tag_428:\n        /* \"#utility.yul\":9844:9881   */\n      swap1\n      pop\n        /* \"#utility.yul\":9936:9940   */\n      0x20\n        /* \"#utility.yul\":9930:9934   */\n      dup2\n        /* \"#utility.yul\":9926:9941   */\n      add\n        /* \"#utility.yul\":9918:9941   */\n      swap1\n      pop\n        /* \"#utility.yul\":9641:9948   */\n      swap2\n      swap1\n      pop\n      jump\t// out\n        /* \"#utility.yul\":9954:10052   */\n    tag_377:\n        /* \"#utility.yul\":10005:10011   */\n      0x00\n        /* \"#utility.yul\":10039:10044   */\n      dup2\n        /* \"#utility.yul\":10033:10045   */\n      mload\n        /* \"#utility.yul\":10023:10045   */\n      swap1\n      pop\n        /* \"#utility.yul\":9954:10052   */\n      swap2\n      swap1\n      pop\n      jump\t// out\n        /* \"#utility.yul\":10058:10157   */\n    tag_387:\n        /* \"#utility.yul\":10110:10116   */\n      0x00\n        /* \"#utility.yul\":10144:10149   */\n      dup2\n        /* \"#utility.yul\":10138:10150   */\n      mload\n        /* \"#utility.yul\":10128:10150   */\n      swap1\n      pop\n        /* \"#utility.yul\":10058:10157   */\n      swap2\n      swap1\n      pop\n      jump\t// out\n        /* \"#utility.yul\":10163:10331   */\n    tag_379:\n        /* \"#utility.yul\":10246:10257   */\n      0x00\n        /* \"#utility.yul\":10280:10286   */\n      dup3\n        /* \"#utility.yul\":10275:10278   */\n      dup3\n        /* \"#utility.yul\":10268:10287   */\n      mstore\n        /* \"#utility.yul\":10320:10324   */\n      0x20\n        /* \"#utility.yul\":10315:10318   */\n      dup3\n        /* \"#utility.yul\":10311:10325   */\n      add\n        /* \"#utility.yul\":10296:10325   */\n      swap1\n      pop\n        /* \"#utility.yul\":10163:10331   */\n      swap3\n      swap2\n      pop\n      pop\n      jump\t// out\n        /* \"#utility.yul\":10337:10506   */\n    tag_389:\n        /* \"#utility.yul\":10421:10432   */\n      0x00\n        /* \"#utility.yul\":10455:10461   */\n      dup3\n        /* \"#utility.yul\":10450:10453   */\n      dup3\n        /* \"#utility.yul\":10443:10462   */\n      mstore\n        /* \"#utility.yul\":10495:10499   */\n      0x20\n        /* \"#utility.yul\":10490:10493   */\n      dup3\n        /* \"#utility.yul\":10486:10500   */\n      add\n        /* \"#utility.yul\":10471:10500   */\n      swap1\n      pop\n        /* \"#utility.yul\":10337:10506   */\n      swap3\n      swap2\n      pop\n      pop\n      jump\t// out\n        /* \"#utility.yul\":10512:10660   */\n    tag_396:\n        /* \"#utility.yul\":10614:10625   */\n      0x00\n        /* \"#utility.yul\":10651:10654   */\n      dup2\n        /* \"#utility.yul\":10636:10654   */\n      swap1\n      pop\n        /* \"#utility.yul\":10512:10660   */\n      swap3\n      swap2\n      pop\n      pop\n      jump\t// out\n        /* \"#utility.yul\":10666:10762   */\n    tag_369:\n        /* \"#utility.yul\":10703:10710   */\n      0x00\n        /* \"#utility.yul\":10732:10756   */\n      tag_435\n        /* \"#utility.yul\":10750:10755   */\n      dup3\n        /* \"#utility.yul\":10732:10756   */\n      tag_436\n      jump\t// in\n    tag_435:\n        /* \"#utility.yul\":10721:10756   */\n      swap1\n      pop\n        /* \"#utility.yul\":10666:10762   */\n      swap2\n      swap1\n      pop\n      jump\t// out\n        /* \"#utility.yul\":10768:10858   */\n    tag_373:\n        /* \"#utility.yul\":10802:10809   */\n      0x00\n        /* \"#utility.yul\":10845:10850   */\n      dup2\n        /* \"#utility.yul\":10838:10851   */\n      iszero\n        /* \"#utility.yul\":10831:10852   */\n      iszero\n        /* \"#utility.yul\":10820:10852   */\n      swap1\n      pop\n        /* \"#utility.yul\":10768:10858   */\n      swap2\n      swap1\n      pop\n      jump\t// out\n        /* \"#utility.yul\":10864:11013   */\n    tag_438:\n        /* \"#utility.yul\":10900:10907   */\n      0x00\n        /* \"#utility.yul\":10940:11006   */\n      0xffffffff00000000000000000000000000000000000000000000000000000000\n        /* \"#utility.yul\":10933:10938   */\n      dup3\n        /* \"#utility.yul\":10929:11007   */\n      and\n        /* \"#utility.yul\":10918:11007   */\n      swap1\n      pop\n        /* \"#utility.yul\":10864:11013   */\n      swap2\n      swap1\n      pop\n      jump\t// out\n        /* \"#utility.yul\":11019:11145   */\n    tag_436:\n        /* \"#utility.yul\":11056:11063   */\n      0x00\n        /* \"#utility.yul\":11096:11138   */\n      0xffffffffffffffffffffffffffffffffffffffff\n        /* \"#utility.yul\":11089:11094   */\n      dup3\n        /* \"#utility.yul\":11085:11139   */\n      and\n        /* \"#utility.yul\":11074:11139   */\n      swap1\n      pop\n        /* \"#utility.yul\":11019:11145   */\n      swap2\n      swap1\n      pop\n      jump\t// out\n        /* \"#utility.yul\":11151:11228   */\n    tag_401:\n        /* \"#utility.yul\":11188:11195   */\n      0x00\n        /* \"#utility.yul\":11217:11222   */\n      dup2\n        /* \"#utility.yul\":11206:11222   */\n      swap1\n      pop\n        /* \"#utility.yul\":11151:11228   */\n      swap2\n      swap1\n      pop\n      jump\t// out\n        /* \"#utility.yul\":11234:11388   */\n    tag_292:\n        /* \"#utility.yul\":11318:11324   */\n      dup3\n        /* \"#utility.yul\":11313:11316   */\n      dup2\n        /* \"#utility.yul\":11308:11311   */\n      dup4\n        /* \"#utility.yul\":11295:11325   */\n      calldatacopy\n        /* \"#utility.yul\":11380:11381   */\n      0x00\n        /* \"#utility.yul\":11371:11377   */\n      dup4\n        /* \"#utility.yul\":11366:11369   */\n      dup4\n        /* \"#utility.yul\":11362:11378   */\n      add\n        /* \"#utility.yul\":11355:11382   */\n      mstore\n        /* \"#utility.yul\":11234:11388   */\n      pop\n      pop\n      pop\n      jump\t// out\n        /* \"#utility.yul\":11394:11701   */\n    tag_381:\n        /* \"#utility.yul\":11462:11463   */\n      0x00\n        /* \"#utility.yul\":11472:11585   */\n    tag_444:\n        /* \"#utility.yul\":11486:11492   */\n      dup4\n        /* \"#utility.yul\":11483:11484   */\n      dup2\n        /* \"#utility.yul\":11480:11493   */\n      lt\n        /* \"#utility.yul\":11472:11585   */\n      iszero\n      tag_446\n      jumpi\n        /* \"#utility.yul\":11571:11572   */\n      dup1\n        /* \"#utility.yul\":11566:11569   */\n      dup3\n        /* \"#utility.yul\":11562:11573   */\n      add\n        /* \"#utility.yul\":11556:11574   */\n      mload\n        /* \"#utility.yul\":11552:11553   */\n      dup2\n        /* \"#utility.yul\":11547:11550   */\n      dup5\n        /* \"#utility.yul\":11543:11554   */\n      add\n        /* \"#utility.yul\":11536:11575   */\n      mstore\n        /* \"#utility.yul\":11508:11510   */\n      0x20\n        /* \"#utility.yul\":11505:11506   */\n      dup2\n        /* \"#utility.yul\":11501:11511   */\n      add\n        /* \"#utility.yul\":11496:11511   */\n      swap1\n      pop\n        /* \"#utility.yul\":11472:11585   */\n      jump(tag_444)\n    tag_446:\n        /* \"#utility.yul\":11603:11609   */\n      dup4\n        /* \"#utility.yul\":11600:11601   */\n      dup2\n        /* \"#utility.yul\":11597:11610   */\n      gt\n        /* \"#utility.yul\":11594:11695   */\n      iszero\n      tag_447\n      jumpi\n        /* \"#utility.yul\":11683:11684   */\n      0x00\n        /* \"#utility.yul\":11674:11680   */\n      dup5\n        /* \"#utility.yul\":11669:11672   */\n      dup5\n        /* \"#utility.yul\":11665:11681   */\n      add\n        /* \"#utility.yul\":11658:11685   */\n      mstore\n        /* \"#utility.yul\":11594:11695   */\n    tag_447:\n        /* \"#utility.yul\":11443:11701   */\n      pop\n        /* \"#utility.yul\":11394:11701   */\n      pop\n      pop\n      pop\n      jump\t// out\n        /* \"#utility.yul\":11707:12027   */\n    tag_104:\n        /* \"#utility.yul\":11751:11757   */\n      0x00\n        /* \"#utility.yul\":11788:11789   */\n      0x02\n        /* \"#utility.yul\":11782:11786   */\n      dup3\n        /* \"#utility.yul\":11778:11790   */\n      div\n        /* \"#utility.yul\":11768:11790   */\n      swap1\n      pop\n        /* \"#utility.yul\":11835:11836   */\n      0x01\n        /* \"#utility.yul\":11829:11833   */\n      dup3\n        /* \"#utility.yul\":11825:11837   */\n      and\n        /* \"#utility.yul\":11856:11874   */\n      dup1\n        /* \"#utility.yul\":11846:11927   */\n      tag_449\n      jumpi\n        /* \"#utility.yul\":11912:11916   */\n      0x7f\n        /* \"#utility.yul\":11904:11910   */\n      dup3\n        /* \"#utility.yul\":11900:11917   */\n      and\n        /* \"#utility.yul\":11890:11917   */\n      swap2\n      pop\n        /* \"#utility.yul\":11846:11927   */\n    tag_449:\n        /* \"#utility.yul\":11974:11976   */\n      0x20\n        /* \"#utility.yul\":11966:11972   */\n      dup3\n        /* \"#utility.yul\":11963:11977   */\n      lt\n        /* \"#utility.yul\":11943:11961   */\n      dup2\n        /* \"#utility.yul\":11940:11978   */\n      eq\n        /* \"#utility.yul\":11937:12021   */\n      iszero\n      tag_450\n      jumpi\n        /* \"#utility.yul\":11993:12011   */\n      tag_451\n      tag_452\n      jump\t// in\n    tag_451:\n        /* \"#utility.yul\":11937:12021   */\n    tag_450:\n        /* \"#utility.yul\":11758:12027   */\n      pop\n        /* \"#utility.yul\":11707:12027   */\n      swap2\n      swap1\n      pop\n      jump\t// out\n        /* \"#utility.yul\":12033:12314   */\n    tag_422:\n        /* \"#utility.yul\":12116:12143   */\n      tag_454\n        /* \"#utility.yul\":12138:12142   */\n      dup3\n        /* \"#utility.yul\":12116:12143   */\n      tag_383\n      jump\t// in\n    tag_454:\n        /* \"#utility.yul\":12108:12114   */\n      dup2\n        /* \"#utility.yul\":12104:12144   */\n      add\n        /* \"#utility.yul\":12246:12252   */\n      dup2\n        /* \"#utility.yul\":12234:12244   */\n      dup2\n        /* \"#utility.yul\":12231:12253   */\n      lt\n        /* \"#utility.yul\":12210:12228   */\n      0xffffffffffffffff\n        /* \"#utility.yul\":12198:12208   */\n      dup3\n        /* \"#utility.yul\":12195:12229   */\n      gt\n        /* \"#utility.yul\":12192:12254   */\n      or\n        /* \"#utility.yul\":12189:12277   */\n      iszero\n      tag_455\n      jumpi\n        /* \"#utility.yul\":12257:12275   */\n      tag_456\n      tag_427\n      jump\t// in\n    tag_456:\n        /* \"#utility.yul\":12189:12277   */\n    tag_455:\n        /* \"#utility.yul\":12297:12307   */\n      dup1\n        /* \"#utility.yul\":12293:12295   */\n      0x40\n        /* \"#utility.yul\":12286:12308   */\n      mstore\n        /* \"#utility.yul\":12076:12314   */\n      pop\n        /* \"#utility.yul\":12033:12314   */\n      pop\n      pop\n      jump\t// out\n        /* \"#utility.yul\":12320:12500   */\n    tag_452:\n        /* \"#utility.yul\":12368:12445   */\n      0x4e487b7100000000000000000000000000000000000000000000000000000000\n        /* \"#utility.yul\":12365:12366   */\n      0x00\n        /* \"#utility.yul\":12358:12446   */\n      mstore\n        /* \"#utility.yul\":12465:12469   */\n      0x22\n        /* \"#utility.yul\":12462:12463   */\n      0x04\n        /* \"#utility.yul\":12455:12470   */\n      mstore\n        /* \"#utility.yul\":12489:12493   */\n      0x24\n        /* \"#utility.yul\":12486:12487   */\n      0x00\n        /* \"#utility.yul\":12479:12494   */\n      revert\n        /* \"#utility.yul\":12506:12686   */\n    tag_427:\n        /* \"#utility.yul\":12554:12631   */\n      0x4e487b7100000000000000000000000000000000000000000000000000000000\n        /* \"#utility.yul\":12551:12552   */\n      0x00\n        /* \"#utility.yul\":12544:12632   */\n      mstore\n        /* \"#utility.yul\":12651:12655   */\n      0x41\n        /* \"#utility.yul\":12648:12649   */\n      0x04\n        /* \"#utility.yul\":12641:12656   */\n      mstore\n        /* \"#utility.yul\":12675:12679   */\n      0x24\n        /* \"#utility.yul\":12672:12673   */\n      0x00\n        /* \"#utility.yul\":12665:12680   */\n      revert\n        /* \"#utility.yul\":12692:12809   */\n    tag_312:\n        /* \"#utility.yul\":12801:12802   */\n      0x00\n        /* \"#utility.yul\":12798:12799   */\n      dup1\n        /* \"#utility.yul\":12791:12803   */\n      revert\n        /* \"#utility.yul\":12815:12932   */\n    tag_290:\n        /* \"#utility.yul\":12924:12925   */\n      0x00\n        /* \"#utility.yul\":12921:12922   */\n      dup1\n        /* \"#utility.yul\":12914:12926   */\n      revert\n        /* \"#utility.yul\":12938:13055   */\n    tag_342:\n        /* \"#utility.yul\":13047:13048   */\n      0x00\n        /* \"#utility.yul\":13044:13045   */\n      dup1\n        /* \"#utility.yul\":13037:13049   */\n      revert\n        /* \"#utility.yul\":13061:13178   */\n    tag_321:\n        /* \"#utility.yul\":13170:13171   */\n      0x00\n        /* \"#utility.yul\":13167:13168   */\n      dup1\n        /* \"#utility.yul\":13160:13172   */\n      revert\n        /* \"#utility.yul\":13184:13286   */\n    tag_383:\n        /* \"#utility.yul\":13225:13231   */\n      0x00\n        /* \"#utility.yul\":13276:13278   */\n      0x1f\n        /* \"#utility.yul\":13272:13279   */\n      not\n        /* \"#utility.yul\":13267:13269   */\n      0x1f\n        /* \"#utility.yul\":13260:13265   */\n      dup4\n        /* \"#utility.yul\":13256:13270   */\n      add\n        /* \"#utility.yul\":13252:13280   */\n      and\n        /* \"#utility.yul\":13242:13280   */\n      swap1\n      pop\n        /* \"#utility.yul\":13184:13286   */\n      swap2\n      swap1\n      pop\n      jump\t// out\n        /* \"#utility.yul\":13292:13414   */\n    tag_296:\n        /* \"#utility.yul\":13365:13389   */\n      tag_465\n        /* \"#utility.yul\":13383:13388   */\n      dup2\n        /* \"#utility.yul\":13365:13389   */\n      tag_369\n      jump\t// in\n    tag_465:\n        /* \"#utility.yul\":13358:13363   */\n      dup2\n        /* \"#utility.yul\":13355:13390   */\n      eq\n        /* \"#utility.yul\":13345:13408   */\n      tag_466\n      jumpi\n        /* \"#utility.yul\":13404:13405   */\n      0x00\n        /* \"#utility.yul\":13401:13402   */\n      dup1\n        /* \"#utility.yul\":13394:13406   */\n      revert\n        /* \"#utility.yul\":13345:13408   */\n    tag_466:\n        /* \"#utility.yul\":13292:13414   */\n      pop\n      jump\t// out\n        /* \"#utility.yul\":13420:13536   */\n    tag_300:\n        /* \"#utility.yul\":13490:13511   */\n      tag_468\n        /* \"#utility.yul\":13505:13510   */\n      dup2\n        /* \"#utility.yul\":13490:13511   */\n      tag_373\n      jump\t// in\n    tag_468:\n        /* \"#utility.yul\":13483:13488   */\n      dup2\n        /* \"#utility.yul\":13480:13512   */\n      eq\n        /* \"#utility.yul\":13470:13530   */\n      tag_469\n      jumpi\n        /* \"#utility.yul\":13526:13527   */\n      0x00\n        /* \"#utility.yul\":13523:13524   */\n      dup1\n        /* \"#utility.yul\":13516:13528   */\n      revert\n        /* \"#utility.yul\":13470:13530   */\n    tag_469:\n        /* \"#utility.yul\":13420:13536   */\n      pop\n      jump\t// out\n        /* \"#utility.yul\":13542:13662   */\n    tag_304:\n        /* \"#utility.yul\":13614:13637   */\n      tag_471\n        /* \"#utility.yul\":13631:13636   */\n      dup2\n        /* \"#utility.yul\":13614:13637   */\n      tag_438\n      jump\t// in\n    tag_471:\n        /* \"#utility.yul\":13607:13612   */\n      dup2\n        /* \"#utility.yul\":13604:13638   */\n      eq\n        /* \"#utility.yul\":13594:13656   */\n      tag_472\n      jumpi\n        /* \"#utility.yul\":13652:13653   */\n      0x00\n        /* \"#utility.yul\":13649:13650   */\n      dup1\n        /* \"#utility.yul\":13642:13654   */\n      revert\n        /* \"#utility.yul\":13594:13656   */\n    tag_472:\n        /* \"#utility.yul\":13542:13662   */\n      pop\n      jump\t// out\n        /* \"#utility.yul\":13668:13790   */\n    tag_317:\n        /* \"#utility.yul\":13741:13765   */\n      tag_474\n        /* \"#utility.yul\":13759:13764   */\n      dup2\n        /* \"#utility.yul\":13741:13765   */\n      tag_401\n      jump\t// in\n    tag_474:\n        /* \"#utility.yul\":13734:13739   */\n      dup2\n        /* \"#utility.yul\":13731:13766   */\n      eq\n        /* \"#utility.yul\":13721:13784   */\n      tag_475\n      jumpi\n        /* \"#utility.yul\":13780:13781   */\n      0x00\n        /* \"#utility.yul\":13777:13778   */\n      dup1\n        /* \"#utility.yul\":13770:13782   */\n      revert\n        /* \"#utility.yul\":13721:13784   */\n    tag_475:\n        /* \"#utility.yul\":13668:13790   */\n      pop\n      jump\t// out\n\n    auxdata: 0xa264697066735822122015dba09d0774ca248769b7e8b6ccb3079434ed70d5065d64fb324e3e5c5ea53964736f6c63430008070033\n}\n",
				"bytecode": {
					"linkReferences": {},
					"object": "60806040523480156200001157600080fd5b5060405162002307380380620023078339818101604052810190620000379190620001be565b818181600290805190602001906200005192919062000090565b5080600390805190602001906200006a92919062000090565b506200007b6200008b60201b60201c565b60008190555050505050620003c7565b600090565b8280546200009e90620002d8565b90600052602060002090601f016020900481019282620000c257600085556200010e565b82601f10620000dd57805160ff19168380011785556200010e565b828001600101855582156200010e579182015b828111156200010d578251825591602001919060010190620000f0565b5b5090506200011d919062000121565b5090565b5b808211156200013c57600081600090555060010162000122565b5090565b60006200015762000151846200026c565b62000243565b905082815260208101848484011115620001765762000175620003a7565b5b62000183848285620002a2565b509392505050565b600082601f830112620001a357620001a2620003a2565b5b8151620001b584826020860162000140565b91505092915050565b60008060408385031215620001d857620001d7620003b1565b5b600083015167ffffffffffffffff811115620001f957620001f8620003ac565b5b62000207858286016200018b565b925050602083015167ffffffffffffffff8111156200022b576200022a620003ac565b5b62000239858286016200018b565b9150509250929050565b60006200024f62000262565b90506200025d82826200030e565b919050565b6000604051905090565b600067ffffffffffffffff8211156200028a576200028962000373565b5b6200029582620003b6565b9050602081019050919050565b60005b83811015620002c2578082015181840152602081019050620002a5565b83811115620002d2576000848401525b50505050565b60006002820490506001821680620002f157607f821691505b6020821081141562000308576200030762000344565b5b50919050565b6200031982620003b6565b810181811067ffffffffffffffff821117156200033b576200033a62000373565b5b80604052505050565b7f4e487b7100000000000000000000000000000000000000000000000000000000600052602260045260246000fd5b7f4e487b7100000000000000000000000000000000000000000000000000000000600052604160045260246000fd5b600080fd5b600080fd5b600080fd5b600080fd5b6000601f19601f8301169050919050565b611f3080620003d76000396000f3fe6080604052600436106100f35760003560e01c80636352211e1161008a578063a22cb46511610059578063a22cb46514610313578063b88d4fde1461033c578063c87b56dd14610358578063e985e9c514610395576100f3565b80636352211e1461024557806370a082311461028257806395d89b41146102bf578063a1448194146102ea576100f3565b806318160ddd116100c657806318160ddd146101b957806323b872dd146101e457806342842e0e1461020057806342966c681461021c576100f3565b806301ffc9a7146100f857806306fdde0314610135578063081812fc14610160578063095ea7b31461019d575b600080fd5b34801561010457600080fd5b5061011f600480360381019061011a9190611a2f565b6103d2565b60405161012c9190611c11565b60405180910390f35b34801561014157600080fd5b5061014a610464565b6040516101579190611c2c565b60405180910390f35b34801561016c57600080fd5b5061018760048036038101906101829190611a89565b6104f6565b6040516101949190611baa565b60405180910390f35b6101b760048036038101906101b291906119ef565b610575565b005b3480156101c557600080fd5b506101ce6106b9565b6040516101db9190611c4e565b60405180910390f35b6101fe60048036038101906101f991906118d9565b6106d0565b005b61021a600480360381019061021591906118d9565b6109f5565b005b34801561022857600080fd5b50610243600480360381019061023e9190611a89565b610a15565b005b34801561025157600080fd5b5061026c60048036038101906102679190611a89565b610a23565b6040516102799190611baa565b60405180910390f35b34801561028e57600080fd5b506102a960048036038101906102a4919061186c565b610a35565b6040516102b69190611c4e565b60405180910390f35b3480156102cb57600080fd5b506102d4610aee565b6040516102e19190611c2c565b60405180910390f35b3480156102f657600080fd5b50610311600480360381019061030c91906119ef565b610b80565b005b34801561031f57600080fd5b5061033a600480360381019061033591906119af565b610b8e565b005b6103566004803603810190610351919061192c565b610c99565b005b34801561036457600080fd5b5061037f600480360381019061037a9190611a89565b610d0c565b60405161038c9190611c2c565b60405180910390f35b3480156103a157600080fd5b506103bc60048036038101906103b79190611899565b610dab565b6040516103c99190611c11565b60405180910390f35b60006301ffc9a760e01b827bffffffffffffffffffffffffffffffffffffffffffffffffffffffff1916148061042d57506380ac58cd60e01b827bffffffffffffffffffffffffffffffffffffffffffffffffffffffff1916145b8061045d5750635b5e139f60e01b827bffffffffffffffffffffffffffffffffffffffffffffffffffffffff1916145b9050919050565b60606002805461047390611db8565b80601f016020809104026020016040519081016040528092919081815260200182805461049f90611db8565b80156104ec5780601f106104c1576101008083540402835291602001916104ec565b820191906000526020600020905b8154815290600101906020018083116104cf57829003601f168201915b5050505050905090565b600061050182610e3f565b610537576040517fcf4700e400000000000000000000000000000000000000000000000000000000815260040160405180910390fd5b6006600083815260200190815260200160002060000160009054906101000a900473ffffffffffffffffffffffffffffffffffffffff169050919050565b600061058082610a23565b90508073ffffffffffffffffffffffffffffffffffffffff166105a1610e9e565b73ffffffffffffffffffffffffffffffffffffffff1614610604576105cd816105c8610e9e565b610dab565b610603576040517fcfb3b94200000000000000000000000000000000000000000000000000000000815260040160405180910390fd5b5b826006600084815260200190815260200160002060000160006101000a81548173ffffffffffffffffffffffffffffffffffffffff021916908373ffffffffffffffffffffffffffffffffffffffff160217905550818373ffffffffffffffffffffffffffffffffffffffff168273ffffffffffffffffffffffffffffffffffffffff167f8c5be1e5ebec7d5bd14f71427d1e84f3dd0314c0f7b2291e5b200ac8c7c3b92560405160405180910390a4505050565b60006106c3610ea6565b6001546000540303905090565b60006106db82610eab565b90508373ffffffffffffffffffffffffffffffffffffffff168173ffffffffffffffffffffffffffffffffffffffff1614610742576040517fa114810000000000000000000000000000000000000000000000000000000000815260040160405180910390fd5b60008061074e84610f79565b91509150610764818761075f610e9e565b610fa0565b6107b05761077986610774610e9e565b610dab565b6107af576040517f59c896be00000000000000000000000000000000000000000000000000000000815260040160405180910390fd5b5b600073ffffffffffffffffffffffffffffffffffffffff168573ffffffffffffffffffffffffffffffffffffffff161415610817576040517fea553b3400000000000000000000000000000000000000000000000000000000815260040160405180910390fd5b6108248686866001610fe4565b801561082f57600082555b600560008773ffffffffffffffffffffffffffffffffffffffff1673ffffffffffffffffffffffffffffffffffffffff168152602001908152602001600020600081546001900391905081905550600560008673ffffffffffffffffffffffffffffffffffffffff1673ffffffffffffffffffffffffffffffffffffffff16815260200190815260200160002060008154600101919050819055506108fd856108d9888887611085565b7c0200000000000000000000000000000000000000000000000000000000176110ad565b600460008681526020019081526020016000208190555060007c020000000000000000000000000000000000000000000000000000000084161415610985576000600185019050600060046000838152602001908152602001600020541415610983576000548114610982578360046000838152602001908152602001600020819055505b5b505b838573ffffffffffffffffffffffffffffffffffffffff168773ffffffffffffffffffffffffffffffffffffffff167fddf252ad1be2c89b69c2b068fc378daa952ba7f163c4a11628f55a4df523b3ef60405160405180910390a46109ed86868660016110d8565b505050505050565b610a1083838360405180602001604052806000815250610c99565b505050565b610a208160016110de565b50565b6000610a2e82610eab565b9050919050565b60008073ffffffffffffffffffffffffffffffffffffffff168273ffffffffffffffffffffffffffffffffffffffff161415610a9d576040517f8f4eb60400000000000000000000000000000000000000000000000000000000815260040160405180910390fd5b67ffffffffffffffff600560008473ffffffffffffffffffffffffffffffffffffffff1673ffffffffffffffffffffffffffffffffffffffff16815260200190815260200160002054169050919050565b606060038054610afd90611db8565b80601f0160208091040260200160405190810160405280929190818152602001828054610b2990611db8565b8015610b765780601f10610b4b57610100808354040283529160200191610b76565b820191906000526020600020905b815481529060010190602001808311610b5957829003601f168201915b5050505050905090565b610b8a8282611332565b5050565b8060076000610b9b610e9e565b73ffffffffffffffffffffffffffffffffffffffff1673ffffffffffffffffffffffffffffffffffffffff16815260200190815260200160002060008473ffffffffffffffffffffffffffffffffffffffff1673ffffffffffffffffffffffffffffffffffffffff16815260200190815260200160002060006101000a81548160ff0219169083151502179055508173ffffffffffffffffffffffffffffffffffffffff16610c48610e9e565b73ffffffffffffffffffffffffffffffffffffffff167f17307eab39ab6107e8899845ad3d59bd9653f200f220920489ca2b5937696c3183604051610c8d9190611c11565b60405180910390a35050565b610ca48484846106d0565b60008373ffffffffffffffffffffffffffffffffffffffff163b14610d0657610ccf84848484611350565b610d05576040517fd1a57ed600000000000000000000000000000000000000000000000000000000815260040160405180910390fd5b5b50505050565b6060610d1782610e3f565b610d4d576040517fa14c4b5000000000000000000000000000000000000000000000000000000000815260040160405180910390fd5b6000610d576114b0565b9050600081511415610d785760405180602001604052806000815250610da3565b80610d82846114c7565b604051602001610d93929190611b86565b6040516020818303038152906040525b915050919050565b6000600760008473ffffffffffffffffffffffffffffffffffffffff1673ffffffffffffffffffffffffffffffffffffffff16815260200190815260200160002060008373ffffffffffffffffffffffffffffffffffffffff1673ffffffffffffffffffffffffffffffffffffffff16815260200190815260200160002060009054906101000a900460ff16905092915050565b600081610e4a610ea6565b11158015610e59575060005482105b8015610e97575060007c0100000000000000000000000000000000000000000000000000000000600460008581526020019081526020016000205416145b9050919050565b600033905090565b600090565b60008082905080610eba610ea6565b11610f4257600054811015610f415760006004600083815260200190815260200160002054905060007c010000000000000000000000000000000000000000000000000000000082161415610f3f575b6000811415610f35576004600083600190039350838152602001908152602001600020549050610f0a565b8092505050610f74565b505b5b6040517fdf2d9b4200000000000000000000000000000000000000000000000000000000815260040160405180910390fd5b919050565b60008060006006600085815260200190815260200160002090508092508254915050915091565b600073ffffffffffffffffffffffffffffffffffffffff8316925073ffffffffffffffffffffffffffffffffffffffff821691508382148383141790509392505050565b600073ffffffffffffffffffffffffffffffffffffffff168473ffffffffffffffffffffffffffffffffffffffff161461107f57600073ffffffffffffffffffffffffffffffffffffffff168373ffffffffffffffffffffffffffffffffffffffff161461107e576040517f0701eeb900000000000000000000000000000000000000000000000000000000815260040160405180910390fd5b5b50505050565b60008060e883901c905060e861109c868684611520565b62ffffff16901b9150509392505050565b600073ffffffffffffffffffffffffffffffffffffffff83169250814260a01b178317905092915050565b50505050565b60006110e983610eab565b905060008190506000806110fc86610f79565b915091508415611165576111188184611113610e9e565b610fa0565b6111645761112d83611128610e9e565b610dab565b611163576040517f59c896be00000000000000000000000000000000000000000000000000000000815260040160405180910390fd5b5b5b611173836000886001610fe4565b801561117e57600082555b600160806001901b03600560008573ffffffffffffffffffffffffffffffffffffffff1673ffffffffffffffffffffffffffffffffffffffff16815260200190815260200160002060008282540192505081905550611226836111e385600088611085565b7c02000000000000000000000000000000000000000000000000000000007c010000000000000000000000000000000000000000000000000000000017176110ad565b600460008881526020019081526020016000208190555060007c0200000000000000000000000000000000000000000000000000000000851614156112ae5760006001870190506000600460008381526020019081526020016000205414156112ac5760005481146112ab578460046000838152602001908152602001600020819055505b5b505b85600073ffffffffffffffffffffffffffffffffffffffff168473ffffffffffffffffffffffffffffffffffffffff167fddf252ad1be2c89b69c2b068fc378daa952ba7f163c4a11628f55a4df523b3ef60405160405180910390a46113188360008860016110d8565b600160008154809291906001019190505550505050505050565b61134c828260405180602001604052806000815250611529565b5050565b60008373ffffffffffffffffffffffffffffffffffffffff1663150b7a02611376610e9e565b8786866040518563ffffffff1660e01b81526004016113989493929190611bc5565b602060405180830381600087803b1580156113b257600080fd5b505af19250505080156113e357506040513d601f19601f820116820180604052508101906113e09190611a5c565b60015b61145d573d8060008114611413576040519150601f19603f3d011682016040523d82523d6000602084013e611418565b606091505b50600081511415611455576040517fd1a57ed600000000000000000000000000000000000000000000000000000000815260040160405180910390fd5b805181602001fd5b63150b7a0260e01b7bffffffffffffffffffffffffffffffffffffffffffffffffffffffff1916817bffffffffffffffffffffffffffffffffffffffffffffffffffffffff191614915050949350505050565b606060405180602001604052806000815250905090565b606060a060405101806040526020810391506000825281835b60011561150b57600184039350600a81066030018453600a81049050806115065761150b565b6114e0565b50828103602084039350808452505050919050565b60009392505050565b61153383836115c6565b60008373ffffffffffffffffffffffffffffffffffffffff163b146115c157600080549050600083820390505b6115736000868380600101945086611350565b6115a9576040517fd1a57ed600000000000000000000000000000000000000000000000000000000815260040160405180910390fd5b8181106115605781600054146115be57600080fd5b50505b505050565b6000805490506000821415611607576040517fb562e8dd00000000000000000000000000000000000000000000000000000000815260040160405180910390fd5b6116146000848385610fe4565b600160406001901b178202600560008573ffffffffffffffffffffffffffffffffffffffff1673ffffffffffffffffffffffffffffffffffffffff1681526020019081526020016000206000828254019250508190555061168b8361167c6000866000611085565b61168585611783565b176110ad565b6004600083815260200190815260200160002081905550600080838301905073ffffffffffffffffffffffffffffffffffffffff85169150828260007fddf252ad1be2c89b69c2b068fc378daa952ba7f163c4a11628f55a4df523b3ef600080a4600183015b81811461172c57808360007fddf252ad1be2c89b69c2b068fc378daa952ba7f163c4a11628f55a4df523b3ef600080a46001810190506116f1565b506000821415611768576040517f2e07630000000000000000000000000000000000000000000000000000000000815260040160405180910390fd5b80600081905550505061177e60008483856110d8565b505050565b60006001821460e11b9050919050565b60006117a66117a184611c8e565b611c69565b9050828152602081018484840111156117c2576117c1611e7e565b5b6117cd848285611d76565b509392505050565b6000813590506117e481611e9e565b92915050565b6000813590506117f981611eb5565b92915050565b60008135905061180e81611ecc565b92915050565b60008151905061182381611ecc565b92915050565b600082601f83011261183e5761183d611e79565b5b813561184e848260208601611793565b91505092915050565b60008135905061186681611ee3565b92915050565b60006020828403121561188257611881611e88565b5b6000611890848285016117d5565b91505092915050565b600080604083850312156118b0576118af611e88565b5b60006118be858286016117d5565b92505060206118cf858286016117d5565b9150509250929050565b6000806000606084860312156118f2576118f1611e88565b5b6000611900868287016117d5565b9350506020611911868287016117d5565b925050604061192286828701611857565b9150509250925092565b6000806000806080858703121561194657611945611e88565b5b6000611954878288016117d5565b9450506020611965878288016117d5565b935050604061197687828801611857565b925050606085013567ffffffffffffffff81111561199757611996611e83565b5b6119a387828801611829565b91505092959194509250565b600080604083850312156119c6576119c5611e88565b5b60006119d4858286016117d5565b92505060206119e5858286016117ea565b9150509250929050565b60008060408385031215611a0657611a05611e88565b5b6000611a14858286016117d5565b9250506020611a2585828601611857565b9150509250929050565b600060208284031215611a4557611a44611e88565b5b6000611a53848285016117ff565b91505092915050565b600060208284031215611a7257611a71611e88565b5b6000611a8084828501611814565b91505092915050565b600060208284031215611a9f57611a9e611e88565b5b6000611aad84828501611857565b91505092915050565b611abf81611d02565b82525050565b611ace81611d14565b82525050565b6000611adf82611cbf565b611ae98185611cd5565b9350611af9818560208601611d85565b611b0281611e8d565b840191505092915050565b6000611b1882611cca565b611b228185611ce6565b9350611b32818560208601611d85565b611b3b81611e8d565b840191505092915050565b6000611b5182611cca565b611b5b8185611cf7565b9350611b6b818560208601611d85565b80840191505092915050565b611b8081611d6c565b82525050565b6000611b928285611b46565b9150611b9e8284611b46565b91508190509392505050565b6000602082019050611bbf6000830184611ab6565b92915050565b6000608082019050611bda6000830187611ab6565b611be76020830186611ab6565b611bf46040830185611b77565b8181036060830152611c068184611ad4565b905095945050505050565b6000602082019050611c266000830184611ac5565b92915050565b60006020820190508181036000830152611c468184611b0d565b905092915050565b6000602082019050611c636000830184611b77565b92915050565b6000611c73611c84565b9050611c7f8282611dea565b919050565b6000604051905090565b600067ffffffffffffffff821115611ca957611ca8611e4a565b5b611cb282611e8d565b9050602081019050919050565b600081519050919050565b600081519050919050565b600082825260208201905092915050565b600082825260208201905092915050565b600081905092915050565b6000611d0d82611d4c565b9050919050565b60008115159050919050565b60007fffffffff0000000000000000000000000000000000000000000000000000000082169050919050565b600073ffffffffffffffffffffffffffffffffffffffff82169050919050565b6000819050919050565b82818337600083830152505050565b60005b83811015611da3578082015181840152602081019050611d88565b83811115611db2576000848401525b50505050565b60006002820490506001821680611dd057607f821691505b60208210811415611de457611de3611e1b565b5b50919050565b611df382611e8d565b810181811067ffffffffffffffff82111715611e1257611e11611e4a565b5b80604052505050565b7f4e487b7100000000000000000000000000000000000000000000000000000000600052602260045260246000fd5b7f4e487b7100000000000000000000000000000000000000000000000000000000600052604160045260246000fd5b600080fd5b600080fd5b600080fd5b600080fd5b6000601f19601f8301169050919050565b611ea781611d02565b8114611eb257600080fd5b50565b611ebe81611d14565b8114611ec957600080fd5b50565b611ed581611d20565b8114611ee057600080fd5b50565b611eec81611d6c565b8114611ef757600080fd5b5056fea264697066735822122015dba09d0774ca248769b7e8b6ccb3079434ed70d5065d64fb324e3e5c5ea53964736f6c63430008070033",
					"opcodes": "PUSH1 0x80 PUSH1 0x40 MSTORE CALLVALUE DUP1 ISZERO PUSH3 0x11 JUMPI PUSH1 0x0 DUP1 REVERT JUMPDEST POP PUSH1 0x40 MLOAD PUSH3 0x2307 CODESIZE SUB DUP1 PUSH3 0x2307 DUP4 CODECOPY DUP2 DUP2 ADD PUSH1 0x40 MSTORE DUP2 ADD SWAP1 PUSH3 0x37 SWAP2 SWAP1 PUSH3 0x1BE JUMP JUMPDEST DUP2 DUP2 DUP2 PUSH1 0x2 SWAP1 DUP1 MLOAD SWAP1 PUSH1 0x20 ADD SWAP1 PUSH3 0x51 SWAP3 SWAP2 SWAP1 PUSH3 0x90 JUMP JUMPDEST POP DUP1 PUSH1 0x3 SWAP1 DUP1 MLOAD SWAP1 PUSH1 0x20 ADD SWAP1 PUSH3 0x6A SWAP3 SWAP2 SWAP1 PUSH3 0x90 JUMP JUMPDEST POP PUSH3 0x7B PUSH3 0x8B PUSH1 0x20 SHL PUSH1 0x20 SHR JUMP JUMPDEST PUSH1 0x0 DUP2 SWAP1 SSTORE POP POP POP POP POP PUSH3 0x3C7 JUMP JUMPDEST PUSH1 0x0 SWAP1 JUMP JUMPDEST DUP3 DUP1 SLOAD PUSH3 0x9E SWAP1 PUSH3 0x2D8 JUMP JUMPDEST SWAP1 PUSH1 0x0 MSTORE PUSH1 0x20 PUSH1 0x0 KECCAK256 SWAP1 PUSH1 0x1F ADD PUSH1 0x20 SWAP1 DIV DUP2 ADD SWAP3 DUP3 PUSH3 0xC2 JUMPI PUSH1 0x0 DUP6 SSTORE PUSH3 0x10E JUMP JUMPDEST DUP3 PUSH1 0x1F LT PUSH3 0xDD JUMPI DUP1 MLOAD PUSH1 0xFF NOT AND DUP4 DUP1 ADD OR DUP6 SSTORE PUSH3 0x10E JUMP JUMPDEST DUP3 DUP1 ADD PUSH1 0x1 ADD DUP6 SSTORE DUP3 ISZERO PUSH3 0x10E JUMPI SWAP2 DUP3 ADD JUMPDEST DUP3 DUP2 GT ISZERO PUSH3 0x10D JUMPI DUP3 MLOAD DUP3 SSTORE SWAP2 PUSH1 0x20 ADD SWAP2 SWAP1 PUSH1 0x1 ADD SWAP1 PUSH3 0xF0 JUMP JUMPDEST JUMPDEST POP SWAP1 POP PUSH3 0x11D SWAP2 SWAP1 PUSH3 0x121 JUMP JUMPDEST POP SWAP1 JUMP JUMPDEST JUMPDEST DUP1 DUP3 GT ISZERO PUSH3 0x13C JUMPI PUSH1 0x0 DUP2 PUSH1 0x0 SWAP1 SSTORE POP PUSH1 0x1 ADD PUSH3 0x122 JUMP JUMPDEST POP SWAP1 JUMP JUMPDEST PUSH1 0x0 PUSH3 0x157 PUSH3 0x151 DUP5 PUSH3 0x26C JUMP JUMPDEST PUSH3 0x243 JUMP JUMPDEST SWAP1 POP DUP3 DUP2 MSTORE PUSH1 0x20 DUP2 ADD DUP5 DUP5 DUP5 ADD GT ISZERO PUSH3 0x176 JUMPI PUSH3 0x175 PUSH3 0x3A7 JUMP JUMPDEST JUMPDEST PUSH3 0x183 DUP5 DUP3 DUP6 PUSH3 0x2A2 JUMP JUMPDEST POP SWAP4 SWAP3 POP POP POP JUMP JUMPDEST PUSH1 0x0 DUP3 PUSH1 0x1F DUP4 ADD SLT PUSH3 0x1A3 JUMPI PUSH3 0x1A2 PUSH3 0x3A2 JUMP JUMPDEST JUMPDEST DUP2 MLOAD PUSH3 0x1B5 DUP5 DUP3 PUSH1 0x20 DUP7 ADD PUSH3 0x140 JUMP JUMPDEST SWAP2 POP POP SWAP3 SWAP2 POP POP JUMP JUMPDEST PUSH1 0x0 DUP1 PUSH1 0x40 DUP4 DUP6 SUB SLT ISZERO PUSH3 0x1D8 JUMPI PUSH3 0x1D7 PUSH3 0x3B1 JUMP JUMPDEST JUMPDEST PUSH1 0x0 DUP4 ADD MLOAD PUSH8 0xFFFFFFFFFFFFFFFF DUP2 GT ISZERO PUSH3 0x1F9 JUMPI PUSH3 0x1F8 PUSH3 0x3AC JUMP JUMPDEST JUMPDEST PUSH3 0x207 DUP6 DUP3 DUP7 ADD PUSH3 0x18B JUMP JUMPDEST SWAP3 POP POP PUSH1 0x20 DUP4 ADD MLOAD PUSH8 0xFFFFFFFFFFFFFFFF DUP2 GT ISZERO PUSH3 0x22B JUMPI PUSH3 0x22A PUSH3 0x3AC JUMP JUMPDEST JUMPDEST PUSH3 0x239 DUP6 DUP3 DUP7 ADD PUSH3 0x18B JUMP JUMPDEST SWAP2 POP POP SWAP3 POP SWAP3 SWAP1 POP JUMP JUMPDEST PUSH1 0x0 PUSH3 0x24F PUSH3 0x262 JUMP JUMPDEST SWAP1 POP PUSH3 0x25D DUP3 DUP3 PUSH3 0x30E JUMP JUMPDEST SWAP2 SWAP1 POP JUMP JUMPDEST PUSH1 0x0 PUSH1 0x40 MLOAD SWAP1 POP SWAP1 JUMP JUMPDEST PUSH1 0x0 PUSH8 0xFFFFFFFFFFFFFFFF DUP3 GT ISZERO PUSH3 0x28A JUMPI PUSH3 0x289 PUSH3 0x373 JUMP JUMPDEST JUMPDEST PUSH3 0x295 DUP3 PUSH3 0x3B6 JUMP JUMPDEST SWAP1 POP PUSH1 0x20 DUP2 ADD SWAP1 POP SWAP2 SWAP1 POP JUMP JUMPDEST PUSH1 0x0 JUMPDEST DUP4 DUP2 LT ISZERO PUSH3 0x2C2 JUMPI DUP1 DUP3 ADD MLOAD DUP2 DUP5 ADD MSTORE PUSH1 0x20 DUP2 ADD SWAP1 POP PUSH3 0x2A5 JUMP JUMPDEST DUP4 DUP2 GT ISZERO PUSH3 0x2D2 JUMPI PUSH1 0x0 DUP5 DUP5 ADD MSTORE JUMPDEST POP POP POP POP JUMP JUMPDEST PUSH1 0x0 PUSH1 0x2 DUP3 DIV SWAP1 POP PUSH1 0x1 DUP3 AND DUP1 PUSH3 0x2F1 JUMPI PUSH1 0x7F DUP3 AND SWAP2 POP JUMPDEST PUSH1 0x20 DUP3 LT DUP2 EQ ISZERO PUSH3 0x308 JUMPI PUSH3 0x307 PUSH3 0x344 JUMP JUMPDEST JUMPDEST POP SWAP2 SWAP1 POP JUMP JUMPDEST PUSH3 0x319 DUP3 PUSH3 0x3B6 JUMP JUMPDEST DUP2 ADD DUP2 DUP2 LT PUSH8 0xFFFFFFFFFFFFFFFF DUP3 GT OR ISZERO PUSH3 0x33B JUMPI PUSH3 0x33A PUSH3 0x373 JUMP JUMPDEST JUMPDEST DUP1 PUSH1 0x40 MSTORE POP POP POP JUMP JUMPDEST PUSH32 0x4E487B7100000000000000000000000000000000000000000000000000000000 PUSH1 0x0 MSTORE PUSH1 0x22 PUSH1 0x4 MSTORE PUSH1 0x24 PUSH1 0x0 REVERT JUMPDEST PUSH32 0x4E487B7100000000000000000000000000000000000000000000000000000000 PUSH1 0x0 MSTORE PUSH1 0x41 PUSH1 0x4 MSTORE PUSH1 0x24 PUSH1 0x0 REVERT JUMPDEST PUSH1 0x0 DUP1 REVERT JUMPDEST PUSH1 0x0 DUP1 REVERT JUMPDEST PUSH1 0x0 DUP1 REVERT JUMPDEST PUSH1 0x0 DUP1 REVERT JUMPDEST PUSH1 0x0 PUSH1 0x1F NOT PUSH1 0x1F DUP4 ADD AND SWAP1 POP SWAP2 SWAP1 POP JUMP JUMPDEST PUSH2 0x1F30 DUP1 PUSH3 0x3D7 PUSH1 0x0 CODECOPY PUSH1 0x0 RETURN INVALID PUSH1 0x80 PUSH1 0x40 MSTORE PUSH1 0x4 CALLDATASIZE LT PUSH2 0xF3 JUMPI PUSH1 0x0 CALLDATALOAD PUSH1 0xE0 SHR DUP1 PUSH4 0x6352211E GT PUSH2 0x8A JUMPI DUP1 PUSH4 0xA22CB465 GT PUSH2 0x59 JUMPI DUP1 PUSH4 0xA22CB465 EQ PUSH2 0x313 JUMPI DUP1 PUSH4 0xB88D4FDE EQ PUSH2 0x33C JUMPI DUP1 PUSH4 0xC87B56DD EQ PUSH2 0x358 JUMPI DUP1 PUSH4 0xE985E9C5 EQ PUSH2 0x395 JUMPI PUSH2 0xF3 JUMP JUMPDEST DUP1 PUSH4 0x6352211E EQ PUSH2 0x245 JUMPI DUP1 PUSH4 0x70A08231 EQ PUSH2 0x282 JUMPI DUP1 PUSH4 0x95D89B41 EQ PUSH2 0x2BF JUMPI DUP1 PUSH4 0xA1448194 EQ PUSH2 0x2EA JUMPI PUSH2 0xF3 JUMP JUMPDEST DUP1 PUSH4 0x18160DDD GT PUSH2 0xC6 JUMPI DUP1 PUSH4 0x18160DDD EQ PUSH2 0x1B9 JUMPI DUP1 PUSH4 0x23B872DD EQ PUSH2 0x1E4 JUMPI DUP1 PUSH4 0x42842E0E EQ PUSH2 0x200 JUMPI DUP1 PUSH4 0x42966C68 EQ PUSH2 0x21C JUMPI PUSH2 0xF3 JUMP JUMPDEST DUP1 PUSH4 0x1FFC9A7 EQ PUSH2 0xF8 JUMPI DUP1 PUSH4 0x6FDDE03 EQ PUSH2 0x135 JUMPI DUP1 PUSH4 0x81812FC EQ PUSH2 0x160 JUMPI DUP1 PUSH4 0x95EA7B3 EQ PUSH2 0x19D JUMPI JUMPDEST PUSH1 0x0 DUP1 REVERT JUMPDEST CALLVALUE DUP1 ISZERO PUSH2 0x104 JUMPI PUSH1 0x0 DUP1 REVERT JUMPDEST POP PUSH2 0x11F PUSH1 0x4 DUP1 CALLDATASIZE SUB DUP2 ADD SWAP1 PUSH2 0x11A SWAP2 SWAP1 PUSH2 0x1A2F JUMP JUMPDEST PUSH2 0x3D2 JUMP JUMPDEST PUSH1 0x40 MLOAD PUSH2 0x12C SWAP2 SWAP1 PUSH2 0x1C11 JUMP JUMPDEST PUSH1 0x40 MLOAD DUP1 SWAP2 SUB SWAP1 RETURN JUMPDEST CALLVALUE DUP1 ISZERO PUSH2 0x141 JUMPI PUSH1 0x0 DUP1 REVERT JUMPDEST POP PUSH2 0x14A PUSH2 0x464 JUMP JUMPDEST PUSH1 0x40 MLOAD PUSH2 0x157 SWAP2 SWAP1 PUSH2 0x1C2C JUMP JUMPDEST PUSH1 0x40 MLOAD DUP1 SWAP2 SUB SWAP1 RETURN JUMPDEST CALLVALUE DUP1 ISZERO PUSH2 0x16C JUMPI PUSH1 0x0 DUP1 REVERT JUMPDEST POP PUSH2 0x187 PUSH1 0x4 DUP1 CALLDATASIZE SUB DUP2 ADD SWAP1 PUSH2 0x182 SWAP2 SWAP1 PUSH2 0x1A89 JUMP JUMPDEST PUSH2 0x4F6 JUMP JUMPDEST PUSH1 0x40 MLOAD PUSH2 0x194 SWAP2 SWAP1 PUSH2 0x1BAA JUMP JUMPDEST PUSH1 0x40 MLOAD DUP1 SWAP2 SUB SWAP1 RETURN JUMPDEST PUSH2 0x1B7 PUSH1 0x4 DUP1 CALLDATASIZE SUB DUP2 ADD SWAP1 PUSH2 0x1B2 SWAP2 SWAP1 PUSH2 0x19EF JUMP JUMPDEST PUSH2 0x575 JUMP JUMPDEST STOP JUMPDEST CALLVALUE DUP1 ISZERO PUSH2 0x1C5 JUMPI PUSH1 0x0 DUP1 REVERT JUMPDEST POP PUSH2 0x1CE PUSH2 0x6B9 JUMP JUMPDEST PUSH1 0x40 MLOAD PUSH2 0x1DB SWAP2 SWAP1 PUSH2 0x1C4E JUMP JUMPDEST PUSH1 0x40 MLOAD DUP1 SWAP2 SUB SWAP1 RETURN JUMPDEST PUSH2 0x1FE PUSH1 0x4 DUP1 CALLDATASIZE SUB DUP2 ADD SWAP1 PUSH2 0x1F9 SWAP2 SWAP1 PUSH2 0x18D9 JUMP JUMPDEST PUSH2 0x6D0 JUMP JUMPDEST STOP JUMPDEST PUSH2 0x21A PUSH1 0x4 DUP1 CALLDATASIZE SUB DUP2 ADD SWAP1 PUSH2 0x215 SWAP2 SWAP1 PUSH2 0x18D9 JUMP JUMPDEST PUSH2 0x9F5 JUMP JUMPDEST STOP JUMPDEST CALLVALUE DUP1 ISZERO PUSH2 0x228 JUMPI PUSH1 0x0 DUP1 REVERT JUMPDEST POP PUSH2 0x243 PUSH1 0x4 DUP1 CALLDATASIZE SUB DUP2 ADD SWAP1 PUSH2 0x23E SWAP2 SWAP1 PUSH2 0x1A89 JUMP JUMPDEST PUSH2 0xA15 JUMP JUMPDEST STOP JUMPDEST CALLVALUE DUP1 ISZERO PUSH2 0x251 JUMPI PUSH1 0x0 DUP1 REVERT JUMPDEST POP PUSH2 0x26C PUSH1 0x4 DUP1 CALLDATASIZE SUB DUP2 ADD SWAP1 PUSH2 0x267 SWAP2 SWAP1 PUSH2 0x1A89 JUMP JUMPDEST PUSH2 0xA23 JUMP JUMPDEST PUSH1 0x40 MLOAD PUSH2 0x279 SWAP2 SWAP1 PUSH2 0x1BAA JUMP JUMPDEST PUSH1 0x40 MLOAD DUP1 SWAP2 SUB SWAP1 RETURN JUMPDEST CALLVALUE DUP1 ISZERO PUSH2 0x28E JUMPI PUSH1 0x0 DUP1 REVERT JUMPDEST POP PUSH2 0x2A9 PUSH1 0x4 DUP1 CALLDATASIZE SUB DUP2 ADD SWAP1 PUSH2 0x2A4 SWAP2 SWAP1 PUSH2 0x186C JUMP JUMPDEST PUSH2 0xA35 JUMP JUMPDEST PUSH1 0x40 MLOAD PUSH2 0x2B6 SWAP2 SWAP1 PUSH2 0x1C4E JUMP JUMPDEST PUSH1 0x40 MLOAD DUP1 SWAP2 SUB SWAP1 RETURN JUMPDEST CALLVALUE DUP1 ISZERO PUSH2 0x2CB JUMPI PUSH1 0x0 DUP1 REVERT JUMPDEST POP PUSH2 0x2D4 PUSH2 0xAEE JUMP JUMPDEST PUSH1 0x40 MLOAD PUSH2 0x2E1 SWAP2 SWAP1 PUSH2 0x1C2C JUMP JUMPDEST PUSH1 0x40 MLOAD DUP1 SWAP2 SUB SWAP1 RETURN JUMPDEST CALLVALUE DUP1 ISZERO PUSH2 0x2F6 JUMPI PUSH1 0x0 DUP1 REVERT JUMPDEST POP PUSH2 0x311 PUSH1 0x4 DUP1 CALLDATASIZE SUB DUP2 ADD SWAP1 PUSH2 0x30C SWAP2 SWAP1 PUSH2 0x19EF JUMP JUMPDEST PUSH2 0xB80 JUMP JUMPDEST STOP JUMPDEST CALLVALUE DUP1 ISZERO PUSH2 0x31F JUMPI PUSH1 0x0 DUP1 REVERT JUMPDEST POP PUSH2 0x33A PUSH1 0x4 DUP1 CALLDATASIZE SUB DUP2 ADD SWAP1 PUSH2 0x335 SWAP2 SWAP1 PUSH2 0x19AF JUMP JUMPDEST PUSH2 0xB8E JUMP JUMPDEST STOP JUMPDEST PUSH2 0x356 PUSH1 0x4 DUP1 CALLDATASIZE SUB DUP2 ADD SWAP1 PUSH2 0x351 SWAP2 SWAP1 PUSH2 0x192C JUMP JUMPDEST PUSH2 0xC99 JUMP JUMPDEST STOP JUMPDEST CALLVALUE DUP1 ISZERO PUSH2 0x364 JUMPI PUSH1 0x0 DUP1 REVERT JUMPDEST POP PUSH2 0x37F PUSH1 0x4 DUP1 CALLDATASIZE SUB DUP2 ADD SWAP1 PUSH2 0x37A SWAP2 SWAP1 PUSH2 0x1A89 JUMP JUMPDEST PUSH2 0xD0C JUMP JUMPDEST PUSH1 0x40 MLOAD PUSH2 0x38C SWAP2 SWAP1 PUSH2 0x1C2C JUMP JUMPDEST PUSH1 0x40 MLOAD DUP1 SWAP2 SUB SWAP1 RETURN JUMPDEST CALLVALUE DUP1 ISZERO PUSH2 0x3A1 JUMPI PUSH1 0x0 DUP1 REVERT JUMPDEST POP PUSH2 0x3BC PUSH1 0x4 DUP1 CALLDATASIZE SUB DUP2 ADD SWAP1 PUSH2 0x3B7 SWAP2 SWAP1 PUSH2 0x1899 JUMP JUMPDEST PUSH2 0xDAB JUMP JUMPDEST PUSH1 0x40 MLOAD PUSH2 0x3C9 SWAP2 SWAP1 PUSH2 0x1C11 JUMP JUMPDEST PUSH1 0x40 MLOAD DUP1 SWAP2 SUB SWAP1 RETURN JUMPDEST PUSH1 0x0 PUSH4 0x1FFC9A7 PUSH1 0xE0 SHL DUP3 PUSH28 0xFFFFFFFFFFFFFFFFFFFFFFFFFFFFFFFFFFFFFFFFFFFFFFFFFFFFFFFF NOT AND EQ DUP1 PUSH2 0x42D JUMPI POP PUSH4 0x80AC58CD PUSH1 0xE0 SHL DUP3 PUSH28 0xFFFFFFFFFFFFFFFFFFFFFFFFFFFFFFFFFFFFFFFFFFFFFFFFFFFFFFFF NOT AND EQ JUMPDEST DUP1 PUSH2 0x45D JUMPI POP PUSH4 0x5B5E139F PUSH1 0xE0 SHL DUP3 PUSH28 0xFFFFFFFFFFFFFFFFFFFFFFFFFFFFFFFFFFFFFFFFFFFFFFFFFFFFFFFF NOT AND EQ JUMPDEST SWAP1 POP SWAP2 SWAP1 POP JUMP JUMPDEST PUSH1 0x60 PUSH1 0x2 DUP1 SLOAD PUSH2 0x473 SWAP1 PUSH2 0x1DB8 JUMP JUMPDEST DUP1 PUSH1 0x1F ADD PUSH1 0x20 DUP1 SWAP2 DIV MUL PUSH1 0x20 ADD PUSH1 0x40 MLOAD SWAP1 DUP2 ADD PUSH1 0x40 MSTORE DUP1 SWAP3 SWAP2 SWAP1 DUP2 DUP2 MSTORE PUSH1 0x20 ADD DUP3 DUP1 SLOAD PUSH2 0x49F SWAP1 PUSH2 0x1DB8 JUMP JUMPDEST DUP1 ISZERO PUSH2 0x4EC JUMPI DUP1 PUSH1 0x1F LT PUSH2 0x4C1 JUMPI PUSH2 0x100 DUP1 DUP4 SLOAD DIV MUL DUP4 MSTORE SWAP2 PUSH1 0x20 ADD SWAP2 PUSH2 0x4EC JUMP JUMPDEST DUP3 ADD SWAP2 SWAP1 PUSH1 0x0 MSTORE PUSH1 0x20 PUSH1 0x0 KECCAK256 SWAP1 JUMPDEST DUP2 SLOAD DUP2 MSTORE SWAP1 PUSH1 0x1 ADD SWAP1 PUSH1 0x20 ADD DUP1 DUP4 GT PUSH2 0x4CF JUMPI DUP3 SWAP1 SUB PUSH1 0x1F AND DUP3 ADD SWAP2 JUMPDEST POP POP POP POP POP SWAP1 POP SWAP1 JUMP JUMPDEST PUSH1 0x0 PUSH2 0x501 DUP3 PUSH2 0xE3F JUMP JUMPDEST PUSH2 0x537 JUMPI PUSH1 0x40 MLOAD PUSH32 0xCF4700E400000000000000000000000000000000000000000000000000000000 DUP2 MSTORE PUSH1 0x4 ADD PUSH1 0x40 MLOAD DUP1 SWAP2 SUB SWAP1 REVERT JUMPDEST PUSH1 0x6 PUSH1 0x0 DUP4 DUP2 MSTORE PUSH1 0x20 ADD SWAP1 DUP2 MSTORE PUSH1 0x20 ADD PUSH1 0x0 KECCAK256 PUSH1 0x0 ADD PUSH1 0x0 SWAP1 SLOAD SWAP1 PUSH2 0x100 EXP SWAP1 DIV PUSH20 0xFFFFFFFFFFFFFFFFFFFFFFFFFFFFFFFFFFFFFFFF AND SWAP1 POP SWAP2 SWAP1 POP JUMP JUMPDEST PUSH1 0x0 PUSH2 0x580 DUP3 PUSH2 0xA23 JUMP JUMPDEST SWAP1 POP DUP1 PUSH20 0xFFFFFFFFFFFFFFFFFFFFFFFFFFFFFFFFFFFFFFFF AND PUSH2 0x5A1 PUSH2 0xE9E JUMP JUMPDEST PUSH20 0xFFFFFFFFFFFFFFFFFFFFFFFFFFFFFFFFFFFFFFFF AND EQ PUSH2 0x604 JUMPI PUSH2 0x5CD DUP2 PUSH2 0x5C8 PUSH2 0xE9E JUMP JUMPDEST PUSH2 0xDAB JUMP JUMPDEST PUSH2 0x603 JUMPI PUSH1 0x40 MLOAD PUSH32 0xCFB3B94200000000000000000000000000000000000000000000000000000000 DUP2 MSTORE PUSH1 0x4 ADD PUSH1 0x40 MLOAD DUP1 SWAP2 SUB SWAP1 REVERT JUMPDEST JUMPDEST DUP3 PUSH1 0x6 PUSH1 0x0 DUP5 DUP2 MSTORE PUSH1 0x20 ADD SWAP1 DUP2 MSTORE PUSH1 0x20 ADD PUSH1 0x0 KECCAK256 PUSH1 0x0 ADD PUSH1 0x0 PUSH2 0x100 EXP DUP2 SLOAD DUP2 PUSH20 0xFFFFFFFFFFFFFFFFFFFFFFFFFFFFFFFFFFFFFFFF MUL NOT AND SWAP1 DUP4 PUSH20 0xFFFFFFFFFFFFFFFFFFFFFFFFFFFFFFFFFFFFFFFF AND MUL OR SWAP1 SSTORE POP DUP2 DUP4 PUSH20 0xFFFFFFFFFFFFFFFFFFFFFFFFFFFFFFFFFFFFFFFF AND DUP3 PUSH20 0xFFFFFFFFFFFFFFFFFFFFFFFFFFFFFFFFFFFFFFFF AND PUSH32 0x8C5BE1E5EBEC7D5BD14F71427D1E84F3DD0314C0F7B2291E5B200AC8C7C3B925 PUSH1 0x40 MLOAD PUSH1 0x40 MLOAD DUP1 SWAP2 SUB SWAP1 LOG4 POP POP POP JUMP JUMPDEST PUSH1 0x0 PUSH2 0x6C3 PUSH2 0xEA6 JUMP JUMPDEST PUSH1 0x1 SLOAD PUSH1 0x0 SLOAD SUB SUB SWAP1 POP SWAP1 JUMP JUMPDEST PUSH1 0x0 PUSH2 0x6DB DUP3 PUSH2 0xEAB JUMP JUMPDEST SWAP1 POP DUP4 PUSH20 0xFFFFFFFFFFFFFFFFFFFFFFFFFFFFFFFFFFFFFFFF AND DUP2 PUSH20 0xFFFFFFFFFFFFFFFFFFFFFFFFFFFFFFFFFFFFFFFF AND EQ PUSH2 0x742 JUMPI PUSH1 0x40 MLOAD PUSH32 0xA114810000000000000000000000000000000000000000000000000000000000 DUP2 MSTORE PUSH1 0x4 ADD PUSH1 0x40 MLOAD DUP1 SWAP2 SUB SWAP1 REVERT JUMPDEST PUSH1 0x0 DUP1 PUSH2 0x74E DUP5 PUSH2 0xF79 JUMP JUMPDEST SWAP2 POP SWAP2 POP PUSH2 0x764 DUP2 DUP8 PUSH2 0x75F PUSH2 0xE9E JUMP JUMPDEST PUSH2 0xFA0 JUMP JUMPDEST PUSH2 0x7B0 JUMPI PUSH2 0x779 DUP7 PUSH2 0x774 PUSH2 0xE9E JUMP JUMPDEST PUSH2 0xDAB JUMP JUMPDEST PUSH2 0x7AF JUMPI PUSH1 0x40 MLOAD PUSH32 0x59C896BE00000000000000000000000000000000000000000000000000000000 DUP2 MSTORE PUSH1 0x4 ADD PUSH1 0x40 MLOAD DUP1 SWAP2 SUB SWAP1 REVERT JUMPDEST JUMPDEST PUSH1 0x0 PUSH20 0xFFFFFFFFFFFFFFFFFFFFFFFFFFFFFFFFFFFFFFFF AND DUP6 PUSH20 0xFFFFFFFFFFFFFFFFFFFFFFFFFFFFFFFFFFFFFFFF AND EQ ISZERO PUSH2 0x817 JUMPI PUSH1 0x40 MLOAD PUSH32 0xEA553B3400000000000000000000000000000000000000000000000000000000 DUP2 MSTORE PUSH1 0x4 ADD PUSH1 0x40 MLOAD DUP1 SWAP2 SUB SWAP1 REVERT JUMPDEST PUSH2 0x824 DUP7 DUP7 DUP7 PUSH1 0x1 PUSH2 0xFE4 JUMP JUMPDEST DUP1 ISZERO PUSH2 0x82F JUMPI PUSH1 0x0 DUP3 SSTORE JUMPDEST PUSH1 0x5 PUSH1 0x0 DUP8 PUSH20 0xFFFFFFFFFFFFFFFFFFFFFFFFFFFFFFFFFFFFFFFF AND PUSH20 0xFFFFFFFFFFFFFFFFFFFFFFFFFFFFFFFFFFFFFFFF AND DUP2 MSTORE PUSH1 0x20 ADD SWAP1 DUP2 MSTORE PUSH1 0x20 ADD PUSH1 0x0 KECCAK256 PUSH1 0x0 DUP2 SLOAD PUSH1 0x1 SWAP1 SUB SWAP2 SWAP1 POP DUP2 SWAP1 SSTORE POP PUSH1 0x5 PUSH1 0x0 DUP7 PUSH20 0xFFFFFFFFFFFFFFFFFFFFFFFFFFFFFFFFFFFFFFFF AND PUSH20 0xFFFFFFFFFFFFFFFFFFFFFFFFFFFFFFFFFFFFFFFF AND DUP2 MSTORE PUSH1 0x20 ADD SWAP1 DUP2 MSTORE PUSH1 0x20 ADD PUSH1 0x0 KECCAK256 PUSH1 0x0 DUP2 SLOAD PUSH1 0x1 ADD SWAP2 SWAP1 POP DUP2 SWAP1 SSTORE POP PUSH2 0x8FD DUP6 PUSH2 0x8D9 DUP9 DUP9 DUP8 PUSH2 0x1085 JUMP JUMPDEST PUSH29 0x200000000000000000000000000000000000000000000000000000000 OR PUSH2 0x10AD JUMP JUMPDEST PUSH1 0x4 PUSH1 0x0 DUP7 DUP2 MSTORE PUSH1 0x20 ADD SWAP1 DUP2 MSTORE PUSH1 0x20 ADD PUSH1 0x0 KECCAK256 DUP2 SWAP1 SSTORE POP PUSH1 0x0 PUSH29 0x200000000000000000000000000000000000000000000000000000000 DUP5 AND EQ ISZERO PUSH2 0x985 JUMPI PUSH1 0x0 PUSH1 0x1 DUP6 ADD SWAP1 POP PUSH1 0x0 PUSH1 0x4 PUSH1 0x0 DUP4 DUP2 MSTORE PUSH1 0x20 ADD SWAP1 DUP2 MSTORE PUSH1 0x20 ADD PUSH1 0x0 KECCAK256 SLOAD EQ ISZERO PUSH2 0x983 JUMPI PUSH1 0x0 SLOAD DUP2 EQ PUSH2 0x982 JUMPI DUP4 PUSH1 0x4 PUSH1 0x0 DUP4 DUP2 MSTORE PUSH1 0x20 ADD SWAP1 DUP2 MSTORE PUSH1 0x20 ADD PUSH1 0x0 KECCAK256 DUP2 SWAP1 SSTORE POP JUMPDEST JUMPDEST POP JUMPDEST DUP4 DUP6 PUSH20 0xFFFFFFFFFFFFFFFFFFFFFFFFFFFFFFFFFFFFFFFF AND DUP8 PUSH20 0xFFFFFFFFFFFFFFFFFFFFFFFFFFFFFFFFFFFFFFFF AND PUSH32 0xDDF252AD1BE2C89B69C2B068FC378DAA952BA7F163C4A11628F55A4DF523B3EF PUSH1 0x40 MLOAD PUSH1 0x40 MLOAD DUP1 SWAP2 SUB SWAP1 LOG4 PUSH2 0x9ED DUP7 DUP7 DUP7 PUSH1 0x1 PUSH2 0x10D8 JUMP JUMPDEST POP POP POP POP POP POP JUMP JUMPDEST PUSH2 0xA10 DUP4 DUP4 DUP4 PUSH1 0x40 MLOAD DUP1 PUSH1 0x20 ADD PUSH1 0x40 MSTORE DUP1 PUSH1 0x0 DUP2 MSTORE POP PUSH2 0xC99 JUMP JUMPDEST POP POP POP JUMP JUMPDEST PUSH2 0xA20 DUP2 PUSH1 0x1 PUSH2 0x10DE JUMP JUMPDEST POP JUMP JUMPDEST PUSH1 0x0 PUSH2 0xA2E DUP3 PUSH2 0xEAB JUMP JUMPDEST SWAP1 POP SWAP2 SWAP1 POP JUMP JUMPDEST PUSH1 0x0 DUP1 PUSH20 0xFFFFFFFFFFFFFFFFFFFFFFFFFFFFFFFFFFFFFFFF AND DUP3 PUSH20 0xFFFFFFFFFFFFFFFFFFFFFFFFFFFFFFFFFFFFFFFF AND EQ ISZERO PUSH2 0xA9D JUMPI PUSH1 0x40 MLOAD PUSH32 0x8F4EB60400000000000000000000000000000000000000000000000000000000 DUP2 MSTORE PUSH1 0x4 ADD PUSH1 0x40 MLOAD DUP1 SWAP2 SUB SWAP1 REVERT JUMPDEST PUSH8 0xFFFFFFFFFFFFFFFF PUSH1 0x5 PUSH1 0x0 DUP5 PUSH20 0xFFFFFFFFFFFFFFFFFFFFFFFFFFFFFFFFFFFFFFFF AND PUSH20 0xFFFFFFFFFFFFFFFFFFFFFFFFFFFFFFFFFFFFFFFF AND DUP2 MSTORE PUSH1 0x20 ADD SWAP1 DUP2 MSTORE PUSH1 0x20 ADD PUSH1 0x0 KECCAK256 SLOAD AND SWAP1 POP SWAP2 SWAP1 POP JUMP JUMPDEST PUSH1 0x60 PUSH1 0x3 DUP1 SLOAD PUSH2 0xAFD SWAP1 PUSH2 0x1DB8 JUMP JUMPDEST DUP1 PUSH1 0x1F ADD PUSH1 0x20 DUP1 SWAP2 DIV MUL PUSH1 0x20 ADD PUSH1 0x40 MLOAD SWAP1 DUP2 ADD PUSH1 0x40 MSTORE DUP1 SWAP3 SWAP2 SWAP1 DUP2 DUP2 MSTORE PUSH1 0x20 ADD DUP3 DUP1 SLOAD PUSH2 0xB29 SWAP1 PUSH2 0x1DB8 JUMP JUMPDEST DUP1 ISZERO PUSH2 0xB76 JUMPI DUP1 PUSH1 0x1F LT PUSH2 0xB4B JUMPI PUSH2 0x100 DUP1 DUP4 SLOAD DIV MUL DUP4 MSTORE SWAP2 PUSH1 0x20 ADD SWAP2 PUSH2 0xB76 JUMP JUMPDEST DUP3 ADD SWAP2 SWAP1 PUSH1 0x0 MSTORE PUSH1 0x20 PUSH1 0x0 KECCAK256 SWAP1 JUMPDEST DUP2 SLOAD DUP2 MSTORE SWAP1 PUSH1 0x1 ADD SWAP1 PUSH1 0x20 ADD DUP1 DUP4 GT PUSH2 0xB59 JUMPI DUP3 SWAP1 SUB PUSH1 0x1F AND DUP3 ADD SWAP2 JUMPDEST POP POP POP POP POP SWAP1 POP SWAP1 JUMP JUMPDEST PUSH2 0xB8A DUP3 DUP3 PUSH2 0x1332 JUMP JUMPDEST POP POP JUMP JUMPDEST DUP1 PUSH1 0x7 PUSH1 0x0 PUSH2 0xB9B PUSH2 0xE9E JUMP JUMPDEST PUSH20 0xFFFFFFFFFFFFFFFFFFFFFFFFFFFFFFFFFFFFFFFF AND PUSH20 0xFFFFFFFFFFFFFFFFFFFFFFFFFFFFFFFFFFFFFFFF AND DUP2 MSTORE PUSH1 0x20 ADD SWAP1 DUP2 MSTORE PUSH1 0x20 ADD PUSH1 0x0 KECCAK256 PUSH1 0x0 DUP5 PUSH20 0xFFFFFFFFFFFFFFFFFFFFFFFFFFFFFFFFFFFFFFFF AND PUSH20 0xFFFFFFFFFFFFFFFFFFFFFFFFFFFFFFFFFFFFFFFF AND DUP2 MSTORE PUSH1 0x20 ADD SWAP1 DUP2 MSTORE PUSH1 0x20 ADD PUSH1 0x0 KECCAK256 PUSH1 0x0 PUSH2 0x100 EXP DUP2 SLOAD DUP2 PUSH1 0xFF MUL NOT AND SWAP1 DUP4 ISZERO ISZERO MUL OR SWAP1 SSTORE POP DUP2 PUSH20 0xFFFFFFFFFFFFFFFFFFFFFFFFFFFFFFFFFFFFFFFF AND PUSH2 0xC48 PUSH2 0xE9E JUMP JUMPDEST PUSH20 0xFFFFFFFFFFFFFFFFFFFFFFFFFFFFFFFFFFFFFFFF AND PUSH32 0x17307EAB39AB6107E8899845AD3D59BD9653F200F220920489CA2B5937696C31 DUP4 PUSH1 0x40 MLOAD PUSH2 0xC8D SWAP2 SWAP1 PUSH2 0x1C11 JUMP JUMPDEST PUSH1 0x40 MLOAD DUP1 SWAP2 SUB SWAP1 LOG3 POP POP JUMP JUMPDEST PUSH2 0xCA4 DUP5 DUP5 DUP5 PUSH2 0x6D0 JUMP JUMPDEST PUSH1 0x0 DUP4 PUSH20 0xFFFFFFFFFFFFFFFFFFFFFFFFFFFFFFFFFFFFFFFF AND EXTCODESIZE EQ PUSH2 0xD06 JUMPI PUSH2 0xCCF DUP5 DUP5 DUP5 DUP5 PUSH2 0x1350 JUMP JUMPDEST PUSH2 0xD05 JUMPI PUSH1 0x40 MLOAD PUSH32 0xD1A57ED600000000000000000000000000000000000000000000000000000000 DUP2 MSTORE PUSH1 0x4 ADD PUSH1 0x40 MLOAD DUP1 SWAP2 SUB SWAP1 REVERT JUMPDEST JUMPDEST POP POP POP POP JUMP JUMPDEST PUSH1 0x60 PUSH2 0xD17 DUP3 PUSH2 0xE3F JUMP JUMPDEST PUSH2 0xD4D JUMPI PUSH1 0x40 MLOAD PUSH32 0xA14C4B5000000000000000000000000000000000000000000000000000000000 DUP2 MSTORE PUSH1 0x4 ADD PUSH1 0x40 MLOAD DUP1 SWAP2 SUB SWAP1 REVERT JUMPDEST PUSH1 0x0 PUSH2 0xD57 PUSH2 0x14B0 JUMP JUMPDEST SWAP1 POP PUSH1 0x0 DUP2 MLOAD EQ ISZERO PUSH2 0xD78 JUMPI PUSH1 0x40 MLOAD DUP1 PUSH1 0x20 ADD PUSH1 0x40 MSTORE DUP1 PUSH1 0x0 DUP2 MSTORE POP PUSH2 0xDA3 JUMP JUMPDEST DUP1 PUSH2 0xD82 DUP5 PUSH2 0x14C7 JUMP JUMPDEST PUSH1 0x40 MLOAD PUSH1 0x20 ADD PUSH2 0xD93 SWAP3 SWAP2 SWAP1 PUSH2 0x1B86 JUMP JUMPDEST PUSH1 0x40 MLOAD PUSH1 0x20 DUP2 DUP4 SUB SUB DUP2 MSTORE SWAP1 PUSH1 0x40 MSTORE JUMPDEST SWAP2 POP POP SWAP2 SWAP1 POP JUMP JUMPDEST PUSH1 0x0 PUSH1 0x7 PUSH1 0x0 DUP5 PUSH20 0xFFFFFFFFFFFFFFFFFFFFFFFFFFFFFFFFFFFFFFFF AND PUSH20 0xFFFFFFFFFFFFFFFFFFFFFFFFFFFFFFFFFFFFFFFF AND DUP2 MSTORE PUSH1 0x20 ADD SWAP1 DUP2 MSTORE PUSH1 0x20 ADD PUSH1 0x0 KECCAK256 PUSH1 0x0 DUP4 PUSH20 0xFFFFFFFFFFFFFFFFFFFFFFFFFFFFFFFFFFFFFFFF AND PUSH20 0xFFFFFFFFFFFFFFFFFFFFFFFFFFFFFFFFFFFFFFFF AND DUP2 MSTORE PUSH1 0x20 ADD SWAP1 DUP2 MSTORE PUSH1 0x20 ADD PUSH1 0x0 KECCAK256 PUSH1 0x0 SWAP1 SLOAD SWAP1 PUSH2 0x100 EXP SWAP1 DIV PUSH1 0xFF AND SWAP1 POP SWAP3 SWAP2 POP POP JUMP JUMPDEST PUSH1 0x0 DUP2 PUSH2 0xE4A PUSH2 0xEA6 JUMP JUMPDEST GT ISZERO DUP1 ISZERO PUSH2 0xE59 JUMPI POP PUSH1 0x0 SLOAD DUP3 LT JUMPDEST DUP1 ISZERO PUSH2 0xE97 JUMPI POP PUSH1 0x0 PUSH29 0x100000000000000000000000000000000000000000000000000000000 PUSH1 0x4 PUSH1 0x0 DUP6 DUP2 MSTORE PUSH1 0x20 ADD SWAP1 DUP2 MSTORE PUSH1 0x20 ADD PUSH1 0x0 KECCAK256 SLOAD AND EQ JUMPDEST SWAP1 POP SWAP2 SWAP1 POP JUMP JUMPDEST PUSH1 0x0 CALLER SWAP1 POP SWAP1 JUMP JUMPDEST PUSH1 0x0 SWAP1 JUMP JUMPDEST PUSH1 0x0 DUP1 DUP3 SWAP1 POP DUP1 PUSH2 0xEBA PUSH2 0xEA6 JUMP JUMPDEST GT PUSH2 0xF42 JUMPI PUSH1 0x0 SLOAD DUP2 LT ISZERO PUSH2 0xF41 JUMPI PUSH1 0x0 PUSH1 0x4 PUSH1 0x0 DUP4 DUP2 MSTORE PUSH1 0x20 ADD SWAP1 DUP2 MSTORE PUSH1 0x20 ADD PUSH1 0x0 KECCAK256 SLOAD SWAP1 POP PUSH1 0x0 PUSH29 0x100000000000000000000000000000000000000000000000000000000 DUP3 AND EQ ISZERO PUSH2 0xF3F JUMPI JUMPDEST PUSH1 0x0 DUP2 EQ ISZERO PUSH2 0xF35 JUMPI PUSH1 0x4 PUSH1 0x0 DUP4 PUSH1 0x1 SWAP1 SUB SWAP4 POP DUP4 DUP2 MSTORE PUSH1 0x20 ADD SWAP1 DUP2 MSTORE PUSH1 0x20 ADD PUSH1 0x0 KECCAK256 SLOAD SWAP1 POP PUSH2 0xF0A JUMP JUMPDEST DUP1 SWAP3 POP POP POP PUSH2 0xF74 JUMP JUMPDEST POP JUMPDEST JUMPDEST PUSH1 0x40 MLOAD PUSH32 0xDF2D9B4200000000000000000000000000000000000000000000000000000000 DUP2 MSTORE PUSH1 0x4 ADD PUSH1 0x40 MLOAD DUP1 SWAP2 SUB SWAP1 REVERT JUMPDEST SWAP2 SWAP1 POP JUMP JUMPDEST PUSH1 0x0 DUP1 PUSH1 0x0 PUSH1 0x6 PUSH1 0x0 DUP6 DUP2 MSTORE PUSH1 0x20 ADD SWAP1 DUP2 MSTORE PUSH1 0x20 ADD PUSH1 0x0 KECCAK256 SWAP1 POP DUP1 SWAP3 POP DUP3 SLOAD SWAP2 POP POP SWAP2 POP SWAP2 JUMP JUMPDEST PUSH1 0x0 PUSH20 0xFFFFFFFFFFFFFFFFFFFFFFFFFFFFFFFFFFFFFFFF DUP4 AND SWAP3 POP PUSH20 0xFFFFFFFFFFFFFFFFFFFFFFFFFFFFFFFFFFFFFFFF DUP3 AND SWAP2 POP DUP4 DUP3 EQ DUP4 DUP4 EQ OR SWAP1 POP SWAP4 SWAP3 POP POP POP JUMP JUMPDEST PUSH1 0x0 PUSH20 0xFFFFFFFFFFFFFFFFFFFFFFFFFFFFFFFFFFFFFFFF AND DUP5 PUSH20 0xFFFFFFFFFFFFFFFFFFFFFFFFFFFFFFFFFFFFFFFF AND EQ PUSH2 0x107F JUMPI PUSH1 0x0 PUSH20 0xFFFFFFFFFFFFFFFFFFFFFFFFFFFFFFFFFFFFFFFF AND DUP4 PUSH20 0xFFFFFFFFFFFFFFFFFFFFFFFFFFFFFFFFFFFFFFFF AND EQ PUSH2 0x107E JUMPI PUSH1 0x40 MLOAD PUSH32 0x701EEB900000000000000000000000000000000000000000000000000000000 DUP2 MSTORE PUSH1 0x4 ADD PUSH1 0x40 MLOAD DUP1 SWAP2 SUB SWAP1 REVERT JUMPDEST JUMPDEST POP POP POP POP JUMP JUMPDEST PUSH1 0x0 DUP1 PUSH1 0xE8 DUP4 SWAP1 SHR SWAP1 POP PUSH1 0xE8 PUSH2 0x109C DUP7 DUP7 DUP5 PUSH2 0x1520 JUMP JUMPDEST PUSH3 0xFFFFFF AND SWAP1 SHL SWAP2 POP POP SWAP4 SWAP3 POP POP POP JUMP JUMPDEST PUSH1 0x0 PUSH20 0xFFFFFFFFFFFFFFFFFFFFFFFFFFFFFFFFFFFFFFFF DUP4 AND SWAP3 POP DUP2 TIMESTAMP PUSH1 0xA0 SHL OR DUP4 OR SWAP1 POP SWAP3 SWAP2 POP POP JUMP JUMPDEST POP POP POP POP JUMP JUMPDEST PUSH1 0x0 PUSH2 0x10E9 DUP4 PUSH2 0xEAB JUMP JUMPDEST SWAP1 POP PUSH1 0x0 DUP2 SWAP1 POP PUSH1 0x0 DUP1 PUSH2 0x10FC DUP7 PUSH2 0xF79 JUMP JUMPDEST SWAP2 POP SWAP2 POP DUP5 ISZERO PUSH2 0x1165 JUMPI PUSH2 0x1118 DUP2 DUP5 PUSH2 0x1113 PUSH2 0xE9E JUMP JUMPDEST PUSH2 0xFA0 JUMP JUMPDEST PUSH2 0x1164 JUMPI PUSH2 0x112D DUP4 PUSH2 0x1128 PUSH2 0xE9E JUMP JUMPDEST PUSH2 0xDAB JUMP JUMPDEST PUSH2 0x1163 JUMPI PUSH1 0x40 MLOAD PUSH32 0x59C896BE00000000000000000000000000000000000000000000000000000000 DUP2 MSTORE PUSH1 0x4 ADD PUSH1 0x40 MLOAD DUP1 SWAP2 SUB SWAP1 REVERT JUMPDEST JUMPDEST JUMPDEST PUSH2 0x1173 DUP4 PUSH1 0x0 DUP9 PUSH1 0x1 PUSH2 0xFE4 JUMP JUMPDEST DUP1 ISZERO PUSH2 0x117E JUMPI PUSH1 0x0 DUP3 SSTORE JUMPDEST PUSH1 0x1 PUSH1 0x80 PUSH1 0x1 SWAP1 SHL SUB PUSH1 0x5 PUSH1 0x0 DUP6 PUSH20 0xFFFFFFFFFFFFFFFFFFFFFFFFFFFFFFFFFFFFFFFF AND PUSH20 0xFFFFFFFFFFFFFFFFFFFFFFFFFFFFFFFFFFFFFFFF AND DUP2 MSTORE PUSH1 0x20 ADD SWAP1 DUP2 MSTORE PUSH1 0x20 ADD PUSH1 0x0 KECCAK256 PUSH1 0x0 DUP3 DUP3 SLOAD ADD SWAP3 POP POP DUP2 SWAP1 SSTORE POP PUSH2 0x1226 DUP4 PUSH2 0x11E3 DUP6 PUSH1 0x0 DUP9 PUSH2 0x1085 JUMP JUMPDEST PUSH29 0x200000000000000000000000000000000000000000000000000000000 PUSH29 0x100000000000000000000000000000000000000000000000000000000 OR OR PUSH2 0x10AD JUMP JUMPDEST PUSH1 0x4 PUSH1 0x0 DUP9 DUP2 MSTORE PUSH1 0x20 ADD SWAP1 DUP2 MSTORE PUSH1 0x20 ADD PUSH1 0x0 KECCAK256 DUP2 SWAP1 SSTORE POP PUSH1 0x0 PUSH29 0x200000000000000000000000000000000000000000000000000000000 DUP6 AND EQ ISZERO PUSH2 0x12AE JUMPI PUSH1 0x0 PUSH1 0x1 DUP8 ADD SWAP1 POP PUSH1 0x0 PUSH1 0x4 PUSH1 0x0 DUP4 DUP2 MSTORE PUSH1 0x20 ADD SWAP1 DUP2 MSTORE PUSH1 0x20 ADD PUSH1 0x0 KECCAK256 SLOAD EQ ISZERO PUSH2 0x12AC JUMPI PUSH1 0x0 SLOAD DUP2 EQ PUSH2 0x12AB JUMPI DUP5 PUSH1 0x4 PUSH1 0x0 DUP4 DUP2 MSTORE PUSH1 0x20 ADD SWAP1 DUP2 MSTORE PUSH1 0x20 ADD PUSH1 0x0 KECCAK256 DUP2 SWAP1 SSTORE POP JUMPDEST JUMPDEST POP JUMPDEST DUP6 PUSH1 0x0 PUSH20 0xFFFFFFFFFFFFFFFFFFFFFFFFFFFFFFFFFFFFFFFF AND DUP5 PUSH20 0xFFFFFFFFFFFFFFFFFFFFFFFFFFFFFFFFFFFFFFFF AND PUSH32 0xDDF252AD1BE2C89B69C2B068FC378DAA952BA7F163C4A11628F55A4DF523B3EF PUSH1 0x40 MLOAD PUSH1 0x40 MLOAD DUP1 SWAP2 SUB SWAP1 LOG4 PUSH2 0x1318 DUP4 PUSH1 0x0 DUP9 PUSH1 0x1 PUSH2 0x10D8 JUMP JUMPDEST PUSH1 0x1 PUSH1 0x0 DUP2 SLOAD DUP1 SWAP3 SWAP2 SWAP1 PUSH1 0x1 ADD SWAP2 SWAP1 POP SSTORE POP POP POP POP POP POP POP JUMP JUMPDEST PUSH2 0x134C DUP3 DUP3 PUSH1 0x40 MLOAD DUP1 PUSH1 0x20 ADD PUSH1 0x40 MSTORE DUP1 PUSH1 0x0 DUP2 MSTORE POP PUSH2 0x1529 JUMP JUMPDEST POP POP JUMP JUMPDEST PUSH1 0x0 DUP4 PUSH20 0xFFFFFFFFFFFFFFFFFFFFFFFFFFFFFFFFFFFFFFFF AND PUSH4 0x150B7A02 PUSH2 0x1376 PUSH2 0xE9E JUMP JUMPDEST DUP8 DUP7 DUP7 PUSH1 0x40 MLOAD DUP6 PUSH4 0xFFFFFFFF AND PUSH1 0xE0 SHL DUP2 MSTORE PUSH1 0x4 ADD PUSH2 0x1398 SWAP5 SWAP4 SWAP3 SWAP2 SWAP1 PUSH2 0x1BC5 JUMP JUMPDEST PUSH1 0x20 PUSH1 0x40 MLOAD DUP1 DUP4 SUB DUP2 PUSH1 0x0 DUP8 DUP1 EXTCODESIZE ISZERO DUP1 ISZERO PUSH2 0x13B2 JUMPI PUSH1 0x0 DUP1 REVERT JUMPDEST POP GAS CALL SWAP3 POP POP POP DUP1 ISZERO PUSH2 0x13E3 JUMPI POP PUSH1 0x40 MLOAD RETURNDATASIZE PUSH1 0x1F NOT PUSH1 0x1F DUP3 ADD AND DUP3 ADD DUP1 PUSH1 0x40 MSTORE POP DUP2 ADD SWAP1 PUSH2 0x13E0 SWAP2 SWAP1 PUSH2 0x1A5C JUMP JUMPDEST PUSH1 0x1 JUMPDEST PUSH2 0x145D JUMPI RETURNDATASIZE DUP1 PUSH1 0x0 DUP2 EQ PUSH2 0x1413 JUMPI PUSH1 0x40 MLOAD SWAP2 POP PUSH1 0x1F NOT PUSH1 0x3F RETURNDATASIZE ADD AND DUP3 ADD PUSH1 0x40 MSTORE RETURNDATASIZE DUP3 MSTORE RETURNDATASIZE PUSH1 0x0 PUSH1 0x20 DUP5 ADD RETURNDATACOPY PUSH2 0x1418 JUMP JUMPDEST PUSH1 0x60 SWAP2 POP JUMPDEST POP PUSH1 0x0 DUP2 MLOAD EQ ISZERO PUSH2 0x1455 JUMPI PUSH1 0x40 MLOAD PUSH32 0xD1A57ED600000000000000000000000000000000000000000000000000000000 DUP2 MSTORE PUSH1 0x4 ADD PUSH1 0x40 MLOAD DUP1 SWAP2 SUB SWAP1 REVERT JUMPDEST DUP1 MLOAD DUP2 PUSH1 0x20 ADD REVERT JUMPDEST PUSH4 0x150B7A02 PUSH1 0xE0 SHL PUSH28 0xFFFFFFFFFFFFFFFFFFFFFFFFFFFFFFFFFFFFFFFFFFFFFFFFFFFFFFFF NOT AND DUP2 PUSH28 0xFFFFFFFFFFFFFFFFFFFFFFFFFFFFFFFFFFFFFFFFFFFFFFFFFFFFFFFF NOT AND EQ SWAP2 POP POP SWAP5 SWAP4 POP POP POP POP JUMP JUMPDEST PUSH1 0x60 PUSH1 0x40 MLOAD DUP1 PUSH1 0x20 ADD PUSH1 0x40 MSTORE DUP1 PUSH1 0x0 DUP2 MSTORE POP SWAP1 POP SWAP1 JUMP JUMPDEST PUSH1 0x60 PUSH1 0xA0 PUSH1 0x40 MLOAD ADD DUP1 PUSH1 0x40 MSTORE PUSH1 0x20 DUP2 SUB SWAP2 POP PUSH1 0x0 DUP3 MSTORE DUP2 DUP4 JUMPDEST PUSH1 0x1 ISZERO PUSH2 0x150B JUMPI PUSH1 0x1 DUP5 SUB SWAP4 POP PUSH1 0xA DUP2 MOD PUSH1 0x30 ADD DUP5 MSTORE8 PUSH1 0xA DUP2 DIV SWAP1 POP DUP1 PUSH2 0x1506 JUMPI PUSH2 0x150B JUMP JUMPDEST PUSH2 0x14E0 JUMP JUMPDEST POP DUP3 DUP2 SUB PUSH1 0x20 DUP5 SUB SWAP4 POP DUP1 DUP5 MSTORE POP POP POP SWAP2 SWAP1 POP JUMP JUMPDEST PUSH1 0x0 SWAP4 SWAP3 POP POP POP JUMP JUMPDEST PUSH2 0x1533 DUP4 DUP4 PUSH2 0x15C6 JUMP JUMPDEST PUSH1 0x0 DUP4 PUSH20 0xFFFFFFFFFFFFFFFFFFFFFFFFFFFFFFFFFFFFFFFF AND EXTCODESIZE EQ PUSH2 0x15C1 JUMPI PUSH1 0x0 DUP1 SLOAD SWAP1 POP PUSH1 0x0 DUP4 DUP3 SUB SWAP1 POP JUMPDEST PUSH2 0x1573 PUSH1 0x0 DUP7 DUP4 DUP1 PUSH1 0x1 ADD SWAP5 POP DUP7 PUSH2 0x1350 JUMP JUMPDEST PUSH2 0x15A9 JUMPI PUSH1 0x40 MLOAD PUSH32 0xD1A57ED600000000000000000000000000000000000000000000000000000000 DUP2 MSTORE PUSH1 0x4 ADD PUSH1 0x40 MLOAD DUP1 SWAP2 SUB SWAP1 REVERT JUMPDEST DUP2 DUP2 LT PUSH2 0x1560 JUMPI DUP2 PUSH1 0x0 SLOAD EQ PUSH2 0x15BE JUMPI PUSH1 0x0 DUP1 REVERT JUMPDEST POP POP JUMPDEST POP POP POP JUMP JUMPDEST PUSH1 0x0 DUP1 SLOAD SWAP1 POP PUSH1 0x0 DUP3 EQ ISZERO PUSH2 0x1607 JUMPI PUSH1 0x40 MLOAD PUSH32 0xB562E8DD00000000000000000000000000000000000000000000000000000000 DUP2 MSTORE PUSH1 0x4 ADD PUSH1 0x40 MLOAD DUP1 SWAP2 SUB SWAP1 REVERT JUMPDEST PUSH2 0x1614 PUSH1 0x0 DUP5 DUP4 DUP6 PUSH2 0xFE4 JUMP JUMPDEST PUSH1 0x1 PUSH1 0x40 PUSH1 0x1 SWAP1 SHL OR DUP3 MUL PUSH1 0x5 PUSH1 0x0 DUP6 PUSH20 0xFFFFFFFFFFFFFFFFFFFFFFFFFFFFFFFFFFFFFFFF AND PUSH20 0xFFFFFFFFFFFFFFFFFFFFFFFFFFFFFFFFFFFFFFFF AND DUP2 MSTORE PUSH1 0x20 ADD SWAP1 DUP2 MSTORE PUSH1 0x20 ADD PUSH1 0x0 KECCAK256 PUSH1 0x0 DUP3 DUP3 SLOAD ADD SWAP3 POP POP DUP2 SWAP1 SSTORE POP PUSH2 0x168B DUP4 PUSH2 0x167C PUSH1 0x0 DUP7 PUSH1 0x0 PUSH2 0x1085 JUMP JUMPDEST PUSH2 0x1685 DUP6 PUSH2 0x1783 JUMP JUMPDEST OR PUSH2 0x10AD JUMP JUMPDEST PUSH1 0x4 PUSH1 0x0 DUP4 DUP2 MSTORE PUSH1 0x20 ADD SWAP1 DUP2 MSTORE PUSH1 0x20 ADD PUSH1 0x0 KECCAK256 DUP2 SWAP1 SSTORE POP PUSH1 0x0 DUP1 DUP4 DUP4 ADD SWAP1 POP PUSH20 0xFFFFFFFFFFFFFFFFFFFFFFFFFFFFFFFFFFFFFFFF DUP6 AND SWAP2 POP DUP3 DUP3 PUSH1 0x0 PUSH32 0xDDF252AD1BE2C89B69C2B068FC378DAA952BA7F163C4A11628F55A4DF523B3EF PUSH1 0x0 DUP1 LOG4 PUSH1 0x1 DUP4 ADD JUMPDEST DUP2 DUP2 EQ PUSH2 0x172C JUMPI DUP1 DUP4 PUSH1 0x0 PUSH32 0xDDF252AD1BE2C89B69C2B068FC378DAA952BA7F163C4A11628F55A4DF523B3EF PUSH1 0x0 DUP1 LOG4 PUSH1 0x1 DUP2 ADD SWAP1 POP PUSH2 0x16F1 JUMP JUMPDEST POP PUSH1 0x0 DUP3 EQ ISZERO PUSH2 0x1768 JUMPI PUSH1 0x40 MLOAD PUSH32 0x2E07630000000000000000000000000000000000000000000000000000000000 DUP2 MSTORE PUSH1 0x4 ADD PUSH1 0x40 MLOAD DUP1 SWAP2 SUB SWAP1 REVERT JUMPDEST DUP1 PUSH1 0x0 DUP2 SWAP1 SSTORE POP POP POP PUSH2 0x177E PUSH1 0x0 DUP5 DUP4 DUP6 PUSH2 0x10D8 JUMP JUMPDEST POP POP POP JUMP JUMPDEST PUSH1 0x0 PUSH1 0x1 DUP3 EQ PUSH1 0xE1 SHL SWAP1 POP SWAP2 SWAP1 POP JUMP JUMPDEST PUSH1 0x0 PUSH2 0x17A6 PUSH2 0x17A1 DUP5 PUSH2 0x1C8E JUMP JUMPDEST PUSH2 0x1C69 JUMP JUMPDEST SWAP1 POP DUP3 DUP2 MSTORE PUSH1 0x20 DUP2 ADD DUP5 DUP5 DUP5 ADD GT ISZERO PUSH2 0x17C2 JUMPI PUSH2 0x17C1 PUSH2 0x1E7E JUMP JUMPDEST JUMPDEST PUSH2 0x17CD DUP5 DUP3 DUP6 PUSH2 0x1D76 JUMP JUMPDEST POP SWAP4 SWAP3 POP POP POP JUMP JUMPDEST PUSH1 0x0 DUP2 CALLDATALOAD SWAP1 POP PUSH2 0x17E4 DUP2 PUSH2 0x1E9E JUMP JUMPDEST SWAP3 SWAP2 POP POP JUMP JUMPDEST PUSH1 0x0 DUP2 CALLDATALOAD SWAP1 POP PUSH2 0x17F9 DUP2 PUSH2 0x1EB5 JUMP JUMPDEST SWAP3 SWAP2 POP POP JUMP JUMPDEST PUSH1 0x0 DUP2 CALLDATALOAD SWAP1 POP PUSH2 0x180E DUP2 PUSH2 0x1ECC JUMP JUMPDEST SWAP3 SWAP2 POP POP JUMP JUMPDEST PUSH1 0x0 DUP2 MLOAD SWAP1 POP PUSH2 0x1823 DUP2 PUSH2 0x1ECC JUMP JUMPDEST SWAP3 SWAP2 POP POP JUMP JUMPDEST PUSH1 0x0 DUP3 PUSH1 0x1F DUP4 ADD SLT PUSH2 0x183E JUMPI PUSH2 0x183D PUSH2 0x1E79 JUMP JUMPDEST JUMPDEST DUP2 CALLDATALOAD PUSH2 0x184E DUP5 DUP3 PUSH1 0x20 DUP7 ADD PUSH2 0x1793 JUMP JUMPDEST SWAP2 POP POP SWAP3 SWAP2 POP POP JUMP JUMPDEST PUSH1 0x0 DUP2 CALLDATALOAD SWAP1 POP PUSH2 0x1866 DUP2 PUSH2 0x1EE3 JUMP JUMPDEST SWAP3 SWAP2 POP POP JUMP JUMPDEST PUSH1 0x0 PUSH1 0x20 DUP3 DUP5 SUB SLT ISZERO PUSH2 0x1882 JUMPI PUSH2 0x1881 PUSH2 0x1E88 JUMP JUMPDEST JUMPDEST PUSH1 0x0 PUSH2 0x1890 DUP5 DUP3 DUP6 ADD PUSH2 0x17D5 JUMP JUMPDEST SWAP2 POP POP SWAP3 SWAP2 POP POP JUMP JUMPDEST PUSH1 0x0 DUP1 PUSH1 0x40 DUP4 DUP6 SUB SLT ISZERO PUSH2 0x18B0 JUMPI PUSH2 0x18AF PUSH2 0x1E88 JUMP JUMPDEST JUMPDEST PUSH1 0x0 PUSH2 0x18BE DUP6 DUP3 DUP7 ADD PUSH2 0x17D5 JUMP JUMPDEST SWAP3 POP POP PUSH1 0x20 PUSH2 0x18CF DUP6 DUP3 DUP7 ADD PUSH2 0x17D5 JUMP JUMPDEST SWAP2 POP POP SWAP3 POP SWAP3 SWAP1 POP JUMP JUMPDEST PUSH1 0x0 DUP1 PUSH1 0x0 PUSH1 0x60 DUP5 DUP7 SUB SLT ISZERO PUSH2 0x18F2 JUMPI PUSH2 0x18F1 PUSH2 0x1E88 JUMP JUMPDEST JUMPDEST PUSH1 0x0 PUSH2 0x1900 DUP7 DUP3 DUP8 ADD PUSH2 0x17D5 JUMP JUMPDEST SWAP4 POP POP PUSH1 0x20 PUSH2 0x1911 DUP7 DUP3 DUP8 ADD PUSH2 0x17D5 JUMP JUMPDEST SWAP3 POP POP PUSH1 0x40 PUSH2 0x1922 DUP7 DUP3 DUP8 ADD PUSH2 0x1857 JUMP JUMPDEST SWAP2 POP POP SWAP3 POP SWAP3 POP SWAP3 JUMP JUMPDEST PUSH1 0x0 DUP1 PUSH1 0x0 DUP1 PUSH1 0x80 DUP6 DUP8 SUB SLT ISZERO PUSH2 0x1946 JUMPI PUSH2 0x1945 PUSH2 0x1E88 JUMP JUMPDEST JUMPDEST PUSH1 0x0 PUSH2 0x1954 DUP8 DUP3 DUP9 ADD PUSH2 0x17D5 JUMP JUMPDEST SWAP5 POP POP PUSH1 0x20 PUSH2 0x1965 DUP8 DUP3 DUP9 ADD PUSH2 0x17D5 JUMP JUMPDEST SWAP4 POP POP PUSH1 0x40 PUSH2 0x1976 DUP8 DUP3 DUP9 ADD PUSH2 0x1857 JUMP JUMPDEST SWAP3 POP POP PUSH1 0x60 DUP6 ADD CALLDATALOAD PUSH8 0xFFFFFFFFFFFFFFFF DUP2 GT ISZERO PUSH2 0x1997 JUMPI PUSH2 0x1996 PUSH2 0x1E83 JUMP JUMPDEST JUMPDEST PUSH2 0x19A3 DUP8 DUP3 DUP9 ADD PUSH2 0x1829 JUMP JUMPDEST SWAP2 POP POP SWAP3 SWAP6 SWAP2 SWAP5 POP SWAP3 POP JUMP JUMPDEST PUSH1 0x0 DUP1 PUSH1 0x40 DUP4 DUP6 SUB SLT ISZERO PUSH2 0x19C6 JUMPI PUSH2 0x19C5 PUSH2 0x1E88 JUMP JUMPDEST JUMPDEST PUSH1 0x0 PUSH2 0x19D4 DUP6 DUP3 DUP7 ADD PUSH2 0x17D5 JUMP JUMPDEST SWAP3 POP POP PUSH1 0x20 PUSH2 0x19E5 DUP6 DUP3 DUP7 ADD PUSH2 0x17EA JUMP JUMPDEST SWAP2 POP POP SWAP3 POP SWAP3 SWAP1 POP JUMP JUMPDEST PUSH1 0x0 DUP1 PUSH1 0x40 DUP4 DUP6 SUB SLT ISZERO PUSH2 0x1A06 JUMPI PUSH2 0x1A05 PUSH2 0x1E88 JUMP JUMPDEST JUMPDEST PUSH1 0x0 PUSH2 0x1A14 DUP6 DUP3 DUP7 ADD PUSH2 0x17D5 JUMP JUMPDEST SWAP3 POP POP PUSH1 0x20 PUSH2 0x1A25 DUP6 DUP3 DUP7 ADD PUSH2 0x1857 JUMP JUMPDEST SWAP2 POP POP SWAP3 POP SWAP3 SWAP1 POP JUMP JUMPDEST PUSH1 0x0 PUSH1 0x20 DUP3 DUP5 SUB SLT ISZERO PUSH2 0x1A45 JUMPI PUSH2 0x1A44 PUSH2 0x1E88 JUMP JUMPDEST JUMPDEST PUSH1 0x0 PUSH2 0x1A53 DUP5 DUP3 DUP6 ADD PUSH2 0x17FF JUMP JUMPDEST SWAP2 POP POP SWAP3 SWAP2 POP POP JUMP JUMPDEST PUSH1 0x0 PUSH1 0x20 DUP3 DUP5 SUB SLT ISZERO PUSH2 0x1A72 JUMPI PUSH2 0x1A71 PUSH2 0x1E88 JUMP JUMPDEST JUMPDEST PUSH1 0x0 PUSH2 0x1A80 DUP5 DUP3 DUP6 ADD PUSH2 0x1814 JUMP JUMPDEST SWAP2 POP POP SWAP3 SWAP2 POP POP JUMP JUMPDEST PUSH1 0x0 PUSH1 0x20 DUP3 DUP5 SUB SLT ISZERO PUSH2 0x1A9F JUMPI PUSH2 0x1A9E PUSH2 0x1E88 JUMP JUMPDEST JUMPDEST PUSH1 0x0 PUSH2 0x1AAD DUP5 DUP3 DUP6 ADD PUSH2 0x1857 JUMP JUMPDEST SWAP2 POP POP SWAP3 SWAP2 POP POP JUMP JUMPDEST PUSH2 0x1ABF DUP2 PUSH2 0x1D02 JUMP JUMPDEST DUP3 MSTORE POP POP JUMP JUMPDEST PUSH2 0x1ACE DUP2 PUSH2 0x1D14 JUMP JUMPDEST DUP3 MSTORE POP POP JUMP JUMPDEST PUSH1 0x0 PUSH2 0x1ADF DUP3 PUSH2 0x1CBF JUMP JUMPDEST PUSH2 0x1AE9 DUP2 DUP6 PUSH2 0x1CD5 JUMP JUMPDEST SWAP4 POP PUSH2 0x1AF9 DUP2 DUP6 PUSH1 0x20 DUP7 ADD PUSH2 0x1D85 JUMP JUMPDEST PUSH2 0x1B02 DUP2 PUSH2 0x1E8D JUMP JUMPDEST DUP5 ADD SWAP2 POP POP SWAP3 SWAP2 POP POP JUMP JUMPDEST PUSH1 0x0 PUSH2 0x1B18 DUP3 PUSH2 0x1CCA JUMP JUMPDEST PUSH2 0x1B22 DUP2 DUP6 PUSH2 0x1CE6 JUMP JUMPDEST SWAP4 POP PUSH2 0x1B32 DUP2 DUP6 PUSH1 0x20 DUP7 ADD PUSH2 0x1D85 JUMP JUMPDEST PUSH2 0x1B3B DUP2 PUSH2 0x1E8D JUMP JUMPDEST DUP5 ADD SWAP2 POP POP SWAP3 SWAP2 POP POP JUMP JUMPDEST PUSH1 0x0 PUSH2 0x1B51 DUP3 PUSH2 0x1CCA JUMP JUMPDEST PUSH2 0x1B5B DUP2 DUP6 PUSH2 0x1CF7 JUMP JUMPDEST SWAP4 POP PUSH2 0x1B6B DUP2 DUP6 PUSH1 0x20 DUP7 ADD PUSH2 0x1D85 JUMP JUMPDEST DUP1 DUP5 ADD SWAP2 POP POP SWAP3 SWAP2 POP POP JUMP JUMPDEST PUSH2 0x1B80 DUP2 PUSH2 0x1D6C JUMP JUMPDEST DUP3 MSTORE POP POP JUMP JUMPDEST PUSH1 0x0 PUSH2 0x1B92 DUP3 DUP6 PUSH2 0x1B46 JUMP JUMPDEST SWAP2 POP PUSH2 0x1B9E DUP3 DUP5 PUSH2 0x1B46 JUMP JUMPDEST SWAP2 POP DUP2 SWAP1 POP SWAP4 SWAP3 POP POP POP JUMP JUMPDEST PUSH1 0x0 PUSH1 0x20 DUP3 ADD SWAP1 POP PUSH2 0x1BBF PUSH1 0x0 DUP4 ADD DUP5 PUSH2 0x1AB6 JUMP JUMPDEST SWAP3 SWAP2 POP POP JUMP JUMPDEST PUSH1 0x0 PUSH1 0x80 DUP3 ADD SWAP1 POP PUSH2 0x1BDA PUSH1 0x0 DUP4 ADD DUP8 PUSH2 0x1AB6 JUMP JUMPDEST PUSH2 0x1BE7 PUSH1 0x20 DUP4 ADD DUP7 PUSH2 0x1AB6 JUMP JUMPDEST PUSH2 0x1BF4 PUSH1 0x40 DUP4 ADD DUP6 PUSH2 0x1B77 JUMP JUMPDEST DUP2 DUP2 SUB PUSH1 0x60 DUP4 ADD MSTORE PUSH2 0x1C06 DUP2 DUP5 PUSH2 0x1AD4 JUMP JUMPDEST SWAP1 POP SWAP6 SWAP5 POP POP POP POP POP JUMP JUMPDEST PUSH1 0x0 PUSH1 0x20 DUP3 ADD SWAP1 POP PUSH2 0x1C26 PUSH1 0x0 DUP4 ADD DUP5 PUSH2 0x1AC5 JUMP JUMPDEST SWAP3 SWAP2 POP POP JUMP JUMPDEST PUSH1 0x0 PUSH1 0x20 DUP3 ADD SWAP1 POP DUP2 DUP2 SUB PUSH1 0x0 DUP4 ADD MSTORE PUSH2 0x1C46 DUP2 DUP5 PUSH2 0x1B0D JUMP JUMPDEST SWAP1 POP SWAP3 SWAP2 POP POP JUMP JUMPDEST PUSH1 0x0 PUSH1 0x20 DUP3 ADD SWAP1 POP PUSH2 0x1C63 PUSH1 0x0 DUP4 ADD DUP5 PUSH2 0x1B77 JUMP JUMPDEST SWAP3 SWAP2 POP POP JUMP JUMPDEST PUSH1 0x0 PUSH2 0x1C73 PUSH2 0x1C84 JUMP JUMPDEST SWAP1 POP PUSH2 0x1C7F DUP3 DUP3 PUSH2 0x1DEA JUMP JUMPDEST SWAP2 SWAP1 POP JUMP JUMPDEST PUSH1 0x0 PUSH1 0x40 MLOAD SWAP1 POP SWAP1 JUMP JUMPDEST PUSH1 0x0 PUSH8 0xFFFFFFFFFFFFFFFF DUP3 GT ISZERO PUSH2 0x1CA9 JUMPI PUSH2 0x1CA8 PUSH2 0x1E4A JUMP JUMPDEST JUMPDEST PUSH2 0x1CB2 DUP3 PUSH2 0x1E8D JUMP JUMPDEST SWAP1 POP PUSH1 0x20 DUP2 ADD SWAP1 POP SWAP2 SWAP1 POP JUMP JUMPDEST PUSH1 0x0 DUP2 MLOAD SWAP1 POP SWAP2 SWAP1 POP JUMP JUMPDEST PUSH1 0x0 DUP2 MLOAD SWAP1 POP SWAP2 SWAP1 POP JUMP JUMPDEST PUSH1 0x0 DUP3 DUP3 MSTORE PUSH1 0x20 DUP3 ADD SWAP1 POP SWAP3 SWAP2 POP POP JUMP JUMPDEST PUSH1 0x0 DUP3 DUP3 MSTORE PUSH1 0x20 DUP3 ADD SWAP1 POP SWAP3 SWAP2 POP POP JUMP JUMPDEST PUSH1 0x0 DUP2 SWAP1 POP SWAP3 SWAP2 POP POP JUMP JUMPDEST PUSH1 0x0 PUSH2 0x1D0D DUP3 PUSH2 0x1D4C JUMP JUMPDEST SWAP1 POP SWAP2 SWAP1 POP JUMP JUMPDEST PUSH1 0x0 DUP2 ISZERO ISZERO SWAP1 POP SWAP2 SWAP1 POP JUMP JUMPDEST PUSH1 0x0 PUSH32 0xFFFFFFFF00000000000000000000000000000000000000000000000000000000 DUP3 AND SWAP1 POP SWAP2 SWAP1 POP JUMP JUMPDEST PUSH1 0x0 PUSH20 0xFFFFFFFFFFFFFFFFFFFFFFFFFFFFFFFFFFFFFFFF DUP3 AND SWAP1 POP SWAP2 SWAP1 POP JUMP JUMPDEST PUSH1 0x0 DUP2 SWAP1 POP SWAP2 SWAP1 POP JUMP JUMPDEST DUP3 DUP2 DUP4 CALLDATACOPY PUSH1 0x0 DUP4 DUP4 ADD MSTORE POP POP POP JUMP JUMPDEST PUSH1 0x0 JUMPDEST DUP4 DUP2 LT ISZERO PUSH2 0x1DA3 JUMPI DUP1 DUP3 ADD MLOAD DUP2 DUP5 ADD MSTORE PUSH1 0x20 DUP2 ADD SWAP1 POP PUSH2 0x1D88 JUMP JUMPDEST DUP4 DUP2 GT ISZERO PUSH2 0x1DB2 JUMPI PUSH1 0x0 DUP5 DUP5 ADD MSTORE JUMPDEST POP POP POP POP JUMP JUMPDEST PUSH1 0x0 PUSH1 0x2 DUP3 DIV SWAP1 POP PUSH1 0x1 DUP3 AND DUP1 PUSH2 0x1DD0 JUMPI PUSH1 0x7F DUP3 AND SWAP2 POP JUMPDEST PUSH1 0x20 DUP3 LT DUP2 EQ ISZERO PUSH2 0x1DE4 JUMPI PUSH2 0x1DE3 PUSH2 0x1E1B JUMP JUMPDEST JUMPDEST POP SWAP2 SWAP1 POP JUMP JUMPDEST PUSH2 0x1DF3 DUP3 PUSH2 0x1E8D JUMP JUMPDEST DUP2 ADD DUP2 DUP2 LT PUSH8 0xFFFFFFFFFFFFFFFF DUP3 GT OR ISZERO PUSH2 0x1E12 JUMPI PUSH2 0x1E11 PUSH2 0x1E4A JUMP JUMPDEST JUMPDEST DUP1 PUSH1 0x40 MSTORE POP POP POP JUMP JUMPDEST PUSH32 0x4E487B7100000000000000000000000000000000000000000000000000000000 PUSH1 0x0 MSTORE PUSH1 0x22 PUSH1 0x4 MSTORE PUSH1 0x24 PUSH1 0x0 REVERT JUMPDEST PUSH32 0x4E487B7100000000000000000000000000000000000000000000000000000000 PUSH1 0x0 MSTORE PUSH1 0x41 PUSH1 0x4 MSTORE PUSH1 0x24 PUSH1 0x0 REVERT JUMPDEST PUSH1 0x0 DUP1 REVERT JUMPDEST PUSH1 0x0 DUP1 REVERT JUMPDEST PUSH1 0x0 DUP1 REVERT JUMPDEST PUSH1 0x0 DUP1 REVERT JUMPDEST PUSH1 0x0 PUSH1 0x1F NOT PUSH1 0x1F DUP4 ADD AND SWAP1 POP SWAP2 SWAP1 POP JUMP JUMPDEST PUSH2 0x1EA7 DUP2 PUSH2 0x1D02 JUMP JUMPDEST DUP2 EQ PUSH2 0x1EB2 JUMPI PUSH1 0x0 DUP1 REVERT JUMPDEST POP JUMP JUMPDEST PUSH2 0x1EBE DUP2 PUSH2 0x1D14 JUMP JUMPDEST DUP2 EQ PUSH2 0x1EC9 JUMPI PUSH1 0x0 DUP1 REVERT JUMPDEST POP JUMP JUMPDEST PUSH2 0x1ED5 DUP2 PUSH2 0x1D20 JUMP JUMPDEST DUP2 EQ PUSH2 0x1EE0 JUMPI PUSH1 0x0 DUP1 REVERT JUMPDEST POP JUMP JUMPDEST PUSH2 0x1EEC DUP2 PUSH2 0x1D6C JUMP JUMPDEST DUP2 EQ PUSH2 0x1EF7 JUMPI PUSH1 0x0 DUP1 REVERT JUMPDEST POP JUMP INVALID LOG2 PUSH5 0x6970667358 0x22 SLT KECCAK256 ISZERO 0xDB LOG0 SWAP14 SMOD PUSH21 0xCA248769B7E8B6CCB3079434ED70D5065D64FB324E RETURNDATACOPY 0x5C 0x5E 0xA5 CODECOPY PUSH5 0x736F6C6343 STOP ADDMOD SMOD STOP CALLER "
				},
				"gasEstimates": {
					"creation": {
						"codeDepositCost": "1596800",
						"executionCost": "infinite",
						"totalCost": "infinite"
					},
					"external": {
						"approve(address,uint256)": "infinite",
						"balanceOf(address)": "2930",
						"burn(uint256)": "infinite",
						"getApproved(uint256)": "7381",
						"isApprovedForAll(address,address)": "infinite",
						"name()": "infinite",
						"ownerOf(uint256)": "infinite",
						"safeMint(address,uint256)": "infinite",
						"safeTransferFrom(address,address,uint256)": "infinite",
						"safeTransferFrom(address,address,uint256,bytes)": "infinite",
						"setApprovalForAll(address,bool)": "infinite",
						"supportsInterface(bytes4)": "745",
						"symbol()": "infinite",
						"tokenURI(uint256)": "5545",
						"totalSupply()": "4599",
						"transferFrom(address,address,uint256)": "infinite"
					}
				},
				"methodIdentifiers": {
					"approve(address,uint256)": "095ea7b3",
					"balanceOf(address)": "70a08231",
					"burn(uint256)": "42966c68",
					"getApproved(uint256)": "081812fc",
					"isApprovedForAll(address,address)": "e985e9c5",
					"name()": "06fdde03",
					"ownerOf(uint256)": "6352211e",
					"safeMint(address,uint256)": "a1448194",
					"safeTransferFrom(address,address,uint256)": "42842e0e",
					"safeTransferFrom(address,address,uint256,bytes)": "b88d4fde",
					"setApprovalForAll(address,bool)": "a22cb465",
					"supportsInterface(bytes4)": "01ffc9a7",
					"symbol()": "95d89b41",
					"tokenURI(uint256)": "c87b56dd",
					"totalSupply()": "18160ddd",
					"transferFrom(address,address,uint256)": "23b872dd"
				}
			},
			"storageLayout": {
				"storage": [
					{
						"astId": 122,
						"contract": "BuildGuildSoulbound.sol:ERC721ASoulboundMock",
						"label": "_currentIndex",
						"offset": 0,
						"slot": "0",
						"type": "t_uint256"
					},
					{
						"astId": 124,
						"contract": "BuildGuildSoulbound.sol:ERC721ASoulboundMock",
						"label": "_burnCounter",
						"offset": 0,
						"slot": "1",
						"type": "t_uint256"
					},
					{
						"astId": 126,
						"contract": "BuildGuildSoulbound.sol:ERC721ASoulboundMock",
						"label": "_name",
						"offset": 0,
						"slot": "2",
						"type": "t_string_storage"
					},
					{
						"astId": 128,
						"contract": "BuildGuildSoulbound.sol:ERC721ASoulboundMock",
						"label": "_symbol",
						"offset": 0,
						"slot": "3",
						"type": "t_string_storage"
					},
					{
						"astId": 132,
						"contract": "BuildGuildSoulbound.sol:ERC721ASoulboundMock",
						"label": "_packedOwnerships",
						"offset": 0,
						"slot": "4",
						"type": "t_mapping(t_uint256,t_uint256)"
					},
					{
						"astId": 136,
						"contract": "BuildGuildSoulbound.sol:ERC721ASoulboundMock",
						"label": "_packedAddressData",
						"offset": 0,
						"slot": "5",
						"type": "t_mapping(t_address,t_uint256)"
					},
					{
						"astId": 141,
						"contract": "BuildGuildSoulbound.sol:ERC721ASoulboundMock",
						"label": "_tokenApprovals",
						"offset": 0,
						"slot": "6",
						"type": "t_mapping(t_uint256,t_struct(TokenApprovalRef)54_storage)"
					},
					{
						"astId": 147,
						"contract": "BuildGuildSoulbound.sol:ERC721ASoulboundMock",
						"label": "_operatorApprovals",
						"offset": 0,
						"slot": "7",
						"type": "t_mapping(t_address,t_mapping(t_address,t_bool))"
					}
				],
				"types": {
					"t_address": {
						"encoding": "inplace",
						"label": "address",
						"numberOfBytes": "20"
					},
					"t_bool": {
						"encoding": "inplace",
						"label": "bool",
						"numberOfBytes": "1"
					},
					"t_mapping(t_address,t_bool)": {
						"encoding": "mapping",
						"key": "t_address",
						"label": "mapping(address => bool)",
						"numberOfBytes": "32",
						"value": "t_bool"
					},
					"t_mapping(t_address,t_mapping(t_address,t_bool))": {
						"encoding": "mapping",
						"key": "t_address",
						"label": "mapping(address => mapping(address => bool))",
						"numberOfBytes": "32",
						"value": "t_mapping(t_address,t_bool)"
					},
					"t_mapping(t_address,t_uint256)": {
						"encoding": "mapping",
						"key": "t_address",
						"label": "mapping(address => uint256)",
						"numberOfBytes": "32",
						"value": "t_uint256"
					},
					"t_mapping(t_uint256,t_struct(TokenApprovalRef)54_storage)": {
						"encoding": "mapping",
						"key": "t_uint256",
						"label": "mapping(uint256 => struct ERC721A.TokenApprovalRef)",
						"numberOfBytes": "32",
						"value": "t_struct(TokenApprovalRef)54_storage"
					},
					"t_mapping(t_uint256,t_uint256)": {
						"encoding": "mapping",
						"key": "t_uint256",
						"label": "mapping(uint256 => uint256)",
						"numberOfBytes": "32",
						"value": "t_uint256"
					},
					"t_string_storage": {
						"encoding": "bytes",
						"label": "string",
						"numberOfBytes": "32"
					},
					"t_struct(TokenApprovalRef)54_storage": {
						"encoding": "inplace",
						"label": "struct ERC721A.TokenApprovalRef",
						"members": [
							{
								"astId": 53,
								"contract": "BuildGuildSoulbound.sol:ERC721ASoulboundMock",
								"label": "value",
								"offset": 0,
								"slot": "0",
								"type": "t_address"
							}
						],
						"numberOfBytes": "32"
					},
					"t_uint256": {
						"encoding": "inplace",
						"label": "uint256",
						"numberOfBytes": "32"
					}
				}
			},
			"userdoc": {
				"errors": {
					"ApprovalCallerNotOwnerNorApproved()": [
						{
							"notice": "The caller must own the token or be an approved operator."
						}
					],
					"ApprovalQueryForNonexistentToken()": [
						{
							"notice": "The token does not exist."
						}
					],
					"BalanceQueryForZeroAddress()": [
						{
							"notice": "Cannot query the balance for the zero address."
						}
					],
					"MintERC2309QuantityExceedsLimit()": [
						{
							"notice": "The `quantity` minted with ERC2309 exceeds the safety limit."
						}
					],
					"MintToZeroAddress()": [
						{
							"notice": "Cannot mint to the zero address."
						}
					],
					"MintZeroQuantity()": [
						{
							"notice": "The quantity of tokens minted must be more than zero."
						}
					],
					"OwnerQueryForNonexistentToken()": [
						{
							"notice": "The token does not exist."
						}
					],
					"OwnershipNotInitializedForExtraData()": [
						{
							"notice": "The `extraData` cannot be set on an unintialized ownership slot."
						}
					],
					"SoulboundTokenCannotBeTransferred()": [
						{
							"notice": "A Soulbound token cannot be transferred."
						}
					],
					"TransferCallerNotOwnerNorApproved()": [
						{
							"notice": "The caller must own the token or be an approved operator."
						}
					],
					"TransferFromIncorrectOwner()": [
						{
							"notice": "The token must be owned by `from`."
						}
					],
					"TransferToNonERC721ReceiverImplementer()": [
						{
							"notice": "Cannot safely transfer to a contract that does not implement the ERC721Receiver interface."
						}
					],
					"TransferToZeroAddress()": [
						{
							"notice": "Cannot transfer to the zero address."
						}
					],
					"URIQueryForNonexistentToken()": [
						{
							"notice": "The token does not exist."
						}
					]
				},
				"kind": "user",
				"methods": {},
				"version": 1
			}
		}
	}
}